{
    "_format": "hh-sol-artifact-1",
    "contractName": "DopeNft",
    "sourceName": "contracts/nftContract.sol",
    "abi": [
        {
            "inputs": [],
            "stateMutability": "nonpayable",
            "type": "constructor"
        },
        {
            "anonymous": false,
            "inputs": [
                {
                    "indexed": true,
                    "internalType": "address",
                    "name": "owner",
                    "type": "address"
                },
                {
                    "indexed": true,
                    "internalType": "address",
                    "name": "approved",
                    "type": "address"
                },
                {
                    "indexed": true,
                    "internalType": "uint256",
                    "name": "tokenId",
                    "type": "uint256"
                }
            ],
            "name": "Approval",
            "type": "event"
        },
        {
            "anonymous": false,
            "inputs": [
                {
                    "indexed": true,
                    "internalType": "address",
                    "name": "owner",
                    "type": "address"
                },
                {
                    "indexed": true,
                    "internalType": "address",
                    "name": "operator",
                    "type": "address"
                },
                {
                    "indexed": false,
                    "internalType": "bool",
                    "name": "approved",
                    "type": "bool"
                }
            ],
            "name": "ApprovalForAll",
            "type": "event"
        },
        {
            "anonymous": false,
            "inputs": [
                {
                    "indexed": true,
                    "internalType": "address",
                    "name": "from",
                    "type": "address"
                },
                {
                    "indexed": true,
                    "internalType": "address",
                    "name": "to",
                    "type": "address"
                },
                {
                    "indexed": true,
                    "internalType": "uint256",
                    "name": "tokenId",
                    "type": "uint256"
                }
            ],
            "name": "Transfer",
            "type": "event"
        },
        {
            "anonymous": false,
            "inputs": [
                {
                    "indexed": false,
                    "internalType": "address",
                    "name": "sender",
                    "type": "address"
                },
                {
                    "indexed": false,
                    "internalType": "uint256",
                    "name": "tokenId",
                    "type": "uint256"
                }
            ],
            "name": "newAlienNFT",
            "type": "event"
        },
        {
            "inputs": [
                {
                    "internalType": "address",
                    "name": "to",
                    "type": "address"
                },
                {
                    "internalType": "uint256",
                    "name": "tokenId",
                    "type": "uint256"
                }
            ],
            "name": "approve",
            "outputs": [],
            "stateMutability": "nonpayable",
            "type": "function"
        },
        {
            "inputs": [
                {
                    "internalType": "address",
                    "name": "owner",
                    "type": "address"
                }
            ],
            "name": "balanceOf",
            "outputs": [
                {
                    "internalType": "uint256",
                    "name": "",
                    "type": "uint256"
                }
            ],
            "stateMutability": "view",
            "type": "function"
        },
        {
            "inputs": [],
            "name": "constructDopeNft",
            "outputs": [],
            "stateMutability": "nonpayable",
            "type": "function"
        },
        {
            "inputs": [
                {
                    "internalType": "uint256",
                    "name": "tokenId",
                    "type": "uint256"
                }
            ],
            "name": "getApproved",
            "outputs": [
                {
                    "internalType": "address",
                    "name": "",
                    "type": "address"
                }
            ],
            "stateMutability": "view",
            "type": "function"
        },
        {
            "inputs": [],
            "name": "getTotalMints",
            "outputs": [
                {
                    "internalType": "uint256",
                    "name": "",
                    "type": "uint256"
                }
            ],
            "stateMutability": "view",
            "type": "function"
        },
        {
            "inputs": [
                {
                    "internalType": "uint256",
                    "name": "tokenId",
                    "type": "uint256"
                }
            ],
            "name": "idCardSelection",
            "outputs": [
                {
                    "internalType": "string",
                    "name": "",
                    "type": "string"
                }
            ],
            "stateMutability": "view",
            "type": "function"
        },
        {
            "inputs": [
                {
                    "internalType": "address",
                    "name": "owner",
                    "type": "address"
                },
                {
                    "internalType": "address",
                    "name": "operator",
                    "type": "address"
                }
            ],
            "name": "isApprovedForAll",
            "outputs": [
                {
                    "internalType": "bool",
                    "name": "",
                    "type": "bool"
                }
            ],
            "stateMutability": "view",
            "type": "function"
        },
        {
            "inputs": [],
            "name": "name",
            "outputs": [
                {
                    "internalType": "string",
                    "name": "",
                    "type": "string"
                }
            ],
            "stateMutability": "view",
            "type": "function"
        },
        {
            "inputs": [
                {
                    "internalType": "uint256",
                    "name": "tokenId",
                    "type": "uint256"
                }
            ],
            "name": "ownerOf",
            "outputs": [
                {
                    "internalType": "address",
                    "name": "",
                    "type": "address"
                }
            ],
            "stateMutability": "view",
            "type": "function"
        },
        {
            "inputs": [
                {
                    "internalType": "uint256",
                    "name": "tokenId",
                    "type": "uint256"
                }
            ],
            "name": "pickHeadFeature",
            "outputs": [
                {
                    "internalType": "string",
                    "name": "",
                    "type": "string"
                }
            ],
            "stateMutability": "view",
            "type": "function"
        },
        {
            "inputs": [
                {
                    "internalType": "uint256",
                    "name": "tokenId",
                    "type": "uint256"
                }
            ],
            "name": "pickRandomColor",
            "outputs": [
                {
                    "internalType": "string",
                    "name": "",
                    "type": "string"
                }
            ],
            "stateMutability": "view",
            "type": "function"
        },
        {
            "inputs": [
                {
                    "internalType": "uint256",
                    "name": "tokenId",
                    "type": "uint256"
                }
            ],
            "name": "pickSkinColor",
            "outputs": [
                {
                    "internalType": "string",
                    "name": "",
                    "type": "string"
                }
            ],
            "stateMutability": "view",
            "type": "function"
        },
        {
            "inputs": [
                {
                    "internalType": "uint256",
                    "name": "tokenId",
                    "type": "uint256"
                }
            ],
            "name": "pickfirstName",
            "outputs": [
                {
                    "internalType": "string",
                    "name": "",
                    "type": "string"
                }
            ],
            "stateMutability": "view",
            "type": "function"
        },
        {
            "inputs": [
                {
                    "internalType": "uint256",
                    "name": "tokenId",
                    "type": "uint256"
                }
            ],
            "name": "picklastName",
            "outputs": [
                {
                    "internalType": "string",
                    "name": "",
                    "type": "string"
                }
            ],
            "stateMutability": "view",
            "type": "function"
        },
        {
            "inputs": [
                {
                    "internalType": "address",
                    "name": "from",
                    "type": "address"
                },
                {
                    "internalType": "address",
                    "name": "to",
                    "type": "address"
                },
                {
                    "internalType": "uint256",
                    "name": "tokenId",
                    "type": "uint256"
                }
            ],
            "name": "safeTransferFrom",
            "outputs": [],
            "stateMutability": "nonpayable",
            "type": "function"
        },
        {
            "inputs": [
                {
                    "internalType": "address",
                    "name": "from",
                    "type": "address"
                },
                {
                    "internalType": "address",
                    "name": "to",
                    "type": "address"
                },
                {
                    "internalType": "uint256",
                    "name": "tokenId",
                    "type": "uint256"
                },
                {
                    "internalType": "bytes",
                    "name": "_data",
                    "type": "bytes"
                }
            ],
            "name": "safeTransferFrom",
            "outputs": [],
            "stateMutability": "nonpayable",
            "type": "function"
        },
        {
            "inputs": [
                {
                    "internalType": "address",
                    "name": "operator",
                    "type": "address"
                },
                {
                    "internalType": "bool",
                    "name": "approved",
                    "type": "bool"
                }
            ],
            "name": "setApprovalForAll",
            "outputs": [],
            "stateMutability": "nonpayable",
            "type": "function"
        },
        {
            "inputs": [
                {
                    "internalType": "bytes4",
                    "name": "interfaceId",
                    "type": "bytes4"
                }
            ],
            "name": "supportsInterface",
            "outputs": [
                {
                    "internalType": "bool",
                    "name": "",
                    "type": "bool"
                }
            ],
            "stateMutability": "view",
            "type": "function"
        },
        {
            "inputs": [],
            "name": "symbol",
            "outputs": [
                {
                    "internalType": "string",
                    "name": "",
                    "type": "string"
                }
            ],
            "stateMutability": "view",
            "type": "function"
        },
        {
            "inputs": [
                {
                    "internalType": "uint256",
                    "name": "tokenId",
                    "type": "uint256"
                }
            ],
            "name": "tokenURI",
            "outputs": [
                {
                    "internalType": "string",
                    "name": "",
                    "type": "string"
                }
            ],
            "stateMutability": "view",
            "type": "function"
        },
        {
            "inputs": [
                {
                    "internalType": "address",
                    "name": "from",
                    "type": "address"
                },
                {
                    "internalType": "address",
                    "name": "to",
                    "type": "address"
                },
                {
                    "internalType": "uint256",
                    "name": "tokenId",
                    "type": "uint256"
                }
            ],
            "name": "transferFrom",
            "outputs": [],
            "stateMutability": "nonpayable",
            "type": "function"
        }
    ],
    "bytecode": "0x608060405260405180610100016040528060ce815260200162007ffa60ce913960089080519060200190620000369291906200260c565b50604051806102c00160405280610295815260200162008f146102959139600990805190602001906200006b9291906200260c565b50604051806103a0016040528061037281526020016200709a6103729139600a9080519060200190620000a09291906200260c565b50604051806104e001604052806104b1815260200162008a636104b19139600b9080519060200190620000d59291906200260c565b50604051806105a001604052806105718152602001620077ec6105719139600c90805190602001906200010a9291906200260c565b5060405180610180016040528061015b81526020016200956561015b9139600d90805190602001906200013f9291906200260c565b506040518061032001604052806102fc8152602001620096c06102fc9139600e9080519060200190620001749291906200260c565b50604051806101600160405280610128815260200162006b5f6101289139600f9080519060200190620001a99291906200260c565b50604051806102600160405280610223815260200162006c87610223913960109080519060200190620001de9291906200260c565b50604051806102c0016040528061029d815260200162007d5d61029d913960119080519060200190620002139291906200260c565b5060405180602001604052806000815250601290805190602001906200023b9291906200260c565b506040518061020001604052806101d08152602001620093956101d0913960139080519060200190620002709291906200260c565b506040518061022001604052806101ec81526020016200740c6101ec913960149080519060200190620002a59291906200260c565b506040518061022001604052806101f08152602001620088736101f0913960159080519060200190620002da9291906200260c565b506040518061022001604052806101ec8152602001620091a96101ec9139601690805190602001906200030f9291906200260c565b506040518061022001604052806101f08152602001620082b46101f0913960179080519060200190620003449291906200260c565b506040518061022001604052806101f48152602001620075f86101f4913960189080519060200190620003799291906200260c565b506040518061022001604052806101eb8152602001620086886101eb913960199080519060200190620003ae9291906200260c565b506040518061022001604052806101f0815260200162006eaa6101f09139601a9080519060200190620003e39291906200260c565b506040518061022001604052806101e48152602001620084a46101e49139601b9080519060200190620004189291906200260c565b506040518061022001604052806101ec8152602001620080c86101ec9139601c90805190602001906200044d9291906200260c565b506040518061022001604052806040518060400160405280600581526020017f626c61636b00000000000000000000000000000000000000000000000000000081525081526020016040518060400160405280600581526020017f776869746500000000000000000000000000000000000000000000000000000081525081526020016040518060400160405280600781526020017f233633383539360000000000000000000000000000000000000000000000000081525081526020016040518060400160405280600781526020017f233935353534660000000000000000000000000000000000000000000000000081525081526020016040518060400160405280600581526020017f626c61636b00000000000000000000000000000000000000000000000000000081525081526020016040518060400160405280600781526020017f233633383539360000000000000000000000000000000000000000000000000081525081526020016040518060400160405280600781526020017f233935353534660000000000000000000000000000000000000000000000000081525081526020016040518060400160405280600781526020017f233633383539360000000000000000000000000000000000000000000000000081525081526020016040518060400160405280600781526020017f233935353534660000000000000000000000000000000000000000000000000081525081526020016040518060400160405280600581526020017f626c61636b00000000000000000000000000000000000000000000000000000081525081526020016040518060400160405280600581526020017f776869746500000000000000000000000000000000000000000000000000000081525081526020016040518060400160405280600781526020017f233633383539360000000000000000000000000000000000000000000000000081525081526020016040518060400160405280600781526020017f233935353534660000000000000000000000000000000000000000000000000081525081526020016040518060400160405280600581526020017f626c61636b00000000000000000000000000000000000000000000000000000081525081526020016040518060400160405280600781526020017f233633383539360000000000000000000000000000000000000000000000000081525081526020016040518060400160405280600781526020017f233935353534660000000000000000000000000000000000000000000000000081525081526020016040518060400160405280600781526020017f2339353535346600000000000000000000000000000000000000000000000000815250815250601d906011620008559291906200269d565b50604051806102a001604052806040518060400160405280600781526020017f233743453633360000000000000000000000000000000000000000000000000081525081526020016040518060400160405280600781526020017f233836443446370000000000000000000000000000000000000000000000000081525081526020016040518060400160405280600781526020017f234131394646420000000000000000000000000000000000000000000000000081525081526020016040518060400160405280600781526020017f233832383238320000000000000000000000000000000000000000000000000081525081526020016040518060400160405280600781526020017f233943453439310000000000000000000000000000000000000000000000000081525081526020016040518060400160405280600781526020017f234543394646460000000000000000000000000000000000000000000000000081525081526020016040518060400160405280600781526020017f234542353735370000000000000000000000000000000000000000000000000081525081526020016040518060400160405280600781526020017f233836443446370000000000000000000000000000000000000000000000000081525081526020016040518060400160405280600781526020017f234131394646420000000000000000000000000000000000000000000000000081525081526020016040518060400160405280600781526020017f233943453439310000000000000000000000000000000000000000000000000081525081526020016040518060400160405280600781526020017f234543394646460000000000000000000000000000000000000000000000000081525081526020016040518060400160405280600881526020017f234646464646464400000000000000000000000000000000000000000000000081525081526020016040518060400160405280600781526020017f233743453633360000000000000000000000000000000000000000000000000081525081526020016040518060400160405280600781526020017f233836443446370000000000000000000000000000000000000000000000000081525081526020016040518060400160405280600781526020017f233832383238320000000000000000000000000000000000000000000000000081525081526020016040518060400160405280600781526020017f233832383238320000000000000000000000000000000000000000000000000081525081526020016040518060400160405280600781526020017f234131394646420000000000000000000000000000000000000000000000000081525081526020016040518060400160405280600781526020017f233943453439310000000000000000000000000000000000000000000000000081525081526020016040518060400160405280600781526020017f234543394646460000000000000000000000000000000000000000000000000081525081526020016040518060400160405280600781526020017f234542353735370000000000000000000000000000000000000000000000000081525081526020016040518060400160405280600781526020017f2345423537353700000000000000000000000000000000000000000000000000815250815250601e90601562000d4992919062002704565b50604051806101800160405280600b805462000d6590620029e4565b80601f016020809104026020016040519081016040528092919081815260200182805462000d9390620029e4565b801562000de45780601f1062000db85761010080835404028352916020019162000de4565b820191906000526020600020905b81548152906001019060200180831162000dc657829003601f168201915b50505050508152602001600c805462000dfd90620029e4565b80601f016020809104026020016040519081016040528092919081815260200182805462000e2b90620029e4565b801562000e7c5780601f1062000e505761010080835404028352916020019162000e7c565b820191906000526020600020905b81548152906001019060200180831162000e5e57829003601f168201915b505050505081526020016010805462000e9590620029e4565b80601f016020809104026020016040519081016040528092919081815260200182805462000ec390620029e4565b801562000f145780601f1062000ee85761010080835404028352916020019162000f14565b820191906000526020600020905b81548152906001019060200180831162000ef657829003601f168201915b50505050508152602001600d805462000f2d90620029e4565b80601f016020809104026020016040519081016040528092919081815260200182805462000f5b90620029e4565b801562000fac5780601f1062000f805761010080835404028352916020019162000fac565b820191906000526020600020905b81548152906001019060200180831162000f8e57829003601f168201915b50505050508152602001600f805462000fc590620029e4565b80601f016020809104026020016040519081016040528092919081815260200182805462000ff390620029e4565b8015620010445780601f10620010185761010080835404028352916020019162001044565b820191906000526020600020905b8154815290600101906020018083116200102657829003601f168201915b50505050508152602001600e80546200105d90620029e4565b80601f01602080910402602001604051908101604052809291908181526020018280546200108b90620029e4565b8015620010dc5780601f10620010b057610100808354040283529160200191620010dc565b820191906000526020600020905b815481529060010190602001808311620010be57829003601f168201915b50505050508152602001600b8054620010f590620029e4565b80601f01602080910402602001604051908101604052809291908181526020018280546200112390620029e4565b8015620011745780601f10620011485761010080835404028352916020019162001174565b820191906000526020600020905b8154815290600101906020018083116200115657829003601f168201915b50505050508152602001600c80546200118d90620029e4565b80601f0160208091040260200160405190810160405280929190818152602001828054620011bb90620029e4565b80156200120c5780601f10620011e0576101008083540402835291602001916200120c565b820191906000526020600020905b815481529060010190602001808311620011ee57829003601f168201915b50505050508152602001601080546200122590620029e4565b80601f01602080910402602001604051908101604052809291908181526020018280546200125390620029e4565b8015620012a45780601f106200127857610100808354040283529160200191620012a4565b820191906000526020600020905b8154815290600101906020018083116200128657829003601f168201915b50505050508152602001600d8054620012bd90620029e4565b80601f0160208091040260200160405190810160405280929190818152602001828054620012eb90620029e4565b80156200133c5780601f1062001310576101008083540402835291602001916200133c565b820191906000526020600020905b8154815290600101906020018083116200131e57829003601f168201915b50505050508152602001600f80546200135590620029e4565b80601f01602080910402602001604051908101604052809291908181526020018280546200138390620029e4565b8015620013d45780601f10620013a857610100808354040283529160200191620013d4565b820191906000526020600020905b815481529060010190602001808311620013b657829003601f168201915b50505050508152602001600e8054620013ed90620029e4565b80601f01602080910402602001604051908101604052809291908181526020018280546200141b90620029e4565b80156200146c5780601f1062001440576101008083540402835291602001916200146c565b820191906000526020600020905b8154815290600101906020018083116200144e57829003601f168201915b5050505050815250601f90600c620014869291906200276b565b5060405180610140016040528060138054620014a290620029e4565b80601f0160208091040260200160405190810160405280929190818152602001828054620014d090620029e4565b8015620015215780601f10620014f55761010080835404028352916020019162001521565b820191906000526020600020905b8154815290600101906020018083116200150357829003601f168201915b50505050508152602001601480546200153a90620029e4565b80601f01602080910402602001604051908101604052809291908181526020018280546200156890620029e4565b8015620015b95780601f106200158d57610100808354040283529160200191620015b9565b820191906000526020600020905b8154815290600101906020018083116200159b57829003601f168201915b5050505050815260200160158054620015d290620029e4565b80601f01602080910402602001604051908101604052809291908181526020018280546200160090620029e4565b8015620016515780601f10620016255761010080835404028352916020019162001651565b820191906000526020600020905b8154815290600101906020018083116200163357829003601f168201915b50505050508152602001601680546200166a90620029e4565b80601f01602080910402602001604051908101604052809291908181526020018280546200169890620029e4565b8015620016e95780601f10620016bd57610100808354040283529160200191620016e9565b820191906000526020600020905b815481529060010190602001808311620016cb57829003601f168201915b50505050508152602001601780546200170290620029e4565b80601f01602080910402602001604051908101604052809291908181526020018280546200173090620029e4565b8015620017815780601f10620017555761010080835404028352916020019162001781565b820191906000526020600020905b8154815290600101906020018083116200176357829003601f168201915b50505050508152602001601880546200179a90620029e4565b80601f0160208091040260200160405190810160405280929190818152602001828054620017c890620029e4565b8015620018195780601f10620017ed5761010080835404028352916020019162001819565b820191906000526020600020905b815481529060010190602001808311620017fb57829003601f168201915b50505050508152602001601980546200183290620029e4565b80601f01602080910402602001604051908101604052809291908181526020018280546200186090620029e4565b8015620018b15780601f106200188557610100808354040283529160200191620018b1565b820191906000526020600020905b8154815290600101906020018083116200189357829003601f168201915b50505050508152602001601a8054620018ca90620029e4565b80601f0160208091040260200160405190810160405280929190818152602001828054620018f890620029e4565b8015620019495780601f106200191d5761010080835404028352916020019162001949565b820191906000526020600020905b8154815290600101906020018083116200192b57829003601f168201915b50505050508152602001601b80546200196290620029e4565b80601f01602080910402602001604051908101604052809291908181526020018280546200199090620029e4565b8015620019e15780601f10620019b557610100808354040283529160200191620019e1565b820191906000526020600020905b815481529060010190602001808311620019c357829003601f168201915b50505050508152602001601c8054620019fa90620029e4565b80601f016020809104026020016040519081016040528092919081815260200182805462001a2890620029e4565b801562001a795780601f1062001a4d5761010080835404028352916020019162001a79565b820191906000526020600020905b81548152906001019060200180831162001a5b57829003601f168201915b5050505050815250602090600a62001a93929190620027d2565b506040518061028001604052806040518060400160405280600581526020017f4a616d657300000000000000000000000000000000000000000000000000000081525081526020016040518060400160405280600381526020017f426f62000000000000000000000000000000000000000000000000000000000081525081526020016040518060400160405280600581526020017f4672616e6b00000000000000000000000000000000000000000000000000000081525081526020016040518060400160405280600381526020017f4a6f65000000000000000000000000000000000000000000000000000000000081525081526020016040518060400160405280600481526020017f416c65780000000000000000000000000000000000000000000000000000000081525081526020016040518060400160405280600a81526020017f5820414520412d5869690000000000000000000000000000000000000000000081525081526020016040518060400160405280600481526020017f42696c6c0000000000000000000000000000000000000000000000000000000081525081526020016040518060400160405280600581526020017f506574657200000000000000000000000000000000000000000000000000000081525081526020016040518060400160405280600781526020017f4a6566666572790000000000000000000000000000000000000000000000000081525081526020016040518060400160405280600781526020017f57696c6c69616d0000000000000000000000000000000000000000000000000081525081526020016040518060400160405280600481526020017f5061756c0000000000000000000000000000000000000000000000000000000081525081526020016040518060400160405280600581526020017f4b6576696e00000000000000000000000000000000000000000000000000000081525081526020016040518060400160405280600681526020017f526f6e616c64000000000000000000000000000000000000000000000000000081525081526020016040518060400160405280600481526020017f4d61726b0000000000000000000000000000000000000000000000000000000081525081526020016040518060400160405280600681526020017f44616e69656c000000000000000000000000000000000000000000000000000081525081526020016040518060400160405280600681526020017f47656f726765000000000000000000000000000000000000000000000000000081525081526020016040518060400160405280600681526020017f54686f6d6173000000000000000000000000000000000000000000000000000081525081526020016040518060400160405280600581526020017f5765657a7900000000000000000000000000000000000000000000000000000081525081526020016040518060400160405280600581526020017f4472616b6500000000000000000000000000000000000000000000000000000081525081526020016040518060400160405280600581526020017f4141726f6e000000000000000000000000000000000000000000000000000000815250815250602190601462001f4c92919062002839565b50604051806102a001604052806040518060400160405280600681526020017f58616e646572000000000000000000000000000000000000000000000000000081525081526020016040518060400160405280600581526020017f5a6164656e00000000000000000000000000000000000000000000000000000081525081526020016040518060400160405280600481526020017f437275780000000000000000000000000000000000000000000000000000000081525081526020016040518060400160405280600581526020017f4e6f76616b00000000000000000000000000000000000000000000000000000081525081526020016040518060400160405280600381526020017f4f7861000000000000000000000000000000000000000000000000000000000081525081526020016040518060400160405280600681526020017f5269636b6f6e000000000000000000000000000000000000000000000000000081525081526020016040518060400160405280600681526020017f546f72696f6e000000000000000000000000000000000000000000000000000081525081526020016040518060400160405280600381526020017f58616e000000000000000000000000000000000000000000000000000000000081525081526020016040518060400160405280600481526020017f452e542e0000000000000000000000000000000000000000000000000000000081525081526020016040518060400160405280600581526020017f5a61646f6300000000000000000000000000000000000000000000000000000081525081526020016040518060400160405280600481526020017f456c6f6e0000000000000000000000000000000000000000000000000000000081525081526020016040518060400160405280600681526020017f42657a7a6f73000000000000000000000000000000000000000000000000000081525081526020016040518060400160405280600481526020017f5a616b690000000000000000000000000000000000000000000000000000000081525081526020016040518060400160405280600581526020017f5a6179697400000000000000000000000000000000000000000000000000000081525081526020016040518060400160405280600581526020017f417374726f00000000000000000000000000000000000000000000000000000081525081526020016040518060400160405280600581526020017f436f736d6f00000000000000000000000000000000000000000000000000000081525081526020016040518060400160405280600481526020017f4c696e6b0000000000000000000000000000000000000000000000000000000081525081526020016040518060400160405280600581526020017f4f72696f6e00000000000000000000000000000000000000000000000000000081525081526020016040518060400160405280600581526020017f4661727a6100000000000000000000000000000000000000000000000000000081525081526020016040518060400160405280600481526020017f5061766f0000000000000000000000000000000000000000000000000000000081525081526020016040518060400160405280600881526020017f5269636b726f6c6c00000000000000000000000000000000000000000000000081525081525060229060156200244092919062002704565b503480156200244e57600080fd5b506040518060400160405280601181526020017f4261636b20546f205468652045746865720000000000000000000000000000008152506040518060400160405280600681526020017f53514155524500000000000000000000000000000000000000000000000000008152508160009080519060200190620024d39291906200260c565b508060019080519060200190620024ec9291906200260c565b5050506200253a6040518060400160405280601781526020017f496e7369646520446f70654e465420636f6e74726163740000000000000000008152506200254060201b620017871760201c565b62002a5a565b620025e0816040516024016200255791906200296e565b6040516020818303038152906040527f41304fac000000000000000000000000000000000000000000000000000000007bffffffffffffffffffffffffffffffffffffffffffffffffffffffff19166020820180517bffffffffffffffffffffffffffffffffffffffffffffffffffffffff8381831617835250505050620025e360201b60201c565b50565b60008151905060006a636f6e736f6c652e6c6f679050602083016000808483855afa5050505050565b8280546200261a90620029e4565b90600052602060002090601f0160209004810192826200263e57600085556200268a565b82601f106200265957805160ff19168380011785556200268a565b828001600101855582156200268a579182015b82811115620026895782518255916020019190600101906200266c565b5b509050620026999190620028a0565b5090565b828054828255906000526020600020908101928215620026f1579160200282015b82811115620026f0578251829080519060200190620026df9291906200260c565b5091602001919060010190620026be565b5b509050620027009190620028bf565b5090565b82805482825590600052602060002090810192821562002758579160200282015b8281111562002757578251829080519060200190620027469291906200260c565b509160200191906001019062002725565b5b509050620027679190620028bf565b5090565b828054828255906000526020600020908101928215620027bf579160200282015b82811115620027be578251829080519060200190620027ad9291906200260c565b50916020019190600101906200278c565b5b509050620027ce9190620028bf565b5090565b82805482825590600052602060002090810192821562002826579160200282015b8281111562002825578251829080519060200190620028149291906200260c565b5091602001919060010190620027f3565b5b509050620028359190620028bf565b5090565b8280548282559060005260206000209081019282156200288d579160200282015b828111156200288c5782518290805190602001906200287b9291906200260c565b50916020019190600101906200285a565b5b5090506200289c9190620028bf565b5090565b5b80821115620028bb576000816000905550600101620028a1565b5090565b5b80821115620028e35760008181620028d99190620028e7565b50600101620028c0565b5090565b508054620028f590620029e4565b6000825580601f106200290957506200292a565b601f016020900490600052602060002090810190620029299190620028a0565b5b50565b60006200293a8262002992565b6200294681856200299d565b935062002958818560208601620029ae565b620029638162002a49565b840191505092915050565b600060208201905081810360008301526200298a81846200292d565b905092915050565b600081519050919050565b600082825260208201905092915050565b60005b83811015620029ce578082015181840152602081019050620029b1565b83811115620029de576000848401525b50505050565b60006002820490506001821680620029fd57607f821691505b6020821081141562002a145762002a1362002a1a565b5b50919050565b7f4e487b7100000000000000000000000000000000000000000000000000000000600052602260045260246000fd5b6000601f19601f8301169050919050565b6140f58062002a6a6000396000f3fe608060405234801561001057600080fd5b50600436106101375760003560e01c80636352211e116100b857806395d89b411161007c57806395d89b41146103865780639b0dd496146103a4578063a22cb465146103d4578063b88d4fde146103f0578063c87b56dd1461040c578063e985e9c51461043c57610137565b80636352211e146102ce5780636ec0dfe5146102fe57806370a082311461031c5780638c8bc1451461034c5780639149881a1461035657610137565b806317c3f865116100ff57806317c3f8651461020657806323b872dd1461023657806342842e0e14610252578063514dc8c61461026e5780635a6d7f671461029e57610137565b806301b590d61461013c57806301ffc9a71461016c57806306fdde031461019c578063081812fc146101ba578063095ea7b3146101ea575b600080fd5b61015660048036038101906101519190612a6c565b61046c565b604051610163919061328a565b60405180910390f35b61018660048036038101906101819190612a1a565b61058a565b604051610193919061326f565b60405180910390f35b6101a461066c565b6040516101b1919061328a565b60405180910390f35b6101d460048036038101906101cf9190612a6c565b6106fe565b6040516101e191906131df565b60405180910390f35b61020460048036038101906101ff91906129de565b610783565b005b610220600480360381019061021b9190612a6c565b61089b565b60405161022d919061328a565b60405180910390f35b610250600480360381019061024b91906128d8565b610a0d565b005b61026c600480360381019061026791906128d8565b610a6d565b005b61028860048036038101906102839190612a6c565b610a8d565b604051610295919061328a565b60405180910390f35b6102b860048036038101906102b39190612a6c565b610bab565b6040516102c5919061328a565b60405180910390f35b6102e860048036038101906102e39190612a6c565b610ccc565b6040516102f591906131df565b60405180910390f35b610306610d7e565b604051610313919061350a565b60405180910390f35b61033660048036038101906103319190612873565b610d94565b604051610343919061350a565b60405180910390f35b610354610e4c565b005b610370600480360381019061036b9190612a6c565b6110f0565b60405161037d919061328a565b60405180910390f35b61038e61120e565b60405161039b919061328a565b60405180910390f35b6103be60048036038101906103b99190612a6c565b6112a0565b6040516103cb919061328a565b60405180910390f35b6103ee60048036038101906103e991906129a2565b6113be565b005b61040a60048036038101906104059190612927565b61153f565b005b61042660048036038101906104219190612a6c565b6115a1565b604051610433919061328a565b60405180910390f35b6104566004803603810190610451919061289c565b6116f3565b604051610463919061326f565b60405180910390f35b606060006104a061047c84611820565b60405160200161048c91906131bd565b6040516020818303038152906040526119cd565b9050602180549050816104b3919061384a565b9050602181815481106104ef577f4e487b7100000000000000000000000000000000000000000000000000000000600052603260045260246000fd5b9060005260206000200180546105049061379e565b80601f01602080910402602001604051908101604052809291908181526020018280546105309061379e565b801561057d5780601f106105525761010080835404028352916020019161057d565b820191906000526020600020905b81548152906001019060200180831161056057829003601f168201915b5050505050915050919050565b60007f80ac58cd000000000000000000000000000000000000000000000000000000007bffffffffffffffffffffffffffffffffffffffffffffffffffffffff1916827bffffffffffffffffffffffffffffffffffffffffffffffffffffffff1916148061065557507f5b5e139f000000000000000000000000000000000000000000000000000000007bffffffffffffffffffffffffffffffffffffffffffffffffffffffff1916827bffffffffffffffffffffffffffffffffffffffffffffffffffffffff1916145b80610665575061066482611a00565b5b9050919050565b60606000805461067b9061379e565b80601f01602080910402602001604051908101604052809291908181526020018280546106a79061379e565b80156106f45780601f106106c9576101008083540402835291602001916106f4565b820191906000526020600020905b8154815290600101906020018083116106d757829003601f168201915b5050505050905090565b600061070982611a6a565b610748576040517f08c379a000000000000000000000000000000000000000000000000000000000815260040161073f9061346a565b60405180910390fd5b6004600083815260200190815260200160002060009054906101000a900473ffffffffffffffffffffffffffffffffffffffff169050919050565b600061078e82610ccc565b90508073ffffffffffffffffffffffffffffffffffffffff168373ffffffffffffffffffffffffffffffffffffffff1614156107ff576040517f08c379a00000000000000000000000000000000000000000000000000000000081526004016107f6906134ca565b60405180910390fd5b8073ffffffffffffffffffffffffffffffffffffffff1661081e611ad6565b73ffffffffffffffffffffffffffffffffffffffff16148061084d575061084c81610847611ad6565b6116f3565b5b61088c576040517f08c379a0000000000000000000000000000000000000000000000000000000008152600401610883906133aa565b60405180910390fd5b6108968383611ade565b505050565b6060600a82111561093857601280546108b39061379e565b80601f01602080910402602001604051908101604052809291908181526020018280546108df9061379e565b801561092c5780601f106109015761010080835404028352916020019161092c565b820191906000526020600020905b81548152906001019060200180831161090f57829003601f168201915b50505050509050610a08565b60208281548110610972577f4e487b7100000000000000000000000000000000000000000000000000000000600052603260045260246000fd5b9060005260206000200180546109879061379e565b80601f01602080910402602001604051908101604052809291908181526020018280546109b39061379e565b8015610a005780601f106109d557610100808354040283529160200191610a00565b820191906000526020600020905b8154815290600101906020018083116109e357829003601f168201915b505050505090505b919050565b610a1e610a18611ad6565b82611b97565b610a5d576040517f08c379a0000000000000000000000000000000000000000000000000000000008152600401610a54906134ea565b60405180910390fd5b610a68838383611c75565b505050565b610a888383836040518060200160405280600081525061153f565b505050565b60606000610ac1610a9d84611820565b604051602001610aad919061319b565b6040516020818303038152906040526119cd565b9050601d8054905081610ad4919061384a565b9050601d8181548110610b10577f4e487b7100000000000000000000000000000000000000000000000000000000600052603260045260246000fd5b906000526020600020018054610b259061379e565b80601f0160208091040260200160405190810160405280929190818152602001828054610b519061379e565b8015610b9e5780601f10610b7357610100808354040283529160200191610b9e565b820191906000526020600020905b815481529060010190602001808311610b8157829003601f168201915b5050505050915050919050565b60606000610be26010610bbd85611820565b604051602001610bce92919061309d565b6040516020818303038152906040526119cd565b9050601f8054905081610bf5919061384a565b9050601f8181548110610c31577f4e487b7100000000000000000000000000000000000000000000000000000000600052603260045260246000fd5b906000526020600020018054610c469061379e565b80601f0160208091040260200160405190810160405280929190818152602001828054610c729061379e565b8015610cbf5780601f10610c9457610100808354040283529160200191610cbf565b820191906000526020600020905b815481529060010190602001808311610ca257829003601f168201915b5050505050915050919050565b6000806002600084815260200190815260200160002060009054906101000a900473ffffffffffffffffffffffffffffffffffffffff169050600073ffffffffffffffffffffffffffffffffffffffff168173ffffffffffffffffffffffffffffffffffffffff161415610d75576040517f08c379a0000000000000000000000000000000000000000000000000000000008152600401610d6c906133ea565b60405180910390fd5b80915050919050565b600080610d8b6007611ed1565b90508091505090565b60008073ffffffffffffffffffffffffffffffffffffffff168273ffffffffffffffffffffffffffffffffffffffff161415610e05576040517f08c379a0000000000000000000000000000000000000000000000000000000008152600401610dfc906133ca565b60405180910390fd5b600360008373ffffffffffffffffffffffffffffffffffffffff1673ffffffffffffffffffffffffffffffffffffffff168152602001908152602001600020549050919050565b6032610e586007611ed1565b141580610e6e57506032610e6c6007611ed1565b115b610ead576040517f08c379a0000000000000000000000000000000000000000000000000000000008152600401610ea49061330a565b60405180910390fd5b6000610eb96007611ed1565b90506000610ec682610a8d565b90506000610ed3836112a0565b90506000610ee084610bab565b90506000610eed8561089b565b90506000610efa8661046c565b90506000610f07876110f0565b905060008282604051602001610f1e929190612ff3565b6040516020818303038152906040529050600087600988600a8960118a604051602001610f519796959493929190613022565b60405160208183030381529060405290506000600882604051602001610f789291906130c1565b60405160208183030381529060405290506000610fbd84610f9884611edf565b604051602001610fa9929190613134565b604051602081830303815290604052611edf565b9050600081604051602001610fd29190613179565b60405160208183030381529060405290506110216040518060400160405280601581526020017f0a2d2d2d2d2d2d2d2d2d2d2d2d2d2d2d2d2d2d2d2d0000000000000000000000815250611787565b61102a83611787565b6110686040518060400160405280601581526020017f2d2d2d2d2d2d2d2d2d2d2d2d2d2d2d2d2d2d2d2d0a0000000000000000000000815250611787565b611072338d61209d565b61107c8c826120bb565b61109f60405180606001604052806025815260200161405b602591398d3361212f565b6110a960076121ce565b7f076a4d35285ec4f3f58ec56e9d404101897f7635e612dcb93c624b697830f191338d6040516110da929190613246565b60405180910390a1505050505050505050505050565b6060600061112461110084611820565b6040516020016111109190613112565b6040516020818303038152906040526119cd565b905060228054905081611137919061384a565b905060228181548110611173577f4e487b7100000000000000000000000000000000000000000000000000000000600052603260045260246000fd5b9060005260206000200180546111889061379e565b80601f01602080910402602001604051908101604052809291908181526020018280546111b49061379e565b80156112015780601f106111d657610100808354040283529160200191611201565b820191906000526020600020905b8154815290600101906020018083116111e457829003601f168201915b5050505050915050919050565b60606001805461121d9061379e565b80601f01602080910402602001604051908101604052809291908181526020018280546112499061379e565b80156112965780601f1061126b57610100808354040283529160200191611296565b820191906000526020600020905b81548152906001019060200180831161127957829003601f168201915b5050505050905090565b606060006112d46112b084611820565b6040516020016112c091906130f0565b6040516020818303038152906040526119cd565b9050601e80549050816112e7919061384a565b9050601e8181548110611323577f4e487b7100000000000000000000000000000000000000000000000000000000600052603260045260246000fd5b9060005260206000200180546113389061379e565b80601f01602080910402602001604051908101604052809291908181526020018280546113649061379e565b80156113b15780601f10611386576101008083540402835291602001916113b1565b820191906000526020600020905b81548152906001019060200180831161139457829003601f168201915b5050505050915050919050565b6113c6611ad6565b73ffffffffffffffffffffffffffffffffffffffff168273ffffffffffffffffffffffffffffffffffffffff161415611434576040517f08c379a000000000000000000000000000000000000000000000000000000000815260040161142b9061336a565b60405180910390fd5b8060056000611441611ad6565b73ffffffffffffffffffffffffffffffffffffffff1673ffffffffffffffffffffffffffffffffffffffff16815260200190815260200160002060008473ffffffffffffffffffffffffffffffffffffffff1673ffffffffffffffffffffffffffffffffffffffff16815260200190815260200160002060006101000a81548160ff0219169083151502179055508173ffffffffffffffffffffffffffffffffffffffff166114ee611ad6565b73ffffffffffffffffffffffffffffffffffffffff167f17307eab39ab6107e8899845ad3d59bd9653f200f220920489ca2b5937696c3183604051611533919061326f565b60405180910390a35050565b61155061154a611ad6565b83611b97565b61158f576040517f08c379a0000000000000000000000000000000000000000000000000000000008152600401611586906134ea565b60405180910390fd5b61159b848484846121e4565b50505050565b60606115ac82611a6a565b6115eb576040517f08c379a00000000000000000000000000000000000000000000000000000000081526004016115e29061344a565b60405180910390fd5b600060066000848152602001908152602001600020805461160b9061379e565b80601f01602080910402602001604051908101604052809291908181526020018280546116379061379e565b80156116845780601f1061165957610100808354040283529160200191611684565b820191906000526020600020905b81548152906001019060200180831161166757829003601f168201915b505050505090506000611695612240565b90506000815114156116ab5781925050506116ee565b6000825111156116e05780826040516020016116c8929190612fcf565b604051602081830303815290604052925050506116ee565b6116e984612257565b925050505b919050565b6000600560008473ffffffffffffffffffffffffffffffffffffffff1673ffffffffffffffffffffffffffffffffffffffff16815260200190815260200160002060008373ffffffffffffffffffffffffffffffffffffffff1673ffffffffffffffffffffffffffffffffffffffff16815260200190815260200160002060009054906101000a900460ff16905092915050565b61181d8160405160240161179b919061328a565b6040516020818303038152906040527f41304fac000000000000000000000000000000000000000000000000000000007bffffffffffffffffffffffffffffffffffffffffffffffffffffffff19166020820180517bffffffffffffffffffffffffffffffffffffffffffffffffffffffff83818316178352505050506122fe565b50565b60606000821415611868576040518060400160405280600181526020017f300000000000000000000000000000000000000000000000000000000000000081525090506119c8565b600082905060005b6000821461189a57808061188390613801565b915050600a826118939190613629565b9150611870565b60008167ffffffffffffffff8111156118dc577f4e487b7100000000000000000000000000000000000000000000000000000000600052604160045260246000fd5b6040519080825280601f01601f19166020018201604052801561190e5781602001600182028036833780820191505090505b5090505b600085146119c15760018261192791906136b4565b9150600a85611936919061384a565b603061194291906135d3565b60f81b81838151811061197e577f4e487b7100000000000000000000000000000000000000000000000000000000600052603260045260246000fd5b60200101907effffffffffffffffffffffffffffffffffffffffffffffffffffffffffffff1916908160001a905350600a856119ba9190613629565b9450611912565b8093505050505b919050565b6000816040516020016119e09190612fb8565b6040516020818303038152906040528051906020012060001c9050919050565b60007f01ffc9a7000000000000000000000000000000000000000000000000000000007bffffffffffffffffffffffffffffffffffffffffffffffffffffffff1916827bffffffffffffffffffffffffffffffffffffffffffffffffffffffff1916149050919050565b60008073ffffffffffffffffffffffffffffffffffffffff166002600084815260200190815260200160002060009054906101000a900473ffffffffffffffffffffffffffffffffffffffff1673ffffffffffffffffffffffffffffffffffffffff1614159050919050565b600033905090565b816004600083815260200190815260200160002060006101000a81548173ffffffffffffffffffffffffffffffffffffffff021916908373ffffffffffffffffffffffffffffffffffffffff160217905550808273ffffffffffffffffffffffffffffffffffffffff16611b5183610ccc565b73ffffffffffffffffffffffffffffffffffffffff167f8c5be1e5ebec7d5bd14f71427d1e84f3dd0314c0f7b2291e5b200ac8c7c3b92560405160405180910390a45050565b6000611ba282611a6a565b611be1576040517f08c379a0000000000000000000000000000000000000000000000000000000008152600401611bd89061338a565b60405180910390fd5b6000611bec83610ccc565b90508073ffffffffffffffffffffffffffffffffffffffff168473ffffffffffffffffffffffffffffffffffffffff161480611c5b57508373ffffffffffffffffffffffffffffffffffffffff16611c43846106fe565b73ffffffffffffffffffffffffffffffffffffffff16145b80611c6c5750611c6b81856116f3565b5b91505092915050565b8273ffffffffffffffffffffffffffffffffffffffff16611c9582610ccc565b73ffffffffffffffffffffffffffffffffffffffff1614611ceb576040517f08c379a0000000000000000000000000000000000000000000000000000000008152600401611ce29061348a565b60405180910390fd5b600073ffffffffffffffffffffffffffffffffffffffff168273ffffffffffffffffffffffffffffffffffffffff161415611d5b576040517f08c379a0000000000000000000000000000000000000000000000000000000008152600401611d529061334a565b60405180910390fd5b611d66838383612327565b611d71600082611ade565b6001600360008573ffffffffffffffffffffffffffffffffffffffff1673ffffffffffffffffffffffffffffffffffffffff1681526020019081526020016000206000828254611dc191906136b4565b925050819055506001600360008473ffffffffffffffffffffffffffffffffffffffff1673ffffffffffffffffffffffffffffffffffffffff1681526020019081526020016000206000828254611e1891906135d3565b92505081905550816002600083815260200190815260200160002060006101000a81548173ffffffffffffffffffffffffffffffffffffffff021916908373ffffffffffffffffffffffffffffffffffffffff160217905550808273ffffffffffffffffffffffffffffffffffffffff168473ffffffffffffffffffffffffffffffffffffffff167fddf252ad1be2c89b69c2b068fc378daa952ba7f163c4a11628f55a4df523b3ef60405160405180910390a4505050565b600081600001549050919050565b60606000825190506000811415611f085760405180602001604052806000815250915050612098565b60006003600283611f1991906135d3565b611f239190613629565b6004611f2f919061365a565b90506000602082611f4091906135d3565b67ffffffffffffffff811115611f7f577f4e487b7100000000000000000000000000000000000000000000000000000000600052604160045260246000fd5b6040519080825280601f01601f191660200182016040528015611fb15781602001600182028036833780820191505090505b5090506000604051806060016040528060408152602001614080604091399050600181016020830160005b868110156120555760038101905062ffffff818a015116603f8160121c168401518060081b905060ff603f83600c1c1686015116810190508060081b905060ff603f8360061c1686015116810190508060081b905060ff603f831686015116810190508060e01b90508084526004840193505050611fdc565b50600386066001811461206f576002811461207f5761208a565b613d3d60f01b600283035261208a565b603d60f81b60018303525b508484525050819450505050505b919050565b6120b782826040518060200160405280600081525061232c565b5050565b6120c482611a6a565b612103576040517f08c379a00000000000000000000000000000000000000000000000000000000081526004016120fa9061340a565b60405180910390fd5b8060066000848152602001908152602001600020908051906020019061212a9291906126ff565b505050565b6121c9838383604051602401612147939291906132ac565b6040516020818303038152906040527fe3849f79000000000000000000000000000000000000000000000000000000007bffffffffffffffffffffffffffffffffffffffffffffffffffffffff19166020820180517bffffffffffffffffffffffffffffffffffffffffffffffffffffffff83818316178352505050506122fe565b505050565b6001816000016000828254019250508190555050565b6121ef848484611c75565b6121fb84848484612387565b61223a576040517f08c379a0000000000000000000000000000000000000000000000000000000008152600401612231906132ea565b60405180910390fd5b50505050565b606060405180602001604052806000815250905090565b606061226282611a6a565b6122a1576040517f08c379a0000000000000000000000000000000000000000000000000000000008152600401612298906134aa565b60405180910390fd5b60006122ab612240565b905060008151116122cb57604051806020016040528060008152506122f6565b806122d584611820565b6040516020016122e6929190612fcf565b6040516020818303038152906040525b915050919050565b60008151905060006a636f6e736f6c652e6c6f679050602083016000808483855afa5050505050565b505050565b612336838361251e565b6123436000848484612387565b612382576040517f08c379a0000000000000000000000000000000000000000000000000000000008152600401612379906132ea565b60405180910390fd5b505050565b60006123a88473ffffffffffffffffffffffffffffffffffffffff166126ec565b15612511578373ffffffffffffffffffffffffffffffffffffffff1663150b7a026123d1611ad6565b8786866040518563ffffffff1660e01b81526004016123f394939291906131fa565b602060405180830381600087803b15801561240d57600080fd5b505af192505050801561243e57506040513d601f19601f8201168201806040525081019061243b9190612a43565b60015b6124c1573d806000811461246e576040519150601f19603f3d011682016040523d82523d6000602084013e612473565b606091505b506000815114156124b9576040517f08c379a00000000000000000000000000000000000000000000000000000000081526004016124b0906132ea565b60405180910390fd5b805181602001fd5b63150b7a0260e01b7bffffffffffffffffffffffffffffffffffffffffffffffffffffffff1916817bffffffffffffffffffffffffffffffffffffffffffffffffffffffff191614915050612516565b600190505b949350505050565b600073ffffffffffffffffffffffffffffffffffffffff168273ffffffffffffffffffffffffffffffffffffffff16141561258e576040517f08c379a00000000000000000000000000000000000000000000000000000000081526004016125859061342a565b60405180910390fd5b61259781611a6a565b156125d7576040517f08c379a00000000000000000000000000000000000000000000000000000000081526004016125ce9061332a565b60405180910390fd5b6125e360008383612327565b6001600360008473ffffffffffffffffffffffffffffffffffffffff1673ffffffffffffffffffffffffffffffffffffffff168152602001908152602001600020600082825461263391906135d3565b92505081905550816002600083815260200190815260200160002060006101000a81548173ffffffffffffffffffffffffffffffffffffffff021916908373ffffffffffffffffffffffffffffffffffffffff160217905550808273ffffffffffffffffffffffffffffffffffffffff16600073ffffffffffffffffffffffffffffffffffffffff167fddf252ad1be2c89b69c2b068fc378daa952ba7f163c4a11628f55a4df523b3ef60405160405180910390a45050565b600080823b905060008111915050919050565b82805461270b9061379e565b90600052602060002090601f01602090048101928261272d5760008555612774565b82601f1061274657805160ff1916838001178555612774565b82800160010185558215612774579182015b82811115612773578251825591602001919060010190612758565b5b5090506127819190612785565b5090565b5b8082111561279e576000816000905550600101612786565b5090565b60006127b56127b08461354a565b613525565b9050828152602081018484840111156127cd57600080fd5b6127d884828561375c565b509392505050565b6000813590506127ef81613ffe565b92915050565b60008135905061280481614015565b92915050565b6000813590506128198161402c565b92915050565b60008151905061282e8161402c565b92915050565b600082601f83011261284557600080fd5b81356128558482602086016127a2565b91505092915050565b60008135905061286d81614043565b92915050565b60006020828403121561288557600080fd5b6000612893848285016127e0565b91505092915050565b600080604083850312156128af57600080fd5b60006128bd858286016127e0565b92505060206128ce858286016127e0565b9150509250929050565b6000806000606084860312156128ed57600080fd5b60006128fb868287016127e0565b935050602061290c868287016127e0565b925050604061291d8682870161285e565b9150509250925092565b6000806000806080858703121561293d57600080fd5b600061294b878288016127e0565b945050602061295c878288016127e0565b935050604061296d8782880161285e565b925050606085013567ffffffffffffffff81111561298a57600080fd5b61299687828801612834565b91505092959194509250565b600080604083850312156129b557600080fd5b60006129c3858286016127e0565b92505060206129d4858286016127f5565b9150509250929050565b600080604083850312156129f157600080fd5b60006129ff858286016127e0565b9250506020612a108582860161285e565b9150509250929050565b600060208284031215612a2c57600080fd5b6000612a3a8482850161280a565b91505092915050565b600060208284031215612a5557600080fd5b6000612a638482850161281f565b91505092915050565b600060208284031215612a7e57600080fd5b6000612a8c8482850161285e565b91505092915050565b612a9e816136e8565b82525050565b612aad816136fa565b82525050565b6000612abe82613590565b612ac881856135a6565b9350612ad881856020860161376b565b612ae181613937565b840191505092915050565b6000612af78261359b565b612b0181856135b7565b9350612b1181856020860161376b565b612b1a81613937565b840191505092915050565b6000612b308261359b565b612b3a81856135c8565b9350612b4a81856020860161376b565b80840191505092915050565b60008154612b638161379e565b612b6d81866135c8565b94506001821660008114612b885760018114612b9957612bcc565b60ff19831686528186019350612bcc565b612ba28561357b565b60005b83811015612bc457815481890152600182019150602081019050612ba5565b838801955050505b50505092915050565b6000612be2600d836135c8565b9150612bed82613948565b600d82019050919050565b6000612c056032836135b7565b9150612c1082613971565b604082019050919050565b6000612c286016836135b7565b9150612c33826139c0565b602082019050919050565b6000612c4b601c836135b7565b9150612c56826139e9565b602082019050919050565b6000612c6e604b836135c8565b9150612c7982613a12565b604b82019050919050565b6000612c916024836135b7565b9150612c9c82613a87565b604082019050919050565b6000612cb46019836135b7565b9150612cbf82613ad6565b602082019050919050565b6000612cd7602c836135b7565b9150612ce282613aff565b604082019050919050565b6000612cfa6007836135c8565b9150612d0582613b4e565b600782019050919050565b6000612d1d6001836135c8565b9150612d2882613b77565b600182019050919050565b6000612d406003836135c8565b9150612d4b82613ba0565b600382019050919050565b6000612d636006836135c8565b9150612d6e82613bc9565b600682019050919050565b6000612d866038836135b7565b9150612d9182613bf2565b604082019050919050565b6000612da9602a836135b7565b9150612db482613c41565b604082019050919050565b6000612dcc6029836135b7565b9150612dd782613c90565b604082019050919050565b6000612def602e836135b7565b9150612dfa82613cdf565b604082019050919050565b6000612e126002836135c8565b9150612e1d82613d2e565b600282019050919050565b6000612e356020836135b7565b9150612e4082613d57565b602082019050919050565b6000612e586031836135b7565b9150612e6382613d80565b604082019050919050565b6000612e7b602c836135b7565b9150612e8682613dcf565b604082019050919050565b6000612e9e6029836135b7565b9150612ea982613e1e565b604082019050919050565b6000612ec1602f836135b7565b9150612ecc82613e6d565b604082019050919050565b6000612ee4600a836135c8565b9150612eef82613ebc565b600a82019050919050565b6000612f076021836135b7565b9150612f1282613ee5565b604082019050919050565b6000612f2a601d836135c8565b9150612f3582613f34565b601d82019050919050565b6000612f4d6031836135b7565b9150612f5882613f5d565b604082019050919050565b6000612f706005836135c8565b9150612f7b82613fac565b600582019050919050565b6000612f936005836135c8565b9150612f9e82613fd5565b600582019050919050565b612fb281613752565b82525050565b6000612fc48284612b25565b915081905092915050565b6000612fdb8285612b25565b9150612fe78284612b25565b91508190509392505050565b6000612fff8285612b25565b915061300a82612d10565b91506130168284612b25565b91508190509392505050565b600061302e828a612b25565b915061303982612d33565b91506130458289612b56565b91506130518288612b25565b915061305c82612d33565b91506130688287612b56565b91506130748286612b25565b91506130808285612b56565b915061308c8284612b25565b915081905098975050505050505050565b60006130a98285612b56565b91506130b58284612b25565b91508190509392505050565b60006130cd8285612b56565b91506130d98284612b25565b91506130e482612bd5565b91508190509392505050565b60006130fb82612ced565b91506131078284612b25565b915081905092915050565b600061311d82612d56565b91506131298284612b25565b915081905092915050565b600061313f82612ed7565b915061314b8285612b25565b915061315682612c61565b91506131628284612b25565b915061316d82612e05565b91508190509392505050565b600061318482612f1d565b91506131908284612b25565b915081905092915050565b60006131a682612f63565b91506131b28284612b25565b915081905092915050565b60006131c882612f86565b91506131d48284612b25565b915081905092915050565b60006020820190506131f46000830184612a95565b92915050565b600060808201905061320f6000830187612a95565b61321c6020830186612a95565b6132296040830185612fa9565b818103606083015261323b8184612ab3565b905095945050505050565b600060408201905061325b6000830185612a95565b6132686020830184612fa9565b9392505050565b60006020820190506132846000830184612aa4565b92915050565b600060208201905081810360008301526132a48184612aec565b905092915050565b600060608201905081810360008301526132c68186612aec565b90506132d56020830185612fa9565b6132e26040830184612a95565b949350505050565b6000602082019050818103600083015261330381612bf8565b9050919050565b6000602082019050818103600083015261332381612c1b565b9050919050565b6000602082019050818103600083015261334381612c3e565b9050919050565b6000602082019050818103600083015261336381612c84565b9050919050565b6000602082019050818103600083015261338381612ca7565b9050919050565b600060208201905081810360008301526133a381612cca565b9050919050565b600060208201905081810360008301526133c381612d79565b9050919050565b600060208201905081810360008301526133e381612d9c565b9050919050565b6000602082019050818103600083015261340381612dbf565b9050919050565b6000602082019050818103600083015261342381612de2565b9050919050565b6000602082019050818103600083015261344381612e28565b9050919050565b6000602082019050818103600083015261346381612e4b565b9050919050565b6000602082019050818103600083015261348381612e6e565b9050919050565b600060208201905081810360008301526134a381612e91565b9050919050565b600060208201905081810360008301526134c381612eb4565b9050919050565b600060208201905081810360008301526134e381612efa565b9050919050565b6000602082019050818103600083015261350381612f40565b9050919050565b600060208201905061351f6000830184612fa9565b92915050565b600061352f613540565b905061353b82826137d0565b919050565b6000604051905090565b600067ffffffffffffffff82111561356557613564613908565b5b61356e82613937565b9050602081019050919050565b60008190508160005260206000209050919050565b600081519050919050565b600081519050919050565b600082825260208201905092915050565b600082825260208201905092915050565b600081905092915050565b60006135de82613752565b91506135e983613752565b9250827fffffffffffffffffffffffffffffffffffffffffffffffffffffffffffffffff0382111561361e5761361d61387b565b5b828201905092915050565b600061363482613752565b915061363f83613752565b92508261364f5761364e6138aa565b5b828204905092915050565b600061366582613752565b915061367083613752565b9250817fffffffffffffffffffffffffffffffffffffffffffffffffffffffffffffffff04831182151516156136a9576136a861387b565b5b828202905092915050565b60006136bf82613752565b91506136ca83613752565b9250828210156136dd576136dc61387b565b5b828203905092915050565b60006136f382613732565b9050919050565b60008115159050919050565b60007fffffffff0000000000000000000000000000000000000000000000000000000082169050919050565b600073ffffffffffffffffffffffffffffffffffffffff82169050919050565b6000819050919050565b82818337600083830152505050565b60005b8381101561378957808201518184015260208101905061376e565b83811115613798576000848401525b50505050565b600060028204905060018216806137b657607f821691505b602082108114156137ca576137c96138d9565b5b50919050565b6137d982613937565b810181811067ffffffffffffffff821117156137f8576137f7613908565b5b80604052505050565b600061380c82613752565b91507fffffffffffffffffffffffffffffffffffffffffffffffffffffffffffffffff82141561383f5761383e61387b565b5b600182019050919050565b600061385582613752565b915061386083613752565b9250826138705761386f6138aa565b5b828206905092915050565b7f4e487b7100000000000000000000000000000000000000000000000000000000600052601160045260246000fd5b7f4e487b7100000000000000000000000000000000000000000000000000000000600052601260045260246000fd5b7f4e487b7100000000000000000000000000000000000000000000000000000000600052602260045260246000fd5b7f4e487b7100000000000000000000000000000000000000000000000000000000600052604160045260246000fd5b6000601f19601f8301169050919050565b7f3c2f646566733e3c2f7376673e00000000000000000000000000000000000000600082015250565b7f4552433732313a207472616e7366657220746f206e6f6e20455243373231526560008201527f63656976657220696d706c656d656e7465720000000000000000000000000000602082015250565b7f52656163686564204d696e6974696e67204c696d697400000000000000000000600082015250565b7f4552433732313a20746f6b656e20616c7265616479206d696e74656400000000600082015250565b7f222c20226465736372697074696f6e223a20224261636b20746f20746865204560008201527f74686572222c2022696d616765223a2022646174613a696d6167652f7376672b60208201527f786d6c3b6261736536342c000000000000000000000000000000000000000000604082015250565b7f4552433732313a207472616e7366657220746f20746865207a65726f2061646460008201527f7265737300000000000000000000000000000000000000000000000000000000602082015250565b7f4552433732313a20617070726f766520746f2063616c6c657200000000000000600082015250565b7f4552433732313a206f70657261746f7220717565727920666f72206e6f6e657860008201527f697374656e7420746f6b656e0000000000000000000000000000000000000000602082015250565b7f2337434536333600000000000000000000000000000000000000000000000000600082015250565b7f2000000000000000000000000000000000000000000000000000000000000000600082015250565b7f272f3e0000000000000000000000000000000000000000000000000000000000600082015250565b7f58616e6465720000000000000000000000000000000000000000000000000000600082015250565b7f4552433732313a20617070726f76652063616c6c6572206973206e6f74206f7760008201527f6e6572206e6f7220617070726f76656420666f7220616c6c0000000000000000602082015250565b7f4552433732313a2062616c616e636520717565727920666f7220746865207a6560008201527f726f206164647265737300000000000000000000000000000000000000000000602082015250565b7f4552433732313a206f776e657220717565727920666f72206e6f6e657869737460008201527f656e7420746f6b656e0000000000000000000000000000000000000000000000602082015250565b7f45524337323155524953746f726167653a2055524920736574206f66206e6f6e60008201527f6578697374656e7420746f6b656e000000000000000000000000000000000000602082015250565b7f227d000000000000000000000000000000000000000000000000000000000000600082015250565b7f4552433732313a206d696e7420746f20746865207a65726f2061646472657373600082015250565b7f45524337323155524953746f726167653a2055524920717565727920666f722060008201527f6e6f6e6578697374656e7420746f6b656e000000000000000000000000000000602082015250565b7f4552433732313a20617070726f76656420717565727920666f72206e6f6e657860008201527f697374656e7420746f6b656e0000000000000000000000000000000000000000602082015250565b7f4552433732313a207472616e73666572206f6620746f6b656e2074686174206960008201527f73206e6f74206f776e0000000000000000000000000000000000000000000000602082015250565b7f4552433732314d657461646174613a2055524920717565727920666f72206e6f60008201527f6e6578697374656e7420746f6b656e0000000000000000000000000000000000602082015250565b7f7b226e616d65223a202200000000000000000000000000000000000000000000600082015250565b7f4552433732313a20617070726f76616c20746f2063757272656e74206f776e6560008201527f7200000000000000000000000000000000000000000000000000000000000000602082015250565b7f646174613a6170706c69636174696f6e2f6a736f6e3b6261736536342c000000600082015250565b7f4552433732313a207472616e736665722063616c6c6572206973206e6f74206f60008201527f776e6572206e6f7220617070726f766564000000000000000000000000000000602082015250565b7f626c61636b000000000000000000000000000000000000000000000000000000600082015250565b7f4a616d6573000000000000000000000000000000000000000000000000000000600082015250565b614007816136e8565b811461401257600080fd5b50565b61401e816136fa565b811461402957600080fd5b50565b61403581613706565b811461404057600080fd5b50565b61404c81613752565b811461405757600080fd5b5056fe416e204e465420772f20494420257320686173206265656e206d696e74656420746f2025734142434445464748494a4b4c4d4e4f505152535455565758595a6162636465666768696a6b6c6d6e6f707172737475767778797a303132333435363738392b2fa26469706673582212200c71bb82ce1c59f05f8877df0a6de2400a60e57179f65d0969fdf783fe8e97a264736f6c634300080400333c7061746820643d274d3230392e3332392037372e333737433230392e3332392037372e33373720323133203332203234372034322e3527207374726f6b653d272337434536333627207374726f6b652d77696474683d2734272f3e3c636972636c652063783d27323438272063793d2734332720723d2733272066696c6c3d2723374345363336272f3e3c7061746820643d274d3134302e3637392037362e37323232433134302e3637392037362e37323232203133372e3030382033312e33343532203130332e3030382034312e3834353227207374726f6b653d272337434536333627207374726f6b652d77696474683d2734272f3e3c636972636c652063783d27313032272063793d2734322720723d2733272066696c6c3d2723374345363336272f3e3c7061746820643d274d3230312032323743323031203234312e35203138382e393132203233302031373420323330433135392e3038382032333020313437203233382e35203134372032323743313437203231332e35203135392e303838203232342031373420323234433138382e3931322032323420323031203231322e3520323031203232375a272066696c6c3d27626c61636b272f3e3c7061746820643d274d3135302e352032323043313534203231392e383636203136352e363032203232322e343338203137342e35383420323234433137342e35383420323234203139342e323236203231362e343337203139372e353834203231392e383636433230302e393433203232332e323936203230312e323236203233322e393337203139372e353834203233342e383636433139332e393433203233362e373936203138332e373332203233302e363439203137342e353834203233302e333636433136352e353331203233302e303836203135342e353834203233332e383636203135312e353834203233332e333636433134382e353834203233322e38363620313437203232302e313334203135302e35203232305a272066696c6c3d277768697465272f3e3c6c696e652078313d273134382e303035272079313d273232362e3735272078323d273230312e303035272079323d273232372e373527207374726f6b653d27626c61636b27207374726f6b652d77696474683d27302e35272f3e3c7061747465726e2069643d277061747465726e3027207061747465726e436f6e74656e74556e6974733d276f626a656374426f756e64696e67426f78272077696474683d273127206865696768743d2731273e3c75736520786c696e6b3a687265663d2723696d6167653027207472616e73666f726d3d277363616c6528302e303036343933353120302e303229272f3e3c2f7061747465726e3e3c696d6167652069643d27696d61676530272077696474683d2731353427206865696768743d2735302720786c696e6b3a687265663d27646174613a696d6167652f706e673b6261736536342c6956424f5277304b47676f414141414e5355684555674141414a6f414141417941514d4141414365666c445841414141426c424d5645582f2f2f38414141425677744e2b414141414358424957584d41414137454141414f784147564b7734624141414159306c45515651346a5750346a776b4f4d445177594143486f535049754d517354576d6a744a475033386d62743965725752305946615354494e56694d774244304c3647496644782b514f6f676a7870444c2f4e4572414a4a6a5a6743416158506351552f4c30396d51474c6469794377575a70324a78306a424a7644685a4262495541414c76453471314d7730726f4141414141456c46546b5375516d4343272f3e3c656c6c697073652063783d273133322e333631272063793d273136352e303433272072783d273237272072793d27333727207472616e73666f726d3d27726f74617465282d3330203133322e333631203136352e30343329272066696c6c3d27626c61636b272f3e3c656c6c697073652063783d273231342e383833272063793d273136352e353433272072783d273237272072793d27333727207472616e73666f726d3d27726f74617465283330203231342e383833203136352e35343329272066696c6c3d27626c61636b272f3e3c636972636c652063783d27323133272063793d273135302720723d2737272066696c6c3d277768697465272f3e3c636972636c652063783d27313333272063793d273135302720723d2737272066696c6c3d277768697465272f3e3c6c696e652078313d273231392e393833272079313d273231382e363437272078323d273232392e303634272079323d273230382e36353827207374726f6b653d27626c61636b27207374726f6b652d77696474683d27302e3527207374726f6b652d6c696e656361703d27726f756e64272f3e3c672066696c7465723d2775726c282366696c746572305f6429273e3c6c696e652078313d273132382e363437272079313d273232322e303135272078323d273131382e363935272079323d273231322e38393327207374726f6b653d27626c61636b27207374726f6b652d77696474683d27302e3527207374726f6b652d6c696e656361703d27726f756e64272f3e3c2f673e3c656c6c697073652063783d27313732272063793d273230362e35272072783d2731272072793d27342e3527207472616e73666f726d3d27726f74617465283920313732203230362e3529272066696c6c3d27626c61636b272f3e3c656c6c697073652063783d27313736272063793d273230362e35272072783d2731272072793d27342e3527207472616e73666f726d3d27726f74617465282d3920313736203230362e3529272066696c6c3d27626c61636b272f3e3c656c6c697073652063783d27313734272063793d27323434272072783d273237272072793d2733272066696c6c3d27626c61636b272f3e3c7265637420783d273132352720793d27333131272077696474683d2731303027206865696768743d2733322e34363735272066696c6c3d2775726c28237061747465726e3029272f3e3c2f673e3c7061747465726e2069643d277061747465726e3027207061747465726e436f6e74656e74556e6974733d276f626a656374426f756e64696e67426f78272077696474683d273127206865696768743d2731273e3c75736520786c696e6b3a687265663d2723696d6167653027207472616e73666f726d3d277363616c6528302e303036343933353120302e303229272f3e3c2f7061747465726e3e3c696d6167652069643d27696d61676530272077696474683d2731353427206865696768743d2735302720786c696e6b3a687265663d27646174613a696d6167652f706e673b6261736536342c6956424f5277304b47676f414141414e5355684555674141414a6f414141417941514d4141414365666c445841414141426c424d5645582f2f2f38414141425677744e2b414141414358424957584d41414137454141414f784147564b7734624141414159456c45515651346a5750346a776b4f4d445177594143486f535049754d517354576d6a744a475033386d626c6f764d7241364d43744a4a6b4771784759416861462f4445506a344d4a6f675478724462374e3062494c5a6d494c425a592b78714e79656a45303746734667444547776b3834666f4d43626730555157794541414e69613163774f646570374141414141456c46546b5375516d4343272f3e3c7061747465726e2069643d277061747465726e3027207061747465726e436f6e74656e74556e6974733d276f626a656374426f756e64696e67426f78272077696474683d273127206865696768743d2731273e3c75736520786c696e6b3a687265663d2723696d6167653027207472616e73666f726d3d277363616c6528302e303036343933353120302e303229272f3e3c2f7061747465726e3e3c696d6167652069643d27696d61676530272077696474683d2731353427206865696768743d2735302720786c696e6b3a687265663d27646174613a696d6167652f706e673b6261736536342c6956424f5277304b47676f414141414e5355684555674141414a6f414141417941514d4141414365666c445841414141426c424d5645582f2f2f38414141425677744e2b414141414358424957584d41414137454141414f784147564b773462414141415a6b6c45515651346a5750346a776b4f4d445177594143486f535049754d517354576d6a744a475033386d624f7858547241364d43744a4a6b4771784759416861462f4445506a342f414655515a34306874396d4f51785942504d624d4153447939356730623439415a755a574153447a584c51424d464f4f6f356d45556e654843794332416f424150706433544d56412f33394141414141456c46546b5375516d4343272f3e3c7061746820643d274d3137312e3535322033342e323338324c3137312e3537362033342e323430324c3137312e3630312033342e32333733433230312e3836332033302e36363139203232302e39332033372e32363333203233322e3432372034362e35343034433234332e3933312035352e38323239203234372e3838322036372e38303236203234372e3838322037352e303331433234372e3838322037382e35383034203234352e3835352038312e39393631203234322e3131312038352e31333536433233382e3336392038382e323734203233322e39342039312e31313136203232362e3230382039332e34393935433231322e3734382039382e32373435203139342e313336203130312e323333203137332e353636203130312e323333433135322e393936203130312e323333203133342e3338342039382e32373435203132302e3932332039332e34393935433131342e3139322039312e31313136203130382e3736322038382e323734203130352e30322038352e31333536433130312e3237372038312e393936312039392e32352037382e353830342039392e32352037352e3033314339392e32352036372e37363833203130312e3239382035362e32373233203131312e3332382034372e32343339433132312e3335392033382e32313534203133392e3432322033312e36303938203137312e3535322033342e323338325a272066696c6c3d27776869746527207374726f6b653d27626c61636b27207374726f6b652d77696474683d27302e35272f3e3c7061746820643d274d3137332e3537392036372e373936374c3137332e3538372036372e373937324c3137332e3539352036372e37393732433138322e3733312036372e38303731203138392e3434312036382e32353438203139342e3336382036392e30313933433139392e3239382036392e37383433203230322e3432322037302e38363337203230342e3430322037322e31323335433230362e3336392037332e33373534203230372e32312037342e38303737203230372e35372037362e33313332433230372e3835392037372e35313835203230372e3834332037382e37363733203230372e3832362038302e30343437433230372e3832322038302e33393031203230372e3831372038302e37333736203230372e3831382038312e30383639433230372e3832342038322e35393137203230362e39332038342e30363733203230352e3231392038352e34343833433230332e35312038362e38323735203230312e3031392038382e30383433203139372e3931362038392e31343837433139312e3731342039312e32373634203138332e3132332039322e36313631203137332e3631362039322e36353436433136342e3130392039322e363933203135352e3530382039312e34323239203134392e3238392038392e33343534433134362e3137382038382e33303633203134332e3637362038372e30363936203134312e3935362038352e37303434433134302e3233342038342e33333732203133392e3332382038322e38363839203133392e3332322038312e33363431433133392e33322038312e303737203133392e3331362038302e373835203133392e3331312038302e34383932433133392e3236342037372e34323431203133392e32312037332e39353432203134322e3832342037312e33343931433134342e3832312036392e39303938203134372e3935362036382e37323137203135322e38382036382e30343434433135372e3830312036372e33363734203136342e3439312036372e32303332203137332e3537392036372e373936375a272066696c6c3d27626c61636b27207374726f6b653d27626c61636b27207374726f6b652d77696474683d27302e35272f3e3c646566733e3c66696c7465722069643d2766696c746572305f642720783d273131342e3334322720793d273231322e3534272077696474683d2731382e36353827206865696768743d2731372e38323837272066696c746572556e6974733d277573657253706163654f6e5573652720636f6c6f722d696e746572706f6c6174696f6e2d66696c746572733d2773524742273e3c6665466c6f6f6420666c6f6f642d6f7061636974793d27302720726573756c743d274261636b67726f756e64496d616765466978272f3e3c6665436f6c6f724d617472697820696e3d27536f75726365416c7068612720747970653d276d6174726978272076616c7565733d2730203020302030203020302030203020302030203020302030203020302030203020302031323720302720726573756c743d2768617264416c706861272f3e3c66654f66667365742064793d2734272f3e3c6665476175737369616e426c757220737464446576696174696f6e3d2732272f3e3c6665436f6d706f7369746520696e323d2768617264416c70686127206f70657261746f723d276f7574272f3e3c6665436f6c6f724d617472697820747970653d276d6174726978272076616c7565733d27302030203020302030203020302030203020302030203020302030203020302030203020302e32352030272f3e3c6665426c656e64206d6f64653d276e6f726d616c2720696e323d274261636b67726f756e64496d6167654669782720726573756c743d27656666656374315f64726f70536861646f77272f3e3c6665426c656e64206d6f64653d276e6f726d616c2720696e3d27536f75726365477261706869632720696e323d27656666656374315f64726f70536861646f772720726573756c743d277368617065272f3e3c2f66696c7465723e3c7376672077696474683d2733353027206865696768743d27333530272076696577426f783d273020302033353020333530272066696c6c3d276e6f6e652720786d6c6e733d27687474703a2f2f7777772e77332e6f72672f323030302f7376672720786d6c6e733a786c696e6b3d27687474703a2f2f7777772e77332e6f72672f313939392f786c696e6b273e3c6720636c69702d706174683d2775726c2823636c69703029273e3c726563742077696474683d2733353027206865696768743d27333530272066696c6c3d273c7061747465726e2069643d277061747465726e3027207061747465726e436f6e74656e74556e6974733d276f626a656374426f756e64696e67426f78272077696474683d273127206865696768743d2731273e3c75736520786c696e6b3a687265663d2723696d6167653027207472616e73666f726d3d277363616c6528302e303036343933353120302e303229272f3e3c2f7061747465726e3e3c696d6167652069643d27696d61676530272077696474683d2731353427206865696768743d2735302720786c696e6b3a687265663d27646174613a696d6167652f706e673b6261736536342c6956424f5277304b47676f414141414e5355684555674141414a6f414141417941514d4141414365666c445841414141426c424d5645582f2f2f38414141425677744e2b414141414358424957584d41414137454141414f784147564b77346241414141586b6c45515651346a5750346a776b4f4d445177594143486f535049754d517354576d6a744a475033386d62702f572b5752305946615354494e56694d774244304c36474966447838515a55515a34306874396d4f5165494577777565344e4635665a30624e6f5473476a484d424f726b306a79356d4152784659494141443033756f39796e3233466741414141424a52553545726b4a6767673d3d272f3e3c7061747465726e2069643d277061747465726e3027207061747465726e436f6e74656e74556e6974733d276f626a656374426f756e64696e67426f78272077696474683d273127206865696768743d2731273e3c75736520786c696e6b3a687265663d2723696d6167653027207472616e73666f726d3d277363616c6528302e303036343933353120302e303229272f3e3c2f7061747465726e3e3c696d6167652069643d27696d61676530272077696474683d2731353427206865696768743d2735302720786c696e6b3a687265663d27646174613a696d6167652f706e673b6261736536342c6956424f5277304b47676f414141414e5355684555674141414a6f414141417941514d4141414365666c445841414141426c424d5645582f2f2f38414141425677744e2b414141414358424957584d41414137454141414f784147564b7734624141414159556c45515651346a5750346a776b4f4d445177594143486f535049754d517354576d6a744a475033386d626b336463737a6f774b6b676e516172465a6743476f48304e512b446a4177645142586e53474836624a574954544d595544433537686b586c3968787332764f786144644c514250453669535376446c59424c455641674139322b34686c646277697741414141424a52553545726b4a6767673d3d272f3e3c7061747465726e2069643d277061747465726e3027207061747465726e436f6e74656e74556e6974733d276f626a656374426f756e64696e67426f78272077696474683d273127206865696768743d2731273e3c75736520786c696e6b3a687265663d2723696d6167653027207472616e73666f726d3d277363616c6528302e303036343933353120302e303229272f3e3c2f7061747465726e3e3c696d6167652069643d27696d61676530272077696474683d2731353427206865696768743d2735302720786c696e6b3a687265663d27646174613a696d6167652f706e673b6261736536342c6956424f5277304b47676f414141414e5355684555674141414a6f414141417941514d4141414365666c445841414141426c424d5645582f2f2f38414141425677744e2b414141414358424957584d41414137454141414f784147564b7734624141414157556c45515651346a5750346a776b4f4d445177594143486f535049754d517354576d6a744a475033386d626c3232335752305946615354494e56694d774244304c36474966447838515a55515a34306874396d4f51654945777775653435462b33616974574d49596e5553536434634c494c5943674541636f506e4a336a4c71656f41414141415355564f524b35435949493d272f3e3c7061747465726e2069643d277061747465726e3027207061747465726e436f6e74656e74556e6974733d276f626a656374426f756e64696e67426f78272077696474683d273127206865696768743d2731273e3c75736520786c696e6b3a687265663d2723696d6167653027207472616e73666f726d3d277363616c6528302e303036343933353120302e303229272f3e3c2f7061747465726e3e3c696d6167652069643d27696d61676530272077696474683d2731353427206865696768743d2735302720786c696e6b3a687265663d27646174613a696d6167652f706e673b6261736536342c6956424f5277304b47676f414141414e5355684555674141414a6f414141417941514d4141414365666c445841414141426c424d5645582f2f2f38414141425677742b414141414358424957584d41414137454141414f784147564b7734624141414158306c45515651346a5750346a776b4f4d445177594143486f535049754d517354576d6a744a475033386d626377326d5752305946615354494e56694d774244304c36474966447838515a55515a34306874396d4f51657743544a67434161587663656966547432375a694377526943574a31456b6a6348697943325167414139455066655563694f646341414141415355564f524b35435949493d272f3e3c7061747465726e2069643d277061747465726e3027207061747465726e436f6e74656e74556e6974733d276f626a656374426f756e64696e67426f78272077696474683d273127206865696768743d2731273e3c75736520786c696e6b3a687265663d2723696d6167653027207472616e73666f726d3d277363616c6528302e303036343933353120302e303229272f3e3c2f7061747465726e3e3c696d6167652069643d27696d61676530272077696474683d2731353427206865696768743d2735302720786c696e6b3a687265663d27646174613a696d6167652f706e673b6261736536342c6956424f5277304b47676f414141414e5355684555674141414a6f414141417941514d4141414365666c445841414141426c424d5645582f2f2f38414141425677744e2b414141414358424957584d41414137454141414f784147564b77346241414141596b6c45515651346a5750346a776b4f4d445177594143486f535049754d517354576d6a744a475033386d62633961555752305946615354494e56694d774244304c36474966447838515a55515a34306874396d4f516549457777756534424635665a6b6247616d4d5742714e3876423571547a61476153354d3342496f6974454141417666506c5355595356675941414141415355564f524b35435949493d272f3e3c7061746820643d274d3231352e303634203236342e343739433232322e313839203237302e313036203232382e343533203237352e343335203233322e383139203237392e353032433233352e303032203238312e353336203233362e373039203238332e323532203233372e383131203238342e353331433233382e333633203238352e313731203233382e373539203238352e363936203233382e393839203238362e303935433233392e313034203238362e323935203233392e313733203238362e343536203233392e323031203238362e353739433233392e3233203238362e373034203233392e323131203238362e373635203233392e313838203238362e373934433233392e313635203238362e383233203233392e3131203238362e383536203233382e393831203238362e383537433233382e383535203238362e383538203233382e363832203238362e383238203233382e343631203238362e373633433233382e303231203238362e363332203233372e343137203238362e333638203233362e363637203238352e3938433233352e313637203238352e323034203233332e313032203238332e393432203233302e363138203238322e3239433232352e363439203237382e393835203231392e303133203237342e313238203231312e383838203236382e353032433230342e373632203236322e383735203139382e343939203235372e353436203139342e313333203235332e343739433139312e393439203235312e343435203139302e323433203234392e373239203138392e3134203234382e3435433138382e353838203234372e3831203138382e313932203234372e323835203138372e393633203234362e383836433138372e383438203234362e363836203138372e373739203234362e353235203138372e3735203234362e343032433138372e373232203234362e323737203138372e373431203234362e323136203138372e373634203234362e313837433138372e373837203234362e313538203138372e383432203234362e313235203138372e3937203234362e313234433138382e303937203234362e313233203138382e323639203234362e313533203138382e3439203234362e323138433138382e393331203234362e333439203138392e353334203234362e363133203139302e323835203234372e303031433139312e373834203234372e373737203139332e383439203234392e303339203139362e333334203235302e363931433230312e333032203235332e393936203230372e393338203235382e383533203231352e303634203236342e3437395a272066696c6c3d27776869746527207374726f6b653d27626c61636b27207374726f6b652d77696474683d27302e3235272f3e3c7061746820643d274d323335203238352e333737433233362e343335203238352e303534203233362e323136203238342e363339203233372e303536203238352e353732433233372e343037203238352e393632203233372e363838203238362e333737203233382e3235203238362e33373727207374726f6b653d27626c61636b27207374726f6b652d77696474683d273327207374726f6b652d6c696e656361703d27726f756e64272f3e3c7061746820643d274d37312e36343533203136342e3434314c37312e36343335203136342e3433344c37312e36343132203136342e3432364336352e37353136203134352e3334342036362e31323733203132392e3035352037302e37343138203131352e3335334337352e33353638203130312e36352038342e323138312039302e353136342039352e333330382038312e37353839433131372e3536332036342e32333834203134382e3738332035362e3235203137322e3930322035362e3235433139372e3033392035362e3235203232362e372036312e33373132203234382e3735392037372e343532433237302e3739332039332e35313534203238352e323739203132302e353431203237392e303435203136342e343533433237332e333035203138382e333936203235332e323132203232312e3233203233312e323938203234382e303932433232302e333433203236312e353231203230382e393433203237332e343436203139382e3637203238322e303131433139332e353333203238362e323934203138382e363833203238392e373332203138342e333136203239322e303939433137392e393434203239342e343637203137362e303737203239352e3735203137322e393032203239352e3735433136342e353932203239352e3735203135342e383234203239302e353531203134342e363432203238312e393432433133342e343639203237332e333432203132332e393233203236312e333734203131342e303632203234372e3931354339342e33333735203232302e3939332037372e33383439203138382e3134382037312e36343533203136342e3434315a27207374726f6b653d27626c61636b27207374726f6b652d77696474683d27302e35272066696c6c3d273c7061747465726e2069643d277061747465726e3027207061747465726e436f6e74656e74556e6974733d276f626a656374426f756e64696e67426f78272077696474683d273127206865696768743d2731273e3c75736520786c696e6b3a687265663d2723696d6167653027207472616e73666f726d3d277363616c6528302e303036343933353120302e303229272f3e3c2f7061747465726e3e3c696d6167652069643d27696d61676530272077696474683d2731353427206865696768743d2735302720786c696e6b3a687265663d27646174613a696d6167652f706e673b6261736536342c6956424f5277304b47676f414141414e5355684555674141414a6f414141417941514d4141414365666c445841414141426c424d5645582f2f2f38414141425677744e2b414141414358424957584d41414137454141414f784147564b77346241414141586b6c45515651346a5750346a776b4f4d445177594143486f535049754d517354576d6a744a475033386d62303833647241364d43744a4a6b4771784759416861462f4445506a3465414f714945386177322b7a6e414e5942424d774259504c6e6d50527668324c53757a614d537a433669535376446c59424c4556416743776c64702f6f4d7938614141414141424a52553545726b4a6767673d3d272f3e3c7061747465726e2069643d277061747465726e3027207061747465726e436f6e74656e74556e6974733d276f626a656374426f756e64696e67426f78272077696474683d273127206865696768743d2731273e3c75736520786c696e6b3a687265663d2723696d6167653027207472616e73666f726d3d277363616c6528302e303039383033393220302e303229272f3e3c2f7061747465726e3e3c696d6167652069643d27696d61676530272077696474683d2731303227206865696768743d2735302720786c696e6b3a687265663d27646174613a696d6167652f706e673b6261736536342c6956424f5277304b47676f414141414e5355684555674141414759414141417941514d4141414355446a7a4141414141426c424d5645582f2f2f38414141425677744e2b414141414358424957584d41414137454141414f784147564b7734624141414153556c455156516f6b5750346a77542b4d4451774941414c2f586c53546a352b4a3239613678327a4f6a4469654353475751414b4c2f4478385159453737645a7a674663764f437974386879322f4e77713054686f6470416355795479554e4a725143476d4a75624e7262726b6741414141424a52553545726b4a6767673d3d272f3e3c6c696e652078313d273135352e393036272079313d273330352e303031272078323d273138372e383931272079323d273330342e30303127207374726f6b653d272338463845384527207374726f6b652d77696474683d2736272f3e3c6c696e652078313d273135352e393036272079313d273239392e303031272078323d273138372e383931272079323d273239382e30303127207374726f6b653d272338463845384527207374726f6b652d77696474683d2736272f3e3c636972636c652063783d27313732272063793d273135312720723d273134342e35272066696c6c3d2723433443344334272066696c6c2d6f7061636974793d27302e333427207374726f6b653d27626c61636b272f3e3c7265637420783d273132302720793d27333130272077696474683d2731303027206865696768743d2733322e34363735272066696c6c3d2775726c28237061747465726e3029272f3e3c7061746820643d274d3138362e393739203236312e3938334c3138362e393735203236322e303138563236322e303533433138362e393735203237312e323635203138312e323333203237382e35203137342e343034203237382e35433136372e353734203237382e35203136312e383333203237312e323635203136312e383333203236322e303533563236322e3032364c3136312e383320323632433136312e333137203235372e3136203136312e3433203235332e373331203136312e393737203235312e333036433136322e353232203234382e383933203136332e343839203234372e353037203136342e363731203234362e363934433136352e383637203234352e383732203136372e333535203234352e353834203136392e303436203234352e353137433136392e383838203234352e343833203137302e373636203234352e353035203137312e363638203234352e353335433137312e383234203234352e353431203137312e393831203234352e353436203137322e313339203234352e353532433137322e383837203234352e353739203137332e363439203234352e363036203137342e343034203234352e363036433137352e313533203234352e363036203137352e393138203234352e353739203137362e363733203234352e353533433137362e383338203234352e353437203137372e303033203234352e353431203137372e313637203234352e353336433137382e303837203234352e353035203137382e393839203234352e343833203137392e383539203234352e353137433138312e363036203234352e353834203138332e313631203234352e383733203138342e343031203234362e363939433138352e363233203234372e353132203138362e363037203234382e383935203138372e313139203235312e33433138372e363334203235332e373139203138372e363634203235372e313434203138362e393739203236312e3938335a272066696c6c3d272346354230453427207374726f6b653d27626c61636b272f3e",
    "linkReferences": {},
    "deployedLinkReferences": {}
}