{
    "_format": "hh-sol-artifact-1",
    "contractName": "DopeNft",
    "sourceName": "contracts/nftContract.sol",
    "abi": [
        {
            "inputs": [],
            "stateMutability": "nonpayable",
            "type": "constructor"
        },
        {
            "anonymous": false,
            "inputs": [
                {
                    "indexed": true,
                    "internalType": "address",
                    "name": "owner",
                    "type": "address"
                },
                {
                    "indexed": true,
                    "internalType": "address",
                    "name": "approved",
                    "type": "address"
                },
                {
                    "indexed": true,
                    "internalType": "uint256",
                    "name": "tokenId",
                    "type": "uint256"
                }
            ],
            "name": "Approval",
            "type": "event"
        },
        {
            "anonymous": false,
            "inputs": [
                {
                    "indexed": true,
                    "internalType": "address",
                    "name": "owner",
                    "type": "address"
                },
                {
                    "indexed": true,
                    "internalType": "address",
                    "name": "operator",
                    "type": "address"
                },
                {
                    "indexed": false,
                    "internalType": "bool",
                    "name": "approved",
                    "type": "bool"
                }
            ],
            "name": "ApprovalForAll",
            "type": "event"
        },
        {
            "anonymous": false,
            "inputs": [
                {
                    "indexed": true,
                    "internalType": "address",
                    "name": "from",
                    "type": "address"
                },
                {
                    "indexed": true,
                    "internalType": "address",
                    "name": "to",
                    "type": "address"
                },
                {
                    "indexed": true,
                    "internalType": "uint256",
                    "name": "tokenId",
                    "type": "uint256"
                }
            ],
            "name": "Transfer",
            "type": "event"
        },
        {
            "inputs": [
                {
                    "internalType": "address",
                    "name": "to",
                    "type": "address"
                },
                {
                    "internalType": "uint256",
                    "name": "tokenId",
                    "type": "uint256"
                }
            ],
            "name": "approve",
            "outputs": [],
            "stateMutability": "nonpayable",
            "type": "function"
        },
        {
            "inputs": [
                {
                    "internalType": "address",
                    "name": "owner",
                    "type": "address"
                }
            ],
            "name": "balanceOf",
            "outputs": [
                {
                    "internalType": "uint256",
                    "name": "",
                    "type": "uint256"
                }
            ],
            "stateMutability": "view",
            "type": "function"
        },
        {
            "inputs": [],
            "name": "constructDopeNft",
            "outputs": [],
            "stateMutability": "nonpayable",
            "type": "function"
        },
        {
            "inputs": [
                {
                    "internalType": "uint256",
                    "name": "tokenId",
                    "type": "uint256"
                }
            ],
            "name": "getApproved",
            "outputs": [
                {
                    "internalType": "address",
                    "name": "",
                    "type": "address"
                }
            ],
            "stateMutability": "view",
            "type": "function"
        },
        {
            "inputs": [
                {
                    "internalType": "uint256",
                    "name": "tokenId",
                    "type": "uint256"
                }
            ],
            "name": "idCardSelection",
            "outputs": [
                {
                    "internalType": "string",
                    "name": "",
                    "type": "string"
                }
            ],
            "stateMutability": "view",
            "type": "function"
        },
        {
            "inputs": [
                {
                    "internalType": "address",
                    "name": "owner",
                    "type": "address"
                },
                {
                    "internalType": "address",
                    "name": "operator",
                    "type": "address"
                }
            ],
            "name": "isApprovedForAll",
            "outputs": [
                {
                    "internalType": "bool",
                    "name": "",
                    "type": "bool"
                }
            ],
            "stateMutability": "view",
            "type": "function"
        },
        {
            "inputs": [],
            "name": "name",
            "outputs": [
                {
                    "internalType": "string",
                    "name": "",
                    "type": "string"
                }
            ],
            "stateMutability": "view",
            "type": "function"
        },
        {
            "inputs": [
                {
                    "internalType": "uint256",
                    "name": "tokenId",
                    "type": "uint256"
                }
            ],
            "name": "ownerOf",
            "outputs": [
                {
                    "internalType": "address",
                    "name": "",
                    "type": "address"
                }
            ],
            "stateMutability": "view",
            "type": "function"
        },
        {
            "inputs": [
                {
                    "internalType": "uint256",
                    "name": "tokenId",
                    "type": "uint256"
                }
            ],
            "name": "pickHeadFeature",
            "outputs": [
                {
                    "internalType": "string",
                    "name": "",
                    "type": "string"
                }
            ],
            "stateMutability": "view",
            "type": "function"
        },
        {
            "inputs": [
                {
                    "internalType": "uint256",
                    "name": "tokenId",
                    "type": "uint256"
                }
            ],
            "name": "pickRandomColor",
            "outputs": [
                {
                    "internalType": "string",
                    "name": "",
                    "type": "string"
                }
            ],
            "stateMutability": "view",
            "type": "function"
        },
        {
            "inputs": [
                {
                    "internalType": "uint256",
                    "name": "tokenId",
                    "type": "uint256"
                }
            ],
            "name": "pickSkinColor",
            "outputs": [
                {
                    "internalType": "string",
                    "name": "",
                    "type": "string"
                }
            ],
            "stateMutability": "view",
            "type": "function"
        },
        {
            "inputs": [
                {
                    "internalType": "uint256",
                    "name": "tokenId",
                    "type": "uint256"
                }
            ],
            "name": "pickfirstName",
            "outputs": [
                {
                    "internalType": "string",
                    "name": "",
                    "type": "string"
                }
            ],
            "stateMutability": "view",
            "type": "function"
        },
        {
            "inputs": [
                {
                    "internalType": "uint256",
                    "name": "tokenId",
                    "type": "uint256"
                }
            ],
            "name": "picklastName",
            "outputs": [
                {
                    "internalType": "string",
                    "name": "",
                    "type": "string"
                }
            ],
            "stateMutability": "view",
            "type": "function"
        },
        {
            "inputs": [
                {
                    "internalType": "address",
                    "name": "from",
                    "type": "address"
                },
                {
                    "internalType": "address",
                    "name": "to",
                    "type": "address"
                },
                {
                    "internalType": "uint256",
                    "name": "tokenId",
                    "type": "uint256"
                }
            ],
            "name": "safeTransferFrom",
            "outputs": [],
            "stateMutability": "nonpayable",
            "type": "function"
        },
        {
            "inputs": [
                {
                    "internalType": "address",
                    "name": "from",
                    "type": "address"
                },
                {
                    "internalType": "address",
                    "name": "to",
                    "type": "address"
                },
                {
                    "internalType": "uint256",
                    "name": "tokenId",
                    "type": "uint256"
                },
                {
                    "internalType": "bytes",
                    "name": "_data",
                    "type": "bytes"
                }
            ],
            "name": "safeTransferFrom",
            "outputs": [],
            "stateMutability": "nonpayable",
            "type": "function"
        },
        {
            "inputs": [
                {
                    "internalType": "address",
                    "name": "operator",
                    "type": "address"
                },
                {
                    "internalType": "bool",
                    "name": "approved",
                    "type": "bool"
                }
            ],
            "name": "setApprovalForAll",
            "outputs": [],
            "stateMutability": "nonpayable",
            "type": "function"
        },
        {
            "inputs": [
                {
                    "internalType": "bytes4",
                    "name": "interfaceId",
                    "type": "bytes4"
                }
            ],
            "name": "supportsInterface",
            "outputs": [
                {
                    "internalType": "bool",
                    "name": "",
                    "type": "bool"
                }
            ],
            "stateMutability": "view",
            "type": "function"
        },
        {
            "inputs": [],
            "name": "symbol",
            "outputs": [
                {
                    "internalType": "string",
                    "name": "",
                    "type": "string"
                }
            ],
            "stateMutability": "view",
            "type": "function"
        },
        {
            "inputs": [
                {
                    "internalType": "uint256",
                    "name": "tokenId",
                    "type": "uint256"
                }
            ],
            "name": "tokenURI",
            "outputs": [
                {
                    "internalType": "string",
                    "name": "",
                    "type": "string"
                }
            ],
            "stateMutability": "view",
            "type": "function"
        },
        {
            "inputs": [
                {
                    "internalType": "address",
                    "name": "from",
                    "type": "address"
                },
                {
                    "internalType": "address",
                    "name": "to",
                    "type": "address"
                },
                {
                    "internalType": "uint256",
                    "name": "tokenId",
                    "type": "uint256"
                }
            ],
            "name": "transferFrom",
            "outputs": [],
            "stateMutability": "nonpayable",
            "type": "function"
        }
    ],
    "bytecode": "0x608060405260405180610100016040528060ce81526020016200718c60ce9139600890805190602001906200003692919062001b10565b50604051806102c0016040528061029581526020016200827b6102959139600990805190602001906200006b92919062001b10565b50604051806103a0016040528061037281526020016200622c6103729139600a9080519060200190620000a092919062001b10565b50604051806104e001604052806104b1815260200162007bf56104b19139600b9080519060200190620000d592919062001b10565b50604051806105a0016040528061057181526020016200697e6105719139600c90805190602001906200010a92919062001b10565b506040518061020001604052806101d58152602001620080a66101d59139600d90805190602001906200013f92919062001b10565b506040518061032001604052806102fc8152602001620088cc6102fc9139600e90805190602001906200017492919062001b10565b50604051806101600160405280610128815260200162005f146101289139600f9080519060200190620001a992919062001b10565b50604051806102c0016040528061029d815260200162006eef61029d913960109080519060200190620001de92919062001b10565b506040518061020001604052806101d08152602001620086fc6101d09139601190805190602001906200021392919062001b10565b506040518061022001604052806101ec81526020016200659e6101ec9139601290805190602001906200024892919062001b10565b506040518061022001604052806101f0815260200162007a056101f09139601390805190602001906200027d92919062001b10565b506040518061022001604052806101ec8152602001620085106101ec913960149080519060200190620002b292919062001b10565b506040518061022001604052806101f08152602001620074466101f0913960159080519060200190620002e792919062001b10565b506040518061022001604052806101f481526020016200678a6101f49139601690805190602001906200031c92919062001b10565b506040518061022001604052806101eb81526020016200781a6101eb9139601790805190602001906200035192919062001b10565b506040518061022001604052806101f081526020016200603c6101f09139601890805190602001906200038692919062001b10565b506040518061022001604052806101e48152602001620076366101e4913960199080519060200190620003bb92919062001b10565b506040518061022001604052806101ec81526020016200725a6101ec9139601a9080519060200190620003f092919062001b10565b5060405180608001604052806040518060400160405280600581526020017f626c61636b00000000000000000000000000000000000000000000000000000081525081526020016040518060400160405280600581526020017f776869746500000000000000000000000000000000000000000000000000000081525081526020016040518060400160405280600781526020017f233633383539360000000000000000000000000000000000000000000000000081525081526020016040518060400160405280600781526020017f2339353535346600000000000000000000000000000000000000000000000000815250815250601b906004620004f892919062001ba1565b506040518060c001604052806040518060400160405280600781526020017f233743453633360000000000000000000000000000000000000000000000000081525081526020016040518060400160405280600781526020017f233836443446370000000000000000000000000000000000000000000000000081525081526020016040518060400160405280600781526020017f234131394646420000000000000000000000000000000000000000000000000081525081526020016040518060400160405280600781526020017f233943453439310000000000000000000000000000000000000000000000000081525081526020016040518060400160405280600781526020017f234543394646460000000000000000000000000000000000000000000000000081525081526020016040518060400160405280600881526020017f2346464646464644000000000000000000000000000000000000000000000000815250815250601c9060066200067692919062001c08565b506040518060a00160405280600b8054620006919062001f4f565b80601f0160208091040260200160405190810160405280929190818152602001828054620006bf9062001f4f565b8015620007105780601f10620006e45761010080835404028352916020019162000710565b820191906000526020600020905b815481529060010190602001808311620006f257829003601f168201915b50505050508152602001600c8054620007299062001f4f565b80601f0160208091040260200160405190810160405280929190818152602001828054620007579062001f4f565b8015620007a85780601f106200077c57610100808354040283529160200191620007a8565b820191906000526020600020905b8154815290600101906020018083116200078a57829003601f168201915b50505050508152602001600d8054620007c19062001f4f565b80601f0160208091040260200160405190810160405280929190818152602001828054620007ef9062001f4f565b8015620008405780601f10620008145761010080835404028352916020019162000840565b820191906000526020600020905b8154815290600101906020018083116200082257829003601f168201915b50505050508152602001600f8054620008599062001f4f565b80601f0160208091040260200160405190810160405280929190818152602001828054620008879062001f4f565b8015620008d85780601f10620008ac57610100808354040283529160200191620008d8565b820191906000526020600020905b815481529060010190602001808311620008ba57829003601f168201915b50505050508152602001600e8054620008f19062001f4f565b80601f01602080910402602001604051908101604052809291908181526020018280546200091f9062001f4f565b8015620009705780601f10620009445761010080835404028352916020019162000970565b820191906000526020600020905b8154815290600101906020018083116200095257829003601f168201915b5050505050815250601d9060056200098a92919062001c6f565b5060405180610140016040528060118054620009a69062001f4f565b80601f0160208091040260200160405190810160405280929190818152602001828054620009d49062001f4f565b801562000a255780601f10620009f95761010080835404028352916020019162000a25565b820191906000526020600020905b81548152906001019060200180831162000a0757829003601f168201915b505050505081526020016012805462000a3e9062001f4f565b80601f016020809104026020016040519081016040528092919081815260200182805462000a6c9062001f4f565b801562000abd5780601f1062000a915761010080835404028352916020019162000abd565b820191906000526020600020905b81548152906001019060200180831162000a9f57829003601f168201915b505050505081526020016013805462000ad69062001f4f565b80601f016020809104026020016040519081016040528092919081815260200182805462000b049062001f4f565b801562000b555780601f1062000b295761010080835404028352916020019162000b55565b820191906000526020600020905b81548152906001019060200180831162000b3757829003601f168201915b505050505081526020016014805462000b6e9062001f4f565b80601f016020809104026020016040519081016040528092919081815260200182805462000b9c9062001f4f565b801562000bed5780601f1062000bc15761010080835404028352916020019162000bed565b820191906000526020600020905b81548152906001019060200180831162000bcf57829003601f168201915b505050505081526020016015805462000c069062001f4f565b80601f016020809104026020016040519081016040528092919081815260200182805462000c349062001f4f565b801562000c855780601f1062000c595761010080835404028352916020019162000c85565b820191906000526020600020905b81548152906001019060200180831162000c6757829003601f168201915b505050505081526020016016805462000c9e9062001f4f565b80601f016020809104026020016040519081016040528092919081815260200182805462000ccc9062001f4f565b801562000d1d5780601f1062000cf15761010080835404028352916020019162000d1d565b820191906000526020600020905b81548152906001019060200180831162000cff57829003601f168201915b505050505081526020016017805462000d369062001f4f565b80601f016020809104026020016040519081016040528092919081815260200182805462000d649062001f4f565b801562000db55780601f1062000d895761010080835404028352916020019162000db5565b820191906000526020600020905b81548152906001019060200180831162000d9757829003601f168201915b505050505081526020016018805462000dce9062001f4f565b80601f016020809104026020016040519081016040528092919081815260200182805462000dfc9062001f4f565b801562000e4d5780601f1062000e215761010080835404028352916020019162000e4d565b820191906000526020600020905b81548152906001019060200180831162000e2f57829003601f168201915b505050505081526020016019805462000e669062001f4f565b80601f016020809104026020016040519081016040528092919081815260200182805462000e949062001f4f565b801562000ee55780601f1062000eb95761010080835404028352916020019162000ee5565b820191906000526020600020905b81548152906001019060200180831162000ec757829003601f168201915b50505050508152602001601a805462000efe9062001f4f565b80601f016020809104026020016040519081016040528092919081815260200182805462000f2c9062001f4f565b801562000f7d5780601f1062000f515761010080835404028352916020019162000f7d565b820191906000526020600020905b81548152906001019060200180831162000f5f57829003601f168201915b5050505050815250601e90600a62000f9792919062001cd6565b506040518061028001604052806040518060400160405280600581526020017f4a616d657300000000000000000000000000000000000000000000000000000081525081526020016040518060400160405280600381526020017f426f62000000000000000000000000000000000000000000000000000000000081525081526020016040518060400160405280600581526020017f4672616e6b00000000000000000000000000000000000000000000000000000081525081526020016040518060400160405280600381526020017f4a6f65000000000000000000000000000000000000000000000000000000000081525081526020016040518060400160405280600481526020017f416c65780000000000000000000000000000000000000000000000000000000081525081526020016040518060400160405280600a81526020017f5820414520412d5869690000000000000000000000000000000000000000000081525081526020016040518060400160405280600481526020017f42696c6c0000000000000000000000000000000000000000000000000000000081525081526020016040518060400160405280600581526020017f506574657200000000000000000000000000000000000000000000000000000081525081526020016040518060400160405280600781526020017f4a6566666572790000000000000000000000000000000000000000000000000081525081526020016040518060400160405280600781526020017f57696c6c69616d0000000000000000000000000000000000000000000000000081525081526020016040518060400160405280600481526020017f5061756c0000000000000000000000000000000000000000000000000000000081525081526020016040518060400160405280600581526020017f4b6576696e00000000000000000000000000000000000000000000000000000081525081526020016040518060400160405280600681526020017f526f6e616c64000000000000000000000000000000000000000000000000000081525081526020016040518060400160405280600481526020017f4d61726b0000000000000000000000000000000000000000000000000000000081525081526020016040518060400160405280600681526020017f44616e69656c000000000000000000000000000000000000000000000000000081525081526020016040518060400160405280600681526020017f47656f726765000000000000000000000000000000000000000000000000000081525081526020016040518060400160405280600681526020017f54686f6d6173000000000000000000000000000000000000000000000000000081525081526020016040518060400160405280600581526020017f5765657a7900000000000000000000000000000000000000000000000000000081525081526020016040518060400160405280600581526020017f4472616b6500000000000000000000000000000000000000000000000000000081525081526020016040518060400160405280600581526020017f4141726f6e000000000000000000000000000000000000000000000000000000815250815250601f9060146200145092919062001d3d565b50604051806102a001604052806040518060400160405280600681526020017f58616e646572000000000000000000000000000000000000000000000000000081525081526020016040518060400160405280600581526020017f5a6164656e00000000000000000000000000000000000000000000000000000081525081526020016040518060400160405280600481526020017f437275780000000000000000000000000000000000000000000000000000000081525081526020016040518060400160405280600581526020017f4e6f76616b00000000000000000000000000000000000000000000000000000081525081526020016040518060400160405280600381526020017f4f7861000000000000000000000000000000000000000000000000000000000081525081526020016040518060400160405280600681526020017f5269636b6f6e000000000000000000000000000000000000000000000000000081525081526020016040518060400160405280600681526020017f546f72696f6e000000000000000000000000000000000000000000000000000081525081526020016040518060400160405280600381526020017f58616e000000000000000000000000000000000000000000000000000000000081525081526020016040518060400160405280600481526020017f452e542e0000000000000000000000000000000000000000000000000000000081525081526020016040518060400160405280600581526020017f5a61646f6300000000000000000000000000000000000000000000000000000081525081526020016040518060400160405280600481526020017f456c6f6e0000000000000000000000000000000000000000000000000000000081525081526020016040518060400160405280600681526020017f42657a7a6f73000000000000000000000000000000000000000000000000000081525081526020016040518060400160405280600481526020017f5a616b690000000000000000000000000000000000000000000000000000000081525081526020016040518060400160405280600581526020017f5a6179697400000000000000000000000000000000000000000000000000000081525081526020016040518060400160405280600581526020017f417374726f00000000000000000000000000000000000000000000000000000081525081526020016040518060400160405280600581526020017f436f736d6f00000000000000000000000000000000000000000000000000000081525081526020016040518060400160405280600481526020017f4c696e6b0000000000000000000000000000000000000000000000000000000081525081526020016040518060400160405280600581526020017f4f72696f6e00000000000000000000000000000000000000000000000000000081525081526020016040518060400160405280600581526020017f4661727a6100000000000000000000000000000000000000000000000000000081525081526020016040518060400160405280600481526020017f5061766f0000000000000000000000000000000000000000000000000000000081525081526020016040518060400160405280600881526020017f5269636b726f6c6c00000000000000000000000000000000000000000000000081525081525060209060156200194492919062001da4565b503480156200195257600080fd5b506040518060400160405280601281526020017f5f4261636b20746f2074686520457468657200000000000000000000000000008152506040518060400160405280600681526020017f53514155524500000000000000000000000000000000000000000000000000008152508160009080519060200190620019d792919062001b10565b508060019080519060200190620019f092919062001b10565b50505062001a3e6040518060400160405280601781526020017f496e7369646520446f70654e465420636f6e747261637400000000000000000081525062001a4460201b620016661760201c565b62001fc5565b62001ae48160405160240162001a5b919062001ed9565b6040516020818303038152906040527f41304fac000000000000000000000000000000000000000000000000000000007bffffffffffffffffffffffffffffffffffffffffffffffffffffffff19166020820180517bffffffffffffffffffffffffffffffffffffffffffffffffffffffff838183161783525050505062001ae760201b60201c565b50565b60008151905060006a636f6e736f6c652e6c6f679050602083016000808483855afa5050505050565b82805462001b1e9062001f4f565b90600052602060002090601f01602090048101928262001b42576000855562001b8e565b82601f1062001b5d57805160ff191683800117855562001b8e565b8280016001018555821562001b8e579182015b8281111562001b8d57825182559160200191906001019062001b70565b5b50905062001b9d919062001e0b565b5090565b82805482825590600052602060002090810192821562001bf5579160200282015b8281111562001bf457825182908051906020019062001be392919062001b10565b509160200191906001019062001bc2565b5b50905062001c04919062001e2a565b5090565b82805482825590600052602060002090810192821562001c5c579160200282015b8281111562001c5b57825182908051906020019062001c4a92919062001b10565b509160200191906001019062001c29565b5b50905062001c6b919062001e2a565b5090565b82805482825590600052602060002090810192821562001cc3579160200282015b8281111562001cc257825182908051906020019062001cb192919062001b10565b509160200191906001019062001c90565b5b50905062001cd2919062001e2a565b5090565b82805482825590600052602060002090810192821562001d2a579160200282015b8281111562001d2957825182908051906020019062001d1892919062001b10565b509160200191906001019062001cf7565b5b50905062001d39919062001e2a565b5090565b82805482825590600052602060002090810192821562001d91579160200282015b8281111562001d9057825182908051906020019062001d7f92919062001b10565b509160200191906001019062001d5e565b5b50905062001da0919062001e2a565b5090565b82805482825590600052602060002090810192821562001df8579160200282015b8281111562001df757825182908051906020019062001de692919062001b10565b509160200191906001019062001dc5565b5b50905062001e07919062001e2a565b5090565b5b8082111562001e2657600081600090555060010162001e0c565b5090565b5b8082111562001e4e576000818162001e44919062001e52565b5060010162001e2b565b5090565b50805462001e609062001f4f565b6000825580601f1062001e74575062001e95565b601f01602090049060005260206000209081019062001e94919062001e0b565b5b50565b600062001ea58262001efd565b62001eb1818562001f08565b935062001ec381856020860162001f19565b62001ece8162001fb4565b840191505092915050565b6000602082019050818103600083015262001ef5818462001e98565b905092915050565b600081519050919050565b600082825260208201905092915050565b60005b8381101562001f3957808201518184015260208101905062001f1c565b8381111562001f49576000848401525b50505050565b6000600282049050600182168062001f6857607f821691505b6020821081141562001f7f5762001f7e62001f85565b5b50919050565b7f4e487b7100000000000000000000000000000000000000000000000000000000600052602260045260246000fd5b6000601f19601f8301169050919050565b613f3f8062001fd56000396000f3fe608060405234801561001057600080fd5b506004361061012c5760003560e01c80636352211e116100ad5780639b0dd496116100715780639b0dd4961461037b578063a22cb465146103ab578063b88d4fde146103c7578063c87b56dd146103e3578063e985e9c5146104135761012c565b80636352211e146102c357806370a08231146102f35780638c8bc145146103235780639149881a1461032d57806395d89b411461035d5761012c565b806317c3f865116100f457806317c3f865146101fb57806323b872dd1461022b57806342842e0e14610247578063514dc8c6146102635780635a6d7f67146102935761012c565b806301b590d61461013157806301ffc9a71461016157806306fdde0314610191578063081812fc146101af578063095ea7b3146101df575b600080fd5b61014b6004803603810190610146919061294b565b610443565b604051610158919061311d565b60405180910390f35b61017b600480360381019061017691906128f9565b610561565b6040516101889190613102565b60405180910390f35b610199610643565b6040516101a6919061311d565b60405180910390f35b6101c960048036038101906101c4919061294b565b6106d5565b6040516101d6919061309b565b60405180910390f35b6101f960048036038101906101f491906128bd565b61075a565b005b6102156004803603810190610210919061294b565b610872565b604051610222919061311d565b60405180910390f35b610245600480360381019061024091906127b7565b610993565b005b610261600480360381019061025c91906127b7565b6109f3565b005b61027d6004803603810190610278919061294b565b610a13565b60405161028a919061311d565b60405180910390f35b6102ad60048036038101906102a8919061294b565b610b31565b6040516102ba919061311d565b60405180910390f35b6102dd60048036038101906102d8919061294b565b610c52565b6040516102ea919061309b565b60405180910390f35b61030d60048036038101906103089190612752565b610d04565b60405161031a919061337d565b60405180910390f35b61032b610dbc565b005b6103476004803603810190610342919061294b565b610fcf565b604051610354919061311d565b60405180910390f35b6103656110ed565b604051610372919061311d565b60405180910390f35b6103956004803603810190610390919061294b565b61117f565b6040516103a2919061311d565b60405180910390f35b6103c560048036038101906103c09190612881565b61129d565b005b6103e160048036038101906103dc9190612806565b61141e565b005b6103fd60048036038101906103f8919061294b565b611480565b60405161040a919061311d565b60405180910390f35b61042d6004803603810190610428919061277b565b6115d2565b60405161043a9190613102565b60405180910390f35b60606000610477610453846116ff565b6040516020016104639190613079565b6040516020818303038152906040526118ac565b9050601f805490508161048a91906136bd565b9050601f81815481106104c6577f4e487b7100000000000000000000000000000000000000000000000000000000600052603260045260246000fd5b9060005260206000200180546104db90613611565b80601f016020809104026020016040519081016040528092919081815260200182805461050790613611565b80156105545780601f1061052957610100808354040283529160200191610554565b820191906000526020600020905b81548152906001019060200180831161053757829003601f168201915b5050505050915050919050565b60007f80ac58cd000000000000000000000000000000000000000000000000000000007bffffffffffffffffffffffffffffffffffffffffffffffffffffffff1916827bffffffffffffffffffffffffffffffffffffffffffffffffffffffff1916148061062c57507f5b5e139f000000000000000000000000000000000000000000000000000000007bffffffffffffffffffffffffffffffffffffffffffffffffffffffff1916827bffffffffffffffffffffffffffffffffffffffffffffffffffffffff1916145b8061063c575061063b826118df565b5b9050919050565b60606000805461065290613611565b80601f016020809104026020016040519081016040528092919081815260200182805461067e90613611565b80156106cb5780601f106106a0576101008083540402835291602001916106cb565b820191906000526020600020905b8154815290600101906020018083116106ae57829003601f168201915b5050505050905090565b60006106e082611949565b61071f576040517f08c379a0000000000000000000000000000000000000000000000000000000008152600401610716906132dd565b60405180910390fd5b6004600083815260200190815260200160002060009054906101000a900473ffffffffffffffffffffffffffffffffffffffff169050919050565b600061076582610c52565b90508073ffffffffffffffffffffffffffffffffffffffff168373ffffffffffffffffffffffffffffffffffffffff1614156107d6576040517f08c379a00000000000000000000000000000000000000000000000000000000081526004016107cd9061333d565b60405180910390fd5b8073ffffffffffffffffffffffffffffffffffffffff166107f56119b5565b73ffffffffffffffffffffffffffffffffffffffff16148061082457506108238161081e6119b5565b6115d2565b5b610863576040517f08c379a000000000000000000000000000000000000000000000000000000000815260040161085a9061321d565b60405180910390fd5b61086d83836119bd565b505050565b606060006108a96011610884856116ff565b604051602001610895929190612f59565b6040516020818303038152906040526118ac565b9050601e80549050816108bc91906136bd565b9050601e81815481106108f8577f4e487b7100000000000000000000000000000000000000000000000000000000600052603260045260246000fd5b90600052602060002001805461090d90613611565b80601f016020809104026020016040519081016040528092919081815260200182805461093990613611565b80156109865780601f1061095b57610100808354040283529160200191610986565b820191906000526020600020905b81548152906001019060200180831161096957829003601f168201915b5050505050915050919050565b6109a461099e6119b5565b82611a76565b6109e3576040517f08c379a00000000000000000000000000000000000000000000000000000000081526004016109da9061335d565b60405180910390fd5b6109ee838383611b54565b505050565b610a0e8383836040518060200160405280600081525061141e565b505050565b60606000610a47610a23846116ff565b604051602001610a339190613057565b6040516020818303038152906040526118ac565b9050601b8054905081610a5a91906136bd565b9050601b8181548110610a96577f4e487b7100000000000000000000000000000000000000000000000000000000600052603260045260246000fd5b906000526020600020018054610aab90613611565b80601f0160208091040260200160405190810160405280929190818152602001828054610ad790613611565b8015610b245780601f10610af957610100808354040283529160200191610b24565b820191906000526020600020905b815481529060010190602001808311610b0757829003601f168201915b5050505050915050919050565b60606000610b68600b610b43856116ff565b604051602001610b54929190612f59565b6040516020818303038152906040526118ac565b9050601d8054905081610b7b91906136bd565b9050601d8181548110610bb7577f4e487b7100000000000000000000000000000000000000000000000000000000600052603260045260246000fd5b906000526020600020018054610bcc90613611565b80601f0160208091040260200160405190810160405280929190818152602001828054610bf890613611565b8015610c455780601f10610c1a57610100808354040283529160200191610c45565b820191906000526020600020905b815481529060010190602001808311610c2857829003601f168201915b5050505050915050919050565b6000806002600084815260200190815260200160002060009054906101000a900473ffffffffffffffffffffffffffffffffffffffff169050600073ffffffffffffffffffffffffffffffffffffffff168173ffffffffffffffffffffffffffffffffffffffff161415610cfb576040517f08c379a0000000000000000000000000000000000000000000000000000000008152600401610cf29061325d565b60405180910390fd5b80915050919050565b60008073ffffffffffffffffffffffffffffffffffffffff168273ffffffffffffffffffffffffffffffffffffffff161415610d75576040517f08c379a0000000000000000000000000000000000000000000000000000000008152600401610d6c9061323d565b60405180910390fd5b600360008373ffffffffffffffffffffffffffffffffffffffff1673ffffffffffffffffffffffffffffffffffffffff168152602001908152602001600020549050919050565b6000610dc86007611db0565b90506000610dd582610a13565b90506000610de28361117f565b90506000610def84610b31565b90506000610dfc85610872565b90506000610e0986610443565b90506000610e1687610fcf565b905060008282604051602001610e2d929190612eaf565b6040516020818303038152906040529050600087600988600a8960108a604051602001610e609796959493929190612ede565b60405160208183030381529060405290506000600882604051602001610e87929190612f7d565b60405160208183030381529060405290506000610ecc84610ea784611dbe565b604051602001610eb8929190612ff0565b604051602081830303815290604052611dbe565b9050600081604051602001610ee19190613035565b6040516020818303038152906040529050610f306040518060400160405280601581526020017f0a2d2d2d2d2d2d2d2d2d2d2d2d2d2d2d2d2d2d2d2d0000000000000000000000815250611666565b610f3983611666565b610f776040518060400160405280601581526020017f2d2d2d2d2d2d2d2d2d2d2d2d2d2d2d2d2d2d2d2d0a0000000000000000000000815250611666565b610f8081611666565b610f8a338d611f7c565b610f948c82611f9a565b610fb7604051806060016040528060258152602001613ea5602591398d3361200e565b610fc160076120ad565b505050505050505050505050565b60606000611003610fdf846116ff565b604051602001610fef9190612fce565b6040516020818303038152906040526118ac565b90506020805490508161101691906136bd565b905060208181548110611052577f4e487b7100000000000000000000000000000000000000000000000000000000600052603260045260246000fd5b90600052602060002001805461106790613611565b80601f016020809104026020016040519081016040528092919081815260200182805461109390613611565b80156110e05780601f106110b5576101008083540402835291602001916110e0565b820191906000526020600020905b8154815290600101906020018083116110c357829003601f168201915b5050505050915050919050565b6060600180546110fc90613611565b80601f016020809104026020016040519081016040528092919081815260200182805461112890613611565b80156111755780601f1061114a57610100808354040283529160200191611175565b820191906000526020600020905b81548152906001019060200180831161115857829003601f168201915b5050505050905090565b606060006111b361118f846116ff565b60405160200161119f9190612fac565b6040516020818303038152906040526118ac565b9050601c80549050816111c691906136bd565b9050601c8181548110611202577f4e487b7100000000000000000000000000000000000000000000000000000000600052603260045260246000fd5b90600052602060002001805461121790613611565b80601f016020809104026020016040519081016040528092919081815260200182805461124390613611565b80156112905780601f1061126557610100808354040283529160200191611290565b820191906000526020600020905b81548152906001019060200180831161127357829003601f168201915b5050505050915050919050565b6112a56119b5565b73ffffffffffffffffffffffffffffffffffffffff168273ffffffffffffffffffffffffffffffffffffffff161415611313576040517f08c379a000000000000000000000000000000000000000000000000000000000815260040161130a906131dd565b60405180910390fd5b80600560006113206119b5565b73ffffffffffffffffffffffffffffffffffffffff1673ffffffffffffffffffffffffffffffffffffffff16815260200190815260200160002060008473ffffffffffffffffffffffffffffffffffffffff1673ffffffffffffffffffffffffffffffffffffffff16815260200190815260200160002060006101000a81548160ff0219169083151502179055508173ffffffffffffffffffffffffffffffffffffffff166113cd6119b5565b73ffffffffffffffffffffffffffffffffffffffff167f17307eab39ab6107e8899845ad3d59bd9653f200f220920489ca2b5937696c31836040516114129190613102565b60405180910390a35050565b61142f6114296119b5565b83611a76565b61146e576040517f08c379a00000000000000000000000000000000000000000000000000000000081526004016114659061335d565b60405180910390fd5b61147a848484846120c3565b50505050565b606061148b82611949565b6114ca576040517f08c379a00000000000000000000000000000000000000000000000000000000081526004016114c1906132bd565b60405180910390fd5b60006006600084815260200190815260200160002080546114ea90613611565b80601f016020809104026020016040519081016040528092919081815260200182805461151690613611565b80156115635780601f1061153857610100808354040283529160200191611563565b820191906000526020600020905b81548152906001019060200180831161154657829003601f168201915b50505050509050600061157461211f565b905060008151141561158a5781925050506115cd565b6000825111156115bf5780826040516020016115a7929190612e8b565b604051602081830303815290604052925050506115cd565b6115c884612136565b925050505b919050565b6000600560008473ffffffffffffffffffffffffffffffffffffffff1673ffffffffffffffffffffffffffffffffffffffff16815260200190815260200160002060008373ffffffffffffffffffffffffffffffffffffffff1673ffffffffffffffffffffffffffffffffffffffff16815260200190815260200160002060009054906101000a900460ff16905092915050565b6116fc8160405160240161167a919061311d565b6040516020818303038152906040527f41304fac000000000000000000000000000000000000000000000000000000007bffffffffffffffffffffffffffffffffffffffffffffffffffffffff19166020820180517bffffffffffffffffffffffffffffffffffffffffffffffffffffffff83818316178352505050506121dd565b50565b60606000821415611747576040518060400160405280600181526020017f300000000000000000000000000000000000000000000000000000000000000081525090506118a7565b600082905060005b6000821461177957808061176290613674565b915050600a82611772919061349c565b915061174f565b60008167ffffffffffffffff8111156117bb577f4e487b7100000000000000000000000000000000000000000000000000000000600052604160045260246000fd5b6040519080825280601f01601f1916602001820160405280156117ed5781602001600182028036833780820191505090505b5090505b600085146118a0576001826118069190613527565b9150600a8561181591906136bd565b60306118219190613446565b60f81b81838151811061185d577f4e487b7100000000000000000000000000000000000000000000000000000000600052603260045260246000fd5b60200101907effffffffffffffffffffffffffffffffffffffffffffffffffffffffffffff1916908160001a905350600a85611899919061349c565b94506117f1565b8093505050505b919050565b6000816040516020016118bf9190612e74565b6040516020818303038152906040528051906020012060001c9050919050565b60007f01ffc9a7000000000000000000000000000000000000000000000000000000007bffffffffffffffffffffffffffffffffffffffffffffffffffffffff1916827bffffffffffffffffffffffffffffffffffffffffffffffffffffffff1916149050919050565b60008073ffffffffffffffffffffffffffffffffffffffff166002600084815260200190815260200160002060009054906101000a900473ffffffffffffffffffffffffffffffffffffffff1673ffffffffffffffffffffffffffffffffffffffff1614159050919050565b600033905090565b816004600083815260200190815260200160002060006101000a81548173ffffffffffffffffffffffffffffffffffffffff021916908373ffffffffffffffffffffffffffffffffffffffff160217905550808273ffffffffffffffffffffffffffffffffffffffff16611a3083610c52565b73ffffffffffffffffffffffffffffffffffffffff167f8c5be1e5ebec7d5bd14f71427d1e84f3dd0314c0f7b2291e5b200ac8c7c3b92560405160405180910390a45050565b6000611a8182611949565b611ac0576040517f08c379a0000000000000000000000000000000000000000000000000000000008152600401611ab7906131fd565b60405180910390fd5b6000611acb83610c52565b90508073ffffffffffffffffffffffffffffffffffffffff168473ffffffffffffffffffffffffffffffffffffffff161480611b3a57508373ffffffffffffffffffffffffffffffffffffffff16611b22846106d5565b73ffffffffffffffffffffffffffffffffffffffff16145b80611b4b5750611b4a81856115d2565b5b91505092915050565b8273ffffffffffffffffffffffffffffffffffffffff16611b7482610c52565b73ffffffffffffffffffffffffffffffffffffffff1614611bca576040517f08c379a0000000000000000000000000000000000000000000000000000000008152600401611bc1906132fd565b60405180910390fd5b600073ffffffffffffffffffffffffffffffffffffffff168273ffffffffffffffffffffffffffffffffffffffff161415611c3a576040517f08c379a0000000000000000000000000000000000000000000000000000000008152600401611c31906131bd565b60405180910390fd5b611c45838383612206565b611c506000826119bd565b6001600360008573ffffffffffffffffffffffffffffffffffffffff1673ffffffffffffffffffffffffffffffffffffffff1681526020019081526020016000206000828254611ca09190613527565b925050819055506001600360008473ffffffffffffffffffffffffffffffffffffffff1673ffffffffffffffffffffffffffffffffffffffff1681526020019081526020016000206000828254611cf79190613446565b92505081905550816002600083815260200190815260200160002060006101000a81548173ffffffffffffffffffffffffffffffffffffffff021916908373ffffffffffffffffffffffffffffffffffffffff160217905550808273ffffffffffffffffffffffffffffffffffffffff168473ffffffffffffffffffffffffffffffffffffffff167fddf252ad1be2c89b69c2b068fc378daa952ba7f163c4a11628f55a4df523b3ef60405160405180910390a4505050565b600081600001549050919050565b60606000825190506000811415611de75760405180602001604052806000815250915050611f77565b60006003600283611df89190613446565b611e02919061349c565b6004611e0e91906134cd565b90506000602082611e1f9190613446565b67ffffffffffffffff811115611e5e577f4e487b7100000000000000000000000000000000000000000000000000000000600052604160045260246000fd5b6040519080825280601f01601f191660200182016040528015611e905781602001600182028036833780820191505090505b5090506000604051806060016040528060408152602001613eca604091399050600181016020830160005b86811015611f345760038101905062ffffff818a015116603f8160121c168401518060081b905060ff603f83600c1c1686015116810190508060081b905060ff603f8360061c1686015116810190508060081b905060ff603f831686015116810190508060e01b90508084526004840193505050611ebb565b506003860660018114611f4e5760028114611f5e57611f69565b613d3d60f01b6002830352611f69565b603d60f81b60018303525b508484525050819450505050505b919050565b611f9682826040518060200160405280600081525061220b565b5050565b611fa382611949565b611fe2576040517f08c379a0000000000000000000000000000000000000000000000000000000008152600401611fd99061327d565b60405180910390fd5b806006600084815260200190815260200160002090805190602001906120099291906125de565b505050565b6120a88383836040516024016120269392919061313f565b6040516020818303038152906040527fe3849f79000000000000000000000000000000000000000000000000000000007bffffffffffffffffffffffffffffffffffffffffffffffffffffffff19166020820180517bffffffffffffffffffffffffffffffffffffffffffffffffffffffff83818316178352505050506121dd565b505050565b6001816000016000828254019250508190555050565b6120ce848484611b54565b6120da84848484612266565b612119576040517f08c379a00000000000000000000000000000000000000000000000000000000081526004016121109061317d565b60405180910390fd5b50505050565b606060405180602001604052806000815250905090565b606061214182611949565b612180576040517f08c379a00000000000000000000000000000000000000000000000000000000081526004016121779061331d565b60405180910390fd5b600061218a61211f565b905060008151116121aa57604051806020016040528060008152506121d5565b806121b4846116ff565b6040516020016121c5929190612e8b565b6040516020818303038152906040525b915050919050565b60008151905060006a636f6e736f6c652e6c6f679050602083016000808483855afa5050505050565b505050565b61221583836123fd565b6122226000848484612266565b612261576040517f08c379a00000000000000000000000000000000000000000000000000000000081526004016122589061317d565b60405180910390fd5b505050565b60006122878473ffffffffffffffffffffffffffffffffffffffff166125cb565b156123f0578373ffffffffffffffffffffffffffffffffffffffff1663150b7a026122b06119b5565b8786866040518563ffffffff1660e01b81526004016122d294939291906130b6565b602060405180830381600087803b1580156122ec57600080fd5b505af192505050801561231d57506040513d601f19601f8201168201806040525081019061231a9190612922565b60015b6123a0573d806000811461234d576040519150601f19603f3d011682016040523d82523d6000602084013e612352565b606091505b50600081511415612398576040517f08c379a000000000000000000000000000000000000000000000000000000000815260040161238f9061317d565b60405180910390fd5b805181602001fd5b63150b7a0260e01b7bffffffffffffffffffffffffffffffffffffffffffffffffffffffff1916817bffffffffffffffffffffffffffffffffffffffffffffffffffffffff1916149150506123f5565b600190505b949350505050565b600073ffffffffffffffffffffffffffffffffffffffff168273ffffffffffffffffffffffffffffffffffffffff16141561246d576040517f08c379a00000000000000000000000000000000000000000000000000000000081526004016124649061329d565b60405180910390fd5b61247681611949565b156124b6576040517f08c379a00000000000000000000000000000000000000000000000000000000081526004016124ad9061319d565b60405180910390fd5b6124c260008383612206565b6001600360008473ffffffffffffffffffffffffffffffffffffffff1673ffffffffffffffffffffffffffffffffffffffff16815260200190815260200160002060008282546125129190613446565b92505081905550816002600083815260200190815260200160002060006101000a81548173ffffffffffffffffffffffffffffffffffffffff021916908373ffffffffffffffffffffffffffffffffffffffff160217905550808273ffffffffffffffffffffffffffffffffffffffff16600073ffffffffffffffffffffffffffffffffffffffff167fddf252ad1be2c89b69c2b068fc378daa952ba7f163c4a11628f55a4df523b3ef60405160405180910390a45050565b600080823b905060008111915050919050565b8280546125ea90613611565b90600052602060002090601f01602090048101928261260c5760008555612653565b82601f1061262557805160ff1916838001178555612653565b82800160010185558215612653579182015b82811115612652578251825591602001919060010190612637565b5b5090506126609190612664565b5090565b5b8082111561267d576000816000905550600101612665565b5090565b600061269461268f846133bd565b613398565b9050828152602081018484840111156126ac57600080fd5b6126b78482856135cf565b509392505050565b6000813590506126ce81613e48565b92915050565b6000813590506126e381613e5f565b92915050565b6000813590506126f881613e76565b92915050565b60008151905061270d81613e76565b92915050565b600082601f83011261272457600080fd5b8135612734848260208601612681565b91505092915050565b60008135905061274c81613e8d565b92915050565b60006020828403121561276457600080fd5b6000612772848285016126bf565b91505092915050565b6000806040838503121561278e57600080fd5b600061279c858286016126bf565b92505060206127ad858286016126bf565b9150509250929050565b6000806000606084860312156127cc57600080fd5b60006127da868287016126bf565b93505060206127eb868287016126bf565b92505060406127fc8682870161273d565b9150509250925092565b6000806000806080858703121561281c57600080fd5b600061282a878288016126bf565b945050602061283b878288016126bf565b935050604061284c8782880161273d565b925050606085013567ffffffffffffffff81111561286957600080fd5b61287587828801612713565b91505092959194509250565b6000806040838503121561289457600080fd5b60006128a2858286016126bf565b92505060206128b3858286016126d4565b9150509250929050565b600080604083850312156128d057600080fd5b60006128de858286016126bf565b92505060206128ef8582860161273d565b9150509250929050565b60006020828403121561290b57600080fd5b6000612919848285016126e9565b91505092915050565b60006020828403121561293457600080fd5b6000612942848285016126fe565b91505092915050565b60006020828403121561295d57600080fd5b600061296b8482850161273d565b91505092915050565b61297d8161355b565b82525050565b61298c8161356d565b82525050565b600061299d82613403565b6129a78185613419565b93506129b78185602086016135de565b6129c0816137aa565b840191505092915050565b60006129d68261340e565b6129e0818561342a565b93506129f08185602086016135de565b6129f9816137aa565b840191505092915050565b6000612a0f8261340e565b612a19818561343b565b9350612a298185602086016135de565b80840191505092915050565b60008154612a4281613611565b612a4c818661343b565b94506001821660008114612a675760018114612a7857612aab565b60ff19831686528186019350612aab565b612a81856133ee565b60005b83811015612aa357815481890152600182019150602081019050612a84565b838801955050505b50505092915050565b6000612ac1600d8361343b565b9150612acc826137bb565b600d82019050919050565b6000612ae460328361342a565b9150612aef826137e4565b604082019050919050565b6000612b07601c8361342a565b9150612b1282613833565b602082019050919050565b6000612b2a604b8361343b565b9150612b358261385c565b604b82019050919050565b6000612b4d60248361342a565b9150612b58826138d1565b604082019050919050565b6000612b7060198361342a565b9150612b7b82613920565b602082019050919050565b6000612b93602c8361342a565b9150612b9e82613949565b604082019050919050565b6000612bb660078361343b565b9150612bc182613998565b600782019050919050565b6000612bd960018361343b565b9150612be4826139c1565b600182019050919050565b6000612bfc60038361343b565b9150612c07826139ea565b600382019050919050565b6000612c1f60068361343b565b9150612c2a82613a13565b600682019050919050565b6000612c4260388361342a565b9150612c4d82613a3c565b604082019050919050565b6000612c65602a8361342a565b9150612c7082613a8b565b604082019050919050565b6000612c8860298361342a565b9150612c9382613ada565b604082019050919050565b6000612cab602e8361342a565b9150612cb682613b29565b604082019050919050565b6000612cce60028361343b565b9150612cd982613b78565b600282019050919050565b6000612cf160208361342a565b9150612cfc82613ba1565b602082019050919050565b6000612d1460318361342a565b9150612d1f82613bca565b604082019050919050565b6000612d37602c8361342a565b9150612d4282613c19565b604082019050919050565b6000612d5a60298361342a565b9150612d6582613c68565b604082019050919050565b6000612d7d602f8361342a565b9150612d8882613cb7565b604082019050919050565b6000612da0600a8361343b565b9150612dab82613d06565b600a82019050919050565b6000612dc360218361342a565b9150612dce82613d2f565b604082019050919050565b6000612de6601d8361343b565b9150612df182613d7e565b601d82019050919050565b6000612e0960318361342a565b9150612e1482613da7565b604082019050919050565b6000612e2c60058361343b565b9150612e3782613df6565b600582019050919050565b6000612e4f60058361343b565b9150612e5a82613e1f565b600582019050919050565b612e6e816135c5565b82525050565b6000612e808284612a04565b915081905092915050565b6000612e978285612a04565b9150612ea38284612a04565b91508190509392505050565b6000612ebb8285612a04565b9150612ec682612bcc565b9150612ed28284612a04565b91508190509392505050565b6000612eea828a612a04565b9150612ef582612bef565b9150612f018289612a35565b9150612f0d8288612a04565b9150612f1882612bef565b9150612f248287612a35565b9150612f308286612a04565b9150612f3c8285612a35565b9150612f488284612a04565b915081905098975050505050505050565b6000612f658285612a35565b9150612f718284612a04565b91508190509392505050565b6000612f898285612a35565b9150612f958284612a04565b9150612fa082612ab4565b91508190509392505050565b6000612fb782612ba9565b9150612fc38284612a04565b915081905092915050565b6000612fd982612c12565b9150612fe58284612a04565b915081905092915050565b6000612ffb82612d93565b91506130078285612a04565b915061301282612b1d565b915061301e8284612a04565b915061302982612cc1565b91508190509392505050565b600061304082612dd9565b915061304c8284612a04565b915081905092915050565b600061306282612e1f565b915061306e8284612a04565b915081905092915050565b600061308482612e42565b91506130908284612a04565b915081905092915050565b60006020820190506130b06000830184612974565b92915050565b60006080820190506130cb6000830187612974565b6130d86020830186612974565b6130e56040830185612e65565b81810360608301526130f78184612992565b905095945050505050565b60006020820190506131176000830184612983565b92915050565b6000602082019050818103600083015261313781846129cb565b905092915050565b6000606082019050818103600083015261315981866129cb565b90506131686020830185612e65565b6131756040830184612974565b949350505050565b6000602082019050818103600083015261319681612ad7565b9050919050565b600060208201905081810360008301526131b681612afa565b9050919050565b600060208201905081810360008301526131d681612b40565b9050919050565b600060208201905081810360008301526131f681612b63565b9050919050565b6000602082019050818103600083015261321681612b86565b9050919050565b6000602082019050818103600083015261323681612c35565b9050919050565b6000602082019050818103600083015261325681612c58565b9050919050565b6000602082019050818103600083015261327681612c7b565b9050919050565b6000602082019050818103600083015261329681612c9e565b9050919050565b600060208201905081810360008301526132b681612ce4565b9050919050565b600060208201905081810360008301526132d681612d07565b9050919050565b600060208201905081810360008301526132f681612d2a565b9050919050565b6000602082019050818103600083015261331681612d4d565b9050919050565b6000602082019050818103600083015261333681612d70565b9050919050565b6000602082019050818103600083015261335681612db6565b9050919050565b6000602082019050818103600083015261337681612dfc565b9050919050565b60006020820190506133926000830184612e65565b92915050565b60006133a26133b3565b90506133ae8282613643565b919050565b6000604051905090565b600067ffffffffffffffff8211156133d8576133d761377b565b5b6133e1826137aa565b9050602081019050919050565b60008190508160005260206000209050919050565b600081519050919050565b600081519050919050565b600082825260208201905092915050565b600082825260208201905092915050565b600081905092915050565b6000613451826135c5565b915061345c836135c5565b9250827fffffffffffffffffffffffffffffffffffffffffffffffffffffffffffffffff03821115613491576134906136ee565b5b828201905092915050565b60006134a7826135c5565b91506134b2836135c5565b9250826134c2576134c161371d565b5b828204905092915050565b60006134d8826135c5565b91506134e3836135c5565b9250817fffffffffffffffffffffffffffffffffffffffffffffffffffffffffffffffff048311821515161561351c5761351b6136ee565b5b828202905092915050565b6000613532826135c5565b915061353d836135c5565b9250828210156135505761354f6136ee565b5b828203905092915050565b6000613566826135a5565b9050919050565b60008115159050919050565b60007fffffffff0000000000000000000000000000000000000000000000000000000082169050919050565b600073ffffffffffffffffffffffffffffffffffffffff82169050919050565b6000819050919050565b82818337600083830152505050565b60005b838110156135fc5780820151818401526020810190506135e1565b8381111561360b576000848401525b50505050565b6000600282049050600182168061362957607f821691505b6020821081141561363d5761363c61374c565b5b50919050565b61364c826137aa565b810181811067ffffffffffffffff8211171561366b5761366a61377b565b5b80604052505050565b600061367f826135c5565b91507fffffffffffffffffffffffffffffffffffffffffffffffffffffffffffffffff8214156136b2576136b16136ee565b5b600182019050919050565b60006136c8826135c5565b91506136d3836135c5565b9250826136e3576136e261371d565b5b828206905092915050565b7f4e487b7100000000000000000000000000000000000000000000000000000000600052601160045260246000fd5b7f4e487b7100000000000000000000000000000000000000000000000000000000600052601260045260246000fd5b7f4e487b7100000000000000000000000000000000000000000000000000000000600052602260045260246000fd5b7f4e487b7100000000000000000000000000000000000000000000000000000000600052604160045260246000fd5b6000601f19601f8301169050919050565b7f3c2f646566733e3c2f7376673e00000000000000000000000000000000000000600082015250565b7f4552433732313a207472616e7366657220746f206e6f6e20455243373231526560008201527f63656976657220696d706c656d656e7465720000000000000000000000000000602082015250565b7f4552433732313a20746f6b656e20616c7265616479206d696e74656400000000600082015250565b7f222c20226465736372697074696f6e223a20224261636b20746f20746865204560008201527f74686572222c2022696d616765223a2022646174613a696d6167652f7376672b60208201527f786d6c3b6261736536342c000000000000000000000000000000000000000000604082015250565b7f4552433732313a207472616e7366657220746f20746865207a65726f2061646460008201527f7265737300000000000000000000000000000000000000000000000000000000602082015250565b7f4552433732313a20617070726f766520746f2063616c6c657200000000000000600082015250565b7f4552433732313a206f70657261746f7220717565727920666f72206e6f6e657860008201527f697374656e7420746f6b656e0000000000000000000000000000000000000000602082015250565b7f2337434536333600000000000000000000000000000000000000000000000000600082015250565b7f2000000000000000000000000000000000000000000000000000000000000000600082015250565b7f272f3e0000000000000000000000000000000000000000000000000000000000600082015250565b7f58616e6465720000000000000000000000000000000000000000000000000000600082015250565b7f4552433732313a20617070726f76652063616c6c6572206973206e6f74206f7760008201527f6e6572206e6f7220617070726f76656420666f7220616c6c0000000000000000602082015250565b7f4552433732313a2062616c616e636520717565727920666f7220746865207a6560008201527f726f206164647265737300000000000000000000000000000000000000000000602082015250565b7f4552433732313a206f776e657220717565727920666f72206e6f6e657869737460008201527f656e7420746f6b656e0000000000000000000000000000000000000000000000602082015250565b7f45524337323155524953746f726167653a2055524920736574206f66206e6f6e60008201527f6578697374656e7420746f6b656e000000000000000000000000000000000000602082015250565b7f227d000000000000000000000000000000000000000000000000000000000000600082015250565b7f4552433732313a206d696e7420746f20746865207a65726f2061646472657373600082015250565b7f45524337323155524953746f726167653a2055524920717565727920666f722060008201527f6e6f6e6578697374656e7420746f6b656e000000000000000000000000000000602082015250565b7f4552433732313a20617070726f76656420717565727920666f72206e6f6e657860008201527f697374656e7420746f6b656e0000000000000000000000000000000000000000602082015250565b7f4552433732313a207472616e73666572206f6620746f6b656e2074686174206960008201527f73206e6f74206f776e0000000000000000000000000000000000000000000000602082015250565b7f4552433732314d657461646174613a2055524920717565727920666f72206e6f60008201527f6e6578697374656e7420746f6b656e0000000000000000000000000000000000602082015250565b7f7b226e616d65223a202200000000000000000000000000000000000000000000600082015250565b7f4552433732313a20617070726f76616c20746f2063757272656e74206f776e6560008201527f7200000000000000000000000000000000000000000000000000000000000000602082015250565b7f646174613a6170706c69636174696f6e2f6a736f6e3b6261736536342c000000600082015250565b7f4552433732313a207472616e736665722063616c6c6572206973206e6f74206f60008201527f776e6572206e6f7220617070726f766564000000000000000000000000000000602082015250565b7f626c61636b000000000000000000000000000000000000000000000000000000600082015250565b7f4a616d6573000000000000000000000000000000000000000000000000000000600082015250565b613e518161355b565b8114613e5c57600080fd5b50565b613e688161356d565b8114613e7357600080fd5b50565b613e7f81613579565b8114613e8a57600080fd5b50565b613e96816135c5565b8114613ea157600080fd5b5056fe416e204e465420772f20494420257320686173206265656e206d696e74656420746f2025734142434445464748494a4b4c4d4e4f505152535455565758595a6162636465666768696a6b6c6d6e6f707172737475767778797a303132333435363738392b2fa2646970667358221220687c7cb2a487ff0a3043f7603214c102a52606a803fe09103d4a8b56e8035eca64736f6c634300080400333c7061746820643d274d3230392e3332392037372e333737433230392e3332392037372e33373720323133203332203234372034322e3527207374726f6b653d272337434536333627207374726f6b652d77696474683d2734272f3e3c636972636c652063783d27323438272063793d2734332720723d2733272066696c6c3d2723374345363336272f3e3c7061746820643d274d3134302e3637392037362e37323232433134302e3637392037362e37323232203133372e3030382033312e33343532203130332e3030382034312e3834353227207374726f6b653d272337434536333627207374726f6b652d77696474683d2734272f3e3c636972636c652063783d27313032272063793d2734322720723d2733272066696c6c3d2723374345363336272f3e3c7061747465726e2069643d277061747465726e3027207061747465726e436f6e74656e74556e6974733d276f626a656374426f756e64696e67426f78272077696474683d273127206865696768743d2731273e3c75736520786c696e6b3a687265663d2723696d6167653027207472616e73666f726d3d277363616c6528302e303036343933353120302e303229272f3e3c2f7061747465726e3e3c696d6167652069643d27696d61676530272077696474683d2731353427206865696768743d2735302720786c696e6b3a687265663d27646174613a696d6167652f706e673b6261736536342c6956424f5277304b47676f414141414e5355684555674141414a6f414141417941514d4141414365666c445841414141426c424d5645582f2f2f38414141425677744e2b414141414358424957584d41414137454141414f784147564b7734624141414159306c45515651346a5750346a776b4f4d445177594143486f535049754d517354576d6a744a475033386d62743965725752305946615354494e56694d774244304c3647496644782b514f6f676a7870444c2f4e4572414a4a6a5a6743416158506351552f4c30396d51474c6469794377575a70324a78306a424a7644685a4262495541414c76453471314d7730726f4141414141456c46546b5375516d4343272f3e3c656c6c697073652063783d273133322e333631272063793d273136352e303433272072783d273237272072793d27333727207472616e73666f726d3d27726f74617465282d3330203133322e333631203136352e30343329272066696c6c3d27626c61636b272f3e3c656c6c697073652063783d273231342e383833272063793d273136352e353433272072783d273237272072793d27333727207472616e73666f726d3d27726f74617465283330203231342e383833203136352e35343329272066696c6c3d27626c61636b272f3e3c636972636c652063783d27323133272063793d273135302720723d2737272066696c6c3d277768697465272f3e3c636972636c652063783d27313333272063793d273135302720723d2737272066696c6c3d277768697465272f3e3c6c696e652078313d273231392e393833272079313d273231382e363437272078323d273232392e303634272079323d273230382e36353827207374726f6b653d27626c61636b27207374726f6b652d77696474683d27302e3527207374726f6b652d6c696e656361703d27726f756e64272f3e3c672066696c7465723d2775726c282366696c746572305f6429273e3c6c696e652078313d273132382e363437272079313d273232322e303135272078323d273131382e363935272079323d273231322e38393327207374726f6b653d27626c61636b27207374726f6b652d77696474683d27302e3527207374726f6b652d6c696e656361703d27726f756e64272f3e3c2f673e3c656c6c697073652063783d27313732272063793d273230362e35272072783d2731272072793d27342e3527207472616e73666f726d3d27726f74617465283920313732203230362e3529272066696c6c3d27626c61636b272f3e3c656c6c697073652063783d27313736272063793d273230362e35272072783d2731272072793d27342e3527207472616e73666f726d3d27726f74617465282d3920313736203230362e3529272066696c6c3d27626c61636b272f3e3c656c6c697073652063783d27313734272063793d27323434272072783d273237272072793d2733272066696c6c3d27626c61636b272f3e3c7265637420783d273132352720793d27333131272077696474683d2731303027206865696768743d2733322e34363735272066696c6c3d2775726c28237061747465726e3029272f3e3c2f673e3c7061747465726e2069643d277061747465726e3027207061747465726e436f6e74656e74556e6974733d276f626a656374426f756e64696e67426f78272077696474683d273127206865696768743d2731273e3c75736520786c696e6b3a687265663d2723696d6167653027207472616e73666f726d3d277363616c6528302e303036343933353120302e303229272f3e3c2f7061747465726e3e3c696d6167652069643d27696d61676530272077696474683d2731353427206865696768743d2735302720786c696e6b3a687265663d27646174613a696d6167652f706e673b6261736536342c6956424f5277304b47676f414141414e5355684555674141414a6f414141417941514d4141414365666c445841414141426c424d5645582f2f2f38414141425677744e2b414141414358424957584d41414137454141414f784147564b7734624141414159456c45515651346a5750346a776b4f4d445177594143486f535049754d517354576d6a744a475033386d626c6f764d7241364d43744a4a6b4771784759416861462f4445506a344d4a6f675478724462374e3062494c5a6d494c425a592b78714e79656a45303746734667444547776b3834666f4d43626730555157794541414e69613163774f646570374141414141456c46546b5375516d4343272f3e3c7061747465726e2069643d277061747465726e3027207061747465726e436f6e74656e74556e6974733d276f626a656374426f756e64696e67426f78272077696474683d273127206865696768743d2731273e3c75736520786c696e6b3a687265663d2723696d6167653027207472616e73666f726d3d277363616c6528302e303036343933353120302e303229272f3e3c2f7061747465726e3e3c696d6167652069643d27696d61676530272077696474683d2731353427206865696768743d2735302720786c696e6b3a687265663d27646174613a696d6167652f706e673b6261736536342c6956424f5277304b47676f414141414e5355684555674141414a6f414141417941514d4141414365666c445841414141426c424d5645582f2f2f38414141425677744e2b414141414358424957584d41414137454141414f784147564b773462414141415a6b6c45515651346a5750346a776b4f4d445177594143486f535049754d517354576d6a744a475033386d624f7858547241364d43744a4a6b4771784759416861462f4445506a342f414655515a34306874396d4f51785942504d624d4153447939356730623439415a755a574153447a584c51424d464f4f6f356d45556e654843794332416f424150706433544d56412f33394141414141456c46546b5375516d4343272f3e3c7061746820643d274d3137312e3535322033342e323338324c3137312e3537362033342e323430324c3137312e3630312033342e32333733433230312e3836332033302e36363139203232302e39332033372e32363333203233322e3432372034362e35343034433234332e3933312035352e38323239203234372e3838322036372e38303236203234372e3838322037352e303331433234372e3838322037382e35383034203234352e3835352038312e39393631203234322e3131312038352e31333536433233382e3336392038382e323734203233322e39342039312e31313136203232362e3230382039332e34393935433231322e3734382039382e32373435203139342e313336203130312e323333203137332e353636203130312e323333433135322e393936203130312e323333203133342e3338342039382e32373435203132302e3932332039332e34393935433131342e3139322039312e31313136203130382e3736322038382e323734203130352e30322038352e31333536433130312e3237372038312e393936312039392e32352037382e353830342039392e32352037352e3033314339392e32352036372e37363833203130312e3239382035362e32373233203131312e3332382034372e32343339433132312e3335392033382e32313534203133392e3432322033312e36303938203137312e3535322033342e323338325a272066696c6c3d27776869746527207374726f6b653d27626c61636b27207374726f6b652d77696474683d27302e35272f3e3c7061746820643d274d3137332e3537392036372e373936374c3137332e3538372036372e373937324c3137332e3539352036372e37393732433138322e3733312036372e38303731203138392e3434312036382e32353438203139342e3336382036392e30313933433139392e3239382036392e37383433203230322e3432322037302e38363337203230342e3430322037322e31323335433230362e3336392037332e33373534203230372e32312037342e38303737203230372e35372037362e33313332433230372e3835392037372e35313835203230372e3834332037382e37363733203230372e3832362038302e30343437433230372e3832322038302e33393031203230372e3831372038302e37333736203230372e3831382038312e30383639433230372e3832342038322e35393137203230362e39332038342e30363733203230352e3231392038352e34343833433230332e35312038362e38323735203230312e3031392038382e30383433203139372e3931362038392e31343837433139312e3731342039312e32373634203138332e3132332039322e36313631203137332e3631362039322e36353436433136342e3130392039322e363933203135352e3530382039312e34323239203134392e3238392038392e33343534433134362e3137382038382e33303633203134332e3637362038372e30363936203134312e3935362038352e37303434433134302e3233342038342e33333732203133392e3332382038322e38363839203133392e3332322038312e33363431433133392e33322038312e303737203133392e3331362038302e373835203133392e3331312038302e34383932433133392e3236342037372e34323431203133392e32312037332e39353432203134322e3832342037312e33343931433134342e3832312036392e39303938203134372e3935362036382e37323137203135322e38382036382e30343434433135372e3830312036372e33363734203136342e3439312036372e32303332203137332e3537392036372e373936375a272066696c6c3d27626c61636b27207374726f6b653d27626c61636b27207374726f6b652d77696474683d27302e35272f3e3c646566733e3c66696c7465722069643d2766696c746572305f642720783d273131342e3334322720793d273231322e3534272077696474683d2731382e36353827206865696768743d2731372e38323837272066696c746572556e6974733d277573657253706163654f6e5573652720636f6c6f722d696e746572706f6c6174696f6e2d66696c746572733d2773524742273e3c6665466c6f6f6420666c6f6f642d6f7061636974793d27302720726573756c743d274261636b67726f756e64496d616765466978272f3e3c6665436f6c6f724d617472697820696e3d27536f75726365416c7068612720747970653d276d6174726978272076616c7565733d2730203020302030203020302030203020302030203020302030203020302030203020302031323720302720726573756c743d2768617264416c706861272f3e3c66654f66667365742064793d2734272f3e3c6665476175737369616e426c757220737464446576696174696f6e3d2732272f3e3c6665436f6d706f7369746520696e323d2768617264416c70686127206f70657261746f723d276f7574272f3e3c6665436f6c6f724d617472697820747970653d276d6174726978272076616c7565733d27302030203020302030203020302030203020302030203020302030203020302030203020302e32352030272f3e3c6665426c656e64206d6f64653d276e6f726d616c2720696e323d274261636b67726f756e64496d6167654669782720726573756c743d27656666656374315f64726f70536861646f77272f3e3c6665426c656e64206d6f64653d276e6f726d616c2720696e3d27536f75726365477261706869632720696e323d27656666656374315f64726f70536861646f772720726573756c743d277368617065272f3e3c2f66696c7465723e3c7376672077696474683d2733353027206865696768743d27333530272076696577426f783d273020302033353020333530272066696c6c3d276e6f6e652720786d6c6e733d27687474703a2f2f7777772e77332e6f72672f323030302f7376672720786d6c6e733a786c696e6b3d27687474703a2f2f7777772e77332e6f72672f313939392f786c696e6b273e3c6720636c69702d706174683d2775726c2823636c69703029273e3c726563742077696474683d2733353027206865696768743d27333530272066696c6c3d273c7061747465726e2069643d277061747465726e3027207061747465726e436f6e74656e74556e6974733d276f626a656374426f756e64696e67426f78272077696474683d273127206865696768743d2731273e3c75736520786c696e6b3a687265663d2723696d6167653027207472616e73666f726d3d277363616c6528302e303036343933353120302e303229272f3e3c2f7061747465726e3e3c696d6167652069643d27696d61676530272077696474683d2731353427206865696768743d2735302720786c696e6b3a687265663d27646174613a696d6167652f706e673b6261736536342c6956424f5277304b47676f414141414e5355684555674141414a6f414141417941514d4141414365666c445841414141426c424d5645582f2f2f38414141425677744e2b414141414358424957584d41414137454141414f784147564b77346241414141586b6c45515651346a5750346a776b4f4d445177594143486f535049754d517354576d6a744a475033386d62702f572b5752305946615354494e56694d774244304c36474966447838515a55515a34306874396d4f5165494577777565344e4635665a30624e6f5473476a484d424f726b306a79356d4152784659494141443033756f39796e3233466741414141424a52553545726b4a6767673d3d272f3e3c7061747465726e2069643d277061747465726e3027207061747465726e436f6e74656e74556e6974733d276f626a656374426f756e64696e67426f78272077696474683d273127206865696768743d2731273e3c75736520786c696e6b3a687265663d2723696d6167653027207472616e73666f726d3d277363616c6528302e303036343933353120302e303229272f3e3c2f7061747465726e3e3c696d6167652069643d27696d61676530272077696474683d2731353427206865696768743d2735302720786c696e6b3a687265663d27646174613a696d6167652f706e673b6261736536342c6956424f5277304b47676f414141414e5355684555674141414a6f414141417941514d4141414365666c445841414141426c424d5645582f2f2f38414141425677744e2b414141414358424957584d41414137454141414f784147564b7734624141414159556c45515651346a5750346a776b4f4d445177594143486f535049754d517354576d6a744a475033386d626b336463737a6f774b6b676e516172465a6743476f48304e512b446a4177645142586e53474836624a574954544d595544433537686b586c3968787332764f786144644c514250453669535376446c59424c455641674139322b34686c646277697741414141424a52553545726b4a6767673d3d272f3e3c7061747465726e2069643d277061747465726e3027207061747465726e436f6e74656e74556e6974733d276f626a656374426f756e64696e67426f78272077696474683d273127206865696768743d2731273e3c75736520786c696e6b3a687265663d2723696d6167653027207472616e73666f726d3d277363616c6528302e303036343933353120302e303229272f3e3c2f7061747465726e3e3c696d6167652069643d27696d61676530272077696474683d2731353427206865696768743d2735302720786c696e6b3a687265663d27646174613a696d6167652f706e673b6261736536342c6956424f5277304b47676f414141414e5355684555674141414a6f414141417941514d4141414365666c445841414141426c424d5645582f2f2f38414141425677744e2b414141414358424957584d41414137454141414f784147564b7734624141414157556c45515651346a5750346a776b4f4d445177594143486f535049754d517354576d6a744a475033386d626c3232335752305946615354494e56694d774244304c36474966447838515a55515a34306874396d4f51654945777775653435462b33616974574d49596e5553536434634c494c5943674541636f506e4a336a4c71656f41414141415355564f524b35435949493d272f3e3c7061747465726e2069643d277061747465726e3027207061747465726e436f6e74656e74556e6974733d276f626a656374426f756e64696e67426f78272077696474683d273127206865696768743d2731273e3c75736520786c696e6b3a687265663d2723696d6167653027207472616e73666f726d3d277363616c6528302e303036343933353120302e303229272f3e3c2f7061747465726e3e3c696d6167652069643d27696d61676530272077696474683d2731353427206865696768743d2735302720786c696e6b3a687265663d27646174613a696d6167652f706e673b6261736536342c6956424f5277304b47676f414141414e5355684555674141414a6f414141417941514d4141414365666c445841414141426c424d5645582f2f2f38414141425677742b414141414358424957584d41414137454141414f784147564b7734624141414158306c45515651346a5750346a776b4f4d445177594143486f535049754d517354576d6a744a475033386d626377326d5752305946615354494e56694d774244304c36474966447838515a55515a34306874396d4f51657743544a67434161587663656966547432375a694377526943574a31456b6a6348697943325167414139455066655563694f646341414141415355564f524b35435949493d272f3e3c7061747465726e2069643d277061747465726e3027207061747465726e436f6e74656e74556e6974733d276f626a656374426f756e64696e67426f78272077696474683d273127206865696768743d2731273e3c75736520786c696e6b3a687265663d2723696d6167653027207472616e73666f726d3d277363616c6528302e303036343933353120302e303229272f3e3c2f7061747465726e3e3c696d6167652069643d27696d61676530272077696474683d2731353427206865696768743d2735302720786c696e6b3a687265663d27646174613a696d6167652f706e673b6261736536342c6956424f5277304b47676f414141414e5355684555674141414a6f414141417941514d4141414365666c445841414141426c424d5645582f2f2f38414141425677744e2b414141414358424957584d41414137454141414f784147564b77346241414141596b6c45515651346a5750346a776b4f4d445177594143486f535049754d517354576d6a744a475033386d62633961555752305946615354494e56694d774244304c36474966447838515a55515a34306874396d4f516549457777756534424635665a6b6247616d4d5742714e3876423571547a61476153354d3342496f6974454141417666506c5355595356675941414141415355564f524b35435949493d272f3e3c7061746820643d274d3231352e303634203236342e343739433232322e313839203237302e313036203232382e343533203237352e343335203233322e383139203237392e353032433233352e303032203238312e353336203233362e373039203238332e323532203233372e383131203238342e353331433233382e333633203238352e313731203233382e373539203238352e363936203233382e393839203238362e303935433233392e313034203238362e323935203233392e313733203238362e343536203233392e323031203238362e353739433233392e3233203238362e373034203233392e323131203238362e373635203233392e313838203238362e373934433233392e313635203238362e383233203233392e3131203238362e383536203233382e393831203238362e383537433233382e383535203238362e383538203233382e363832203238362e383238203233382e343631203238362e373633433233382e303231203238362e363332203233372e343137203238362e333638203233362e363637203238352e3938433233352e313637203238352e323034203233332e313032203238332e393432203233302e363138203238322e3239433232352e363439203237382e393835203231392e303133203237342e313238203231312e383838203236382e353032433230342e373632203236322e383735203139382e343939203235372e353436203139342e313333203235332e343739433139312e393439203235312e343435203139302e323433203234392e373239203138392e3134203234382e3435433138382e353838203234372e3831203138382e313932203234372e323835203138372e393633203234362e383836433138372e383438203234362e363836203138372e373739203234362e353235203138372e3735203234362e343032433138372e373232203234362e323737203138372e373431203234362e323136203138372e373634203234362e313837433138372e373837203234362e313538203138372e383432203234362e313235203138372e3937203234362e313234433138382e303937203234362e313233203138382e323639203234362e313533203138382e3439203234362e323138433138382e393331203234362e333439203138392e353334203234362e363133203139302e323835203234372e303031433139312e373834203234372e373737203139332e383439203234392e303339203139362e333334203235302e363931433230312e333032203235332e393936203230372e393338203235382e383533203231352e303634203236342e3437395a272066696c6c3d27776869746527207374726f6b653d27626c61636b27207374726f6b652d77696474683d27302e3235272f3e3c7061746820643d274d323335203238352e333737433233362e343335203238352e303534203233362e323136203238342e363339203233372e303536203238352e353732433233372e343037203238352e393632203233372e363838203238362e333737203233382e3235203238362e33373727207374726f6b653d27626c61636b27207374726f6b652d77696474683d273327207374726f6b652d6c696e656361703d27726f756e64272f3e3c6c696e652078313d273135372e393036272079313d273331312e303031272078323d273138392e383931272079323d273331302e30303127207374726f6b653d272338463845384527207374726f6b652d77696474683d2736272f3e3c6c696e652078313d273135372e393036272079313d273331372e303031272078323d273138392e383931272079323d273331362e30303127207374726f6b653d272338463845384527207374726f6b652d77696474683d2736272f3e3c7061746820643d274d3330392e3520313636433330392e35203234352e383339203234392e323439203331302e3520313735203331302e35433130302e373531203331302e352034302e35203234352e3833392034302e35203136364334302e352038362e31363036203130302e3735312032312e35203137352032312e35433234392e3234392032312e35203330392e352038362e31363036203330392e35203136365a272066696c6c3d2723433443344334272066696c6c2d6f7061636974793d27302e333427207374726f6b653d27626c61636b272f3e273c656c6c697073652063783d273137312e35272063793d2733362e35272072783d27392e35272072793d27312e35272066696c6c3d27626c61636b272f3e273c7061746820643d274d37312e36343533203136342e3434314c37312e36343335203136342e3433344c37312e36343132203136342e3432364336352e37353136203134352e3334342036362e31323733203132392e3035352037302e37343138203131352e3335334337352e33353638203130312e36352038342e323138312039302e353136342039352e333330382038312e37353839433131372e3536332036342e32333834203134382e3738332035362e3235203137322e3930322035362e3235433139372e3033392035362e3235203232362e372036312e33373132203234382e3735392037372e343532433237302e3739332039332e35313534203238352e323739203132302e353431203237392e303435203136342e343533433237332e333035203138382e333936203235332e323132203232312e3233203233312e323938203234382e303932433232302e333433203236312e353231203230382e393433203237332e343436203139382e3637203238322e303131433139332e353333203238362e323934203138382e363833203238392e373332203138342e333136203239322e303939433137392e393434203239342e343637203137362e303737203239352e3735203137322e393032203239352e3735433136342e353932203239352e3735203135342e383234203239302e353531203134342e363432203238312e393432433133342e343639203237332e333432203132332e393233203236312e333734203131342e303632203234372e3931354339342e33333735203232302e3939332037372e33383439203138382e3134382037312e36343533203136342e3434315a27207374726f6b653d27626c61636b27207374726f6b652d77696474683d27302e35272066696c6c3d273c7061747465726e2069643d277061747465726e3027207061747465726e436f6e74656e74556e6974733d276f626a656374426f756e64696e67426f78272077696474683d273127206865696768743d2731273e3c75736520786c696e6b3a687265663d2723696d6167653027207472616e73666f726d3d277363616c6528302e303036343933353120302e303229272f3e3c2f7061747465726e3e3c696d6167652069643d27696d61676530272077696474683d2731353427206865696768743d2735302720786c696e6b3a687265663d27646174613a696d6167652f706e673b6261736536342c6956424f5277304b47676f414141414e5355684555674141414a6f414141417941514d4141414365666c445841414141426c424d5645582f2f2f38414141425677744e2b414141414358424957584d41414137454141414f784147564b77346241414141586b6c45515651346a5750346a776b4f4d445177594143486f535049754d517354576d6a744a475033386d62303833647241364d43744a4a6b4771784759416861462f4445506a3465414f714945386177322b7a6e414e5942424d774259504c6e6d50527668324c53757a614d537a433669535376446c59424c4556416743776c64702f6f4d7938614141414141424a52553545726b4a6767673d3d272f3e3c7061747465726e2069643d277061747465726e3027207061747465726e436f6e74656e74556e6974733d276f626a656374426f756e64696e67426f78272077696474683d273127206865696768743d2731273e3c75736520786c696e6b3a687265663d2723696d6167653027207472616e73666f726d3d277363616c6528302e303039383033393220302e303229272f3e3c2f7061747465726e3e3c696d6167652069643d27696d61676530272077696474683d2731303227206865696768743d2735302720786c696e6b3a687265663d27646174613a696d6167652f706e673b6261736536342c6956424f5277304b47676f414141414e5355684555674141414759414141417941514d4141414355446a7a4141414141426c424d5645582f2f2f38414141425677744e2b414141414358424957584d41414137454141414f784147564b7734624141414153556c455156516f6b5750346a77542b4d4451774941414c2f586c53546a352b4a3239613678327a4f6a4469654353475751414b4c2f4478385159453737645a7a674663764f437974386879322f4e77713054686f6470416355795479554e4a725143476d4a75624e7262726b6741414141424a52553545726b4a6767673d3d272f3e3c7061746820643d274d3138362e393739203236312e3938334c3138362e393735203236322e303138563236322e303533433138362e393735203237312e323635203138312e323333203237382e35203137342e343034203237382e35433136372e353734203237382e35203136312e383333203237312e323635203136312e383333203236322e303533563236322e3032364c3136312e383320323632433136312e333137203235372e3136203136312e3433203235332e373331203136312e393737203235312e333036433136322e353232203234382e383933203136332e343839203234372e353037203136342e363731203234362e363934433136352e383637203234352e383732203136372e333535203234352e353834203136392e303436203234352e353137433136392e383838203234352e343833203137302e373636203234352e353035203137312e363638203234352e353335433137312e383234203234352e353431203137312e393831203234352e353436203137322e313339203234352e353532433137322e383837203234352e353739203137332e363439203234352e363036203137342e343034203234352e363036433137352e313533203234352e363036203137352e393138203234352e353739203137362e363733203234352e353533433137362e383338203234352e353437203137372e303033203234352e353431203137372e313637203234352e353336433137382e303837203234352e353035203137382e393839203234352e343833203137392e383539203234352e353137433138312e363036203234352e353834203138332e313631203234352e383733203138342e343031203234362e363939433138352e363233203234372e353132203138362e363037203234382e383935203138372e313139203235312e33433138372e363334203235332e373139203138372e363634203235372e313434203138362e393739203236312e3938335a272066696c6c3d272346354230453427207374726f6b653d27626c61636b272f3e",
    "linkReferences": {},
    "deployedLinkReferences": {}
}