{
  "_format": "hh-sol-artifact-1",
  "contractName": "MyEpicNFT",
  "sourceName": "contracts/MyEpicNFT.sol",
  "abi": [
    {
      "inputs": [],
      "stateMutability": "nonpayable",
      "type": "constructor"
    },
    {
      "anonymous": false,
      "inputs": [
        {
          "indexed": true,
          "internalType": "address",
          "name": "owner",
          "type": "address"
        },
        {
          "indexed": true,
          "internalType": "address",
          "name": "approved",
          "type": "address"
        },
        {
          "indexed": true,
          "internalType": "uint256",
          "name": "tokenId",
          "type": "uint256"
        }
      ],
      "name": "Approval",
      "type": "event"
    },
    {
      "anonymous": false,
      "inputs": [
        {
          "indexed": true,
          "internalType": "address",
          "name": "owner",
          "type": "address"
        },
        {
          "indexed": true,
          "internalType": "address",
          "name": "operator",
          "type": "address"
        },
        {
          "indexed": false,
          "internalType": "bool",
          "name": "approved",
          "type": "bool"
        }
      ],
      "name": "ApprovalForAll",
      "type": "event"
    },
    {
      "anonymous": false,
      "inputs": [
        {
          "indexed": false,
          "internalType": "address",
          "name": "sender",
          "type": "address"
        },
        {
          "indexed": false,
          "internalType": "uint256",
          "name": "tokenId",
          "type": "uint256"
        }
      ],
      "name": "NewEpicNFTMinted",
      "type": "event"
    },
    {
      "anonymous": false,
      "inputs": [
        {
          "indexed": true,
          "internalType": "address",
          "name": "from",
          "type": "address"
        },
        {
          "indexed": true,
          "internalType": "address",
          "name": "to",
          "type": "address"
        },
        {
          "indexed": true,
          "internalType": "uint256",
          "name": "tokenId",
          "type": "uint256"
        }
      ],
      "name": "Transfer",
      "type": "event"
    },
    {
      "anonymous": false,
      "inputs": [
        {
          "indexed": false,
          "internalType": "address",
          "name": "sender",
          "type": "address"
        },
        {
          "indexed": false,
          "internalType": "uint256",
          "name": "tokenId",
          "type": "uint256"
        }
      ],
      "name": "getTotalNFTsMintedSoFar",
      "type": "event"
    },
    {
      "inputs": [
        {
          "internalType": "address",
          "name": "to",
          "type": "address"
        },
        {
          "internalType": "uint256",
          "name": "tokenId",
          "type": "uint256"
        }
      ],
      "name": "approve",
      "outputs": [],
      "stateMutability": "nonpayable",
      "type": "function"
    },
    {
      "inputs": [
        {
          "internalType": "address",
          "name": "owner",
          "type": "address"
        }
      ],
      "name": "balanceOf",
      "outputs": [
        {
          "internalType": "uint256",
          "name": "",
          "type": "uint256"
        }
      ],
      "stateMutability": "view",
      "type": "function"
    },
    {
      "inputs": [
        {
          "internalType": "uint256",
          "name": "tokenId",
          "type": "uint256"
        }
      ],
      "name": "getApproved",
      "outputs": [
        {
          "internalType": "address",
          "name": "",
          "type": "address"
        }
      ],
      "stateMutability": "view",
      "type": "function"
    },
    {
      "inputs": [
        {
          "internalType": "address",
          "name": "owner",
          "type": "address"
        },
        {
          "internalType": "address",
          "name": "operator",
          "type": "address"
        }
      ],
      "name": "isApprovedForAll",
      "outputs": [
        {
          "internalType": "bool",
          "name": "",
          "type": "bool"
        }
      ],
      "stateMutability": "view",
      "type": "function"
    },
    {
      "inputs": [],
      "name": "makeAnEpicNFT",
      "outputs": [],
      "stateMutability": "nonpayable",
      "type": "function"
    },
    {
      "inputs": [],
      "name": "name",
      "outputs": [
        {
          "internalType": "string",
          "name": "",
          "type": "string"
        }
      ],
      "stateMutability": "view",
      "type": "function"
    },
    {
      "inputs": [
        {
          "internalType": "uint256",
          "name": "tokenId",
          "type": "uint256"
        }
      ],
      "name": "ownerOf",
      "outputs": [
        {
          "internalType": "address",
          "name": "",
          "type": "address"
        }
      ],
      "stateMutability": "view",
      "type": "function"
    },
    {
      "inputs": [
        {
          "internalType": "uint256",
          "name": "tokenId",
          "type": "uint256"
        }
      ],
      "name": "pickRandomColor",
      "outputs": [
        {
          "internalType": "string",
          "name": "",
          "type": "string"
        }
      ],
      "stateMutability": "view",
      "type": "function"
    },
    {
      "inputs": [
        {
          "internalType": "uint256",
          "name": "tokenId",
          "type": "uint256"
        }
      ],
      "name": "pickRandomColorTypo",
      "outputs": [
        {
          "internalType": "string",
          "name": "",
          "type": "string"
        }
      ],
      "stateMutability": "view",
      "type": "function"
    },
    {
      "inputs": [
        {
          "internalType": "uint256",
          "name": "tokenId",
          "type": "uint256"
        }
      ],
      "name": "pickRandomFirstWord",
      "outputs": [
        {
          "internalType": "string",
          "name": "",
          "type": "string"
        }
      ],
      "stateMutability": "view",
      "type": "function"
    },
    {
      "inputs": [
        {
          "internalType": "uint256",
          "name": "tokenId",
          "type": "uint256"
        }
      ],
      "name": "pickRandomSecondWord",
      "outputs": [
        {
          "internalType": "string",
          "name": "",
          "type": "string"
        }
      ],
      "stateMutability": "view",
      "type": "function"
    },
    {
      "inputs": [
        {
          "internalType": "uint256",
          "name": "tokenId",
          "type": "uint256"
        }
      ],
      "name": "pickRandomThirdWord",
      "outputs": [
        {
          "internalType": "string",
          "name": "",
          "type": "string"
        }
      ],
      "stateMutability": "view",
      "type": "function"
    },
    {
      "inputs": [
        {
          "internalType": "address",
          "name": "from",
          "type": "address"
        },
        {
          "internalType": "address",
          "name": "to",
          "type": "address"
        },
        {
          "internalType": "uint256",
          "name": "tokenId",
          "type": "uint256"
        }
      ],
      "name": "safeTransferFrom",
      "outputs": [],
      "stateMutability": "nonpayable",
      "type": "function"
    },
    {
      "inputs": [
        {
          "internalType": "address",
          "name": "from",
          "type": "address"
        },
        {
          "internalType": "address",
          "name": "to",
          "type": "address"
        },
        {
          "internalType": "uint256",
          "name": "tokenId",
          "type": "uint256"
        },
        {
          "internalType": "bytes",
          "name": "_data",
          "type": "bytes"
        }
      ],
      "name": "safeTransferFrom",
      "outputs": [],
      "stateMutability": "nonpayable",
      "type": "function"
    },
    {
      "inputs": [
        {
          "internalType": "address",
          "name": "operator",
          "type": "address"
        },
        {
          "internalType": "bool",
          "name": "approved",
          "type": "bool"
        }
      ],
      "name": "setApprovalForAll",
      "outputs": [],
      "stateMutability": "nonpayable",
      "type": "function"
    },
    {
      "inputs": [
        {
          "internalType": "bytes4",
          "name": "interfaceId",
          "type": "bytes4"
        }
      ],
      "name": "supportsInterface",
      "outputs": [
        {
          "internalType": "bool",
          "name": "",
          "type": "bool"
        }
      ],
      "stateMutability": "view",
      "type": "function"
    },
    {
      "inputs": [],
      "name": "symbol",
      "outputs": [
        {
          "internalType": "string",
          "name": "",
          "type": "string"
        }
      ],
      "stateMutability": "view",
      "type": "function"
    },
    {
      "inputs": [
        {
          "internalType": "uint256",
          "name": "tokenId",
          "type": "uint256"
        }
      ],
      "name": "tokenURI",
      "outputs": [
        {
          "internalType": "string",
          "name": "",
          "type": "string"
        }
      ],
      "stateMutability": "view",
      "type": "function"
    },
    {
      "inputs": [
        {
          "internalType": "address",
          "name": "from",
          "type": "address"
        },
        {
          "internalType": "address",
          "name": "to",
          "type": "address"
        },
        {
          "internalType": "uint256",
          "name": "tokenId",
          "type": "uint256"
        }
      ],
      "name": "transferFrom",
      "outputs": [],
      "stateMutability": "nonpayable",
      "type": "function"
    }
  ],
  "bytecode": "0x60806040526040518060a001604052806040518060400160405280600581526020017f285f7c5f2900000000000000000000000000000000000000000000000000000081525081526020016040518060400160405280600581526020017f282b5f2b2900000000000000000000000000000000000000000000000000000081525081526020016040518060400160405280600781526020017f3c285e5f5e293e0000000000000000000000000000000000000000000000000081525081526020016040518060400160405280600781526020017f2d282d5f2d292d0000000000000000000000000000000000000000000000000081525081526020016040518060400160405280600381526020017f284f290000000000000000000000000000000000000000000000000000000000815250815250600890600562000146929190620008ef565b506040518060c001604052806040518060400160405280600a81526020017f6f3d3d7c3d3d3d3d3d2d0000000000000000000000000000000000000000000081525081526020016040518060400160405280600181526020017f610000000000000000000000000000000000000000000000000000000000000081525081526020016040518060400160405280600181526020017f620000000000000000000000000000000000000000000000000000000000000081525081526020016040518060400160405280600181526020017f630000000000000000000000000000000000000000000000000000000000000081525081526020016040518060400160405280600181526020017f640000000000000000000000000000000000000000000000000000000000000081525081526020016040518060400160405280600181526020017f65000000000000000000000000000000000000000000000000000000000000008152508152506009906006620002c492919062000956565b506040518060c001604052806040518060400160405280600181526020017f310000000000000000000000000000000000000000000000000000000000000081525081526020016040518060400160405280600181526020017f320000000000000000000000000000000000000000000000000000000000000081525081526020016040518060400160405280600181526020017f330000000000000000000000000000000000000000000000000000000000000081525081526020016040518060400160405280600181526020017f340000000000000000000000000000000000000000000000000000000000000081525081526020016040518060400160405280600181526020017f350000000000000000000000000000000000000000000000000000000000000081525081526020016040518060400160405280600581526020017f282d5f2d29000000000000000000000000000000000000000000000000000000815250815250600a9060066200044292919062000956565b5060405180606001604052806040518060400160405280600381526020017f726564000000000000000000000000000000000000000000000000000000000081525081526020016040518060400160405280600481526020017f70696e6b0000000000000000000000000000000000000000000000000000000081525081526020016040518060400160405280600581526020017f626c61636b000000000000000000000000000000000000000000000000000000815250815250600b9060036200050f929190620009bd565b506040518060c001604052806040518060400160405280600381526020017f726564000000000000000000000000000000000000000000000000000000000081525081526020016040518060400160405280600481526020017f70696e6b0000000000000000000000000000000000000000000000000000000081525081526020016040518060400160405280600481526020017f626c75650000000000000000000000000000000000000000000000000000000081525081526020016040518060400160405280600681526020017f79656c6c6f77000000000000000000000000000000000000000000000000000081525081526020016040518060400160405280600681526020017f6f72616e6765000000000000000000000000000000000000000000000000000081525081526020016040518060400160405280600581526020017f626c61636b000000000000000000000000000000000000000000000000000000815250815250600c9060066200068d92919062000956565b506040518060a001604052806077815260200162004a9560779139600d9080519060200190620006bf92919062000a24565b5060405180608001604052806058815260200162004a3d60589139600e9080519060200190620006f192919062000a24565b5060405180608001604052806058815260200162004b0c60589139600f90805190602001906200072392919062000a24565b503480156200073157600080fd5b506040518060400160405280600981526020017f5371756172654e465400000000000000000000000000000000000000000000008152506040518060400160405280600681526020017f53515541524500000000000000000000000000000000000000000000000000008152508160009080519060200190620007b692919062000a24565b508060019080519060200190620007cf92919062000a24565b5050506200081d6040518060400160405280601e81526020017f54686973206973206d79204e465420636f6e74726163742e20576f61682100008152506200082360201b620014321760201c565b62000c6f565b620008c3816040516024016200083a919062000b83565b6040516020818303038152906040527f41304fac000000000000000000000000000000000000000000000000000000007bffffffffffffffffffffffffffffffffffffffffffffffffffffffff19166020820180517bffffffffffffffffffffffffffffffffffffffffffffffffffffffff8381831617835250505050620008c660201b60201c565b50565b60008151905060006a636f6e736f6c652e6c6f679050602083016000808483855afa5050505050565b82805482825590600052602060002090810192821562000943579160200282015b82811115620009425782518290805190602001906200093192919062000a24565b509160200191906001019062000910565b5b50905062000952919062000ab5565b5090565b828054828255906000526020600020908101928215620009aa579160200282015b82811115620009a95782518290805190602001906200099892919062000a24565b509160200191906001019062000977565b5b509050620009b9919062000ab5565b5090565b82805482825590600052602060002090810192821562000a11579160200282015b8281111562000a10578251829080519060200190620009ff92919062000a24565b5091602001919060010190620009de565b5b50905062000a20919062000ab5565b5090565b82805462000a329062000bf9565b90600052602060002090601f01602090048101928262000a56576000855562000aa2565b82601f1062000a7157805160ff191683800117855562000aa2565b8280016001018555821562000aa2579182015b8281111562000aa157825182559160200191906001019062000a84565b5b50905062000ab1919062000add565b5090565b5b8082111562000ad9576000818162000acf919062000afc565b5060010162000ab6565b5090565b5b8082111562000af857600081600090555060010162000ade565b5090565b50805462000b0a9062000bf9565b6000825580601f1062000b1e575062000b3f565b601f01602090049060005260206000209081019062000b3e919062000add565b5b50565b600062000b4f8262000ba7565b62000b5b818562000bb2565b935062000b6d81856020860162000bc3565b62000b788162000c5e565b840191505092915050565b6000602082019050818103600083015262000b9f818462000b42565b905092915050565b600081519050919050565b600082825260208201905092915050565b60005b8381101562000be357808201518184015260208101905062000bc6565b8381111562000bf3576000848401525b50505050565b6000600282049050600182168062000c1257607f821691505b6020821081141562000c295762000c2862000c2f565b5b50919050565b7f4e487b7100000000000000000000000000000000000000000000000000000000600052602260045260246000fd5b6000601f19601f8301169050919050565b613dbe8062000c7f6000396000f3fe608060405234801561001057600080fd5b50600436106101215760003560e01c806370a08231116100ad578063c575757a11610071578063c575757a1461033e578063c87b56dd1461036e578063de9d132f1461039e578063e985e9c5146103a8578063f99001d3146103d857610121565b806370a082311461028857806395d89b41146102b8578063a22cb465146102d6578063b187301f146102f2578063b88d4fde1461032257610121565b806323b872dd116100f457806323b872dd146101c05780632de38d68146101dc57806342842e0e1461020c578063514dc8c6146102285780636352211e1461025857610121565b806301ffc9a71461012657806306fdde0314610156578063081812fc14610174578063095ea7b3146101a4575b600080fd5b610140600480360381019061013b9190612832565b610408565b60405161014d9190613614565b60405180910390f35b61015e6104ea565b60405161016b919061362f565b60405180910390f35b61018e60048036038101906101899190612884565b61057c565b60405161019b9190613584565b60405180910390f35b6101be60048036038101906101b991906127f6565b610601565b005b6101da60048036038101906101d591906126f0565b610719565b005b6101f660048036038101906101f19190612884565b610779565b604051610203919061362f565b60405180910390f35b610226600480360381019061022191906126f0565b610897565b005b610242600480360381019061023d9190612884565b6108b7565b60405161024f919061362f565b60405180910390f35b610272600480360381019061026d9190612884565b6109d5565b60405161027f9190613584565b60405180910390f35b6102a2600480360381019061029d919061268b565b610a87565b6040516102af91906138af565b60405180910390f35b6102c0610b3f565b6040516102cd919061362f565b60405180910390f35b6102f060048036038101906102eb91906127ba565b610bd1565b005b61030c60048036038101906103079190612884565b610be7565b604051610319919061362f565b60405180910390f35b61033c6004803603810190610337919061273f565b610d05565b005b61035860048036038101906103539190612884565b610d67565b604051610365919061362f565b60405180910390f35b61038860048036038101906103839190612884565b610e85565b604051610395919061362f565b60405180910390f35b6103a6610fd7565b005b6103c260048036038101906103bd91906126b4565b611280565b6040516103cf9190613614565b60405180910390f35b6103f260048036038101906103ed9190612884565b611314565b6040516103ff919061362f565b60405180910390f35b60007f80ac58cd000000000000000000000000000000000000000000000000000000007bffffffffffffffffffffffffffffffffffffffffffffffffffffffff1916827bffffffffffffffffffffffffffffffffffffffffffffffffffffffff191614806104d357507f5b5e139f000000000000000000000000000000000000000000000000000000007bffffffffffffffffffffffffffffffffffffffffffffffffffffffff1916827bffffffffffffffffffffffffffffffffffffffffffffffffffffffff1916145b806104e357506104e2826114cb565b5b9050919050565b6060600080546104f990613b4e565b80601f016020809104026020016040519081016040528092919081815260200182805461052590613b4e565b80156105725780601f1061054757610100808354040283529160200191610572565b820191906000526020600020905b81548152906001019060200180831161055557829003601f168201915b5050505050905090565b600061058782611535565b6105c6576040517f08c379a00000000000000000000000000000000000000000000000000000000081526004016105bd9061380f565b60405180910390fd5b6004600083815260200190815260200160002060009054906101000a900473ffffffffffffffffffffffffffffffffffffffff169050919050565b600061060c826109d5565b90508073ffffffffffffffffffffffffffffffffffffffff168373ffffffffffffffffffffffffffffffffffffffff16141561067d576040517f08c379a00000000000000000000000000000000000000000000000000000000081526004016106749061386f565b60405180910390fd5b8073ffffffffffffffffffffffffffffffffffffffff1661069c6115a1565b73ffffffffffffffffffffffffffffffffffffffff1614806106cb57506106ca816106c56115a1565b611280565b5b61070a576040517f08c379a00000000000000000000000000000000000000000000000000000000081526004016107019061374f565b60405180910390fd5b61071483836115a9565b505050565b61072a6107246115a1565b82611662565b610769576040517f08c379a00000000000000000000000000000000000000000000000000000000081526004016107609061388f565b60405180910390fd5b610774838383611740565b505050565b606060006107ad6107898461199c565b604051602001610799919061351e565b604051602081830303815290604052611b49565b9050600880549050816107c09190613bc9565b9050600881815481106107fc577f4e487b7100000000000000000000000000000000000000000000000000000000600052603260045260246000fd5b90600052602060002001805461081190613b4e565b80601f016020809104026020016040519081016040528092919081815260200182805461083d90613b4e565b801561088a5780601f1061085f5761010080835404028352916020019161088a565b820191906000526020600020905b81548152906001019060200180831161086d57829003601f168201915b5050505050915050919050565b6108b283838360405180602001604052806000815250610d05565b505050565b606060006108eb6108c78461199c565b6040516020016108d79190613562565b604051602081830303815290604052611b49565b9050600b80549050816108fe9190613bc9565b9050600b818154811061093a577f4e487b7100000000000000000000000000000000000000000000000000000000600052603260045260246000fd5b90600052602060002001805461094f90613b4e565b80601f016020809104026020016040519081016040528092919081815260200182805461097b90613b4e565b80156109c85780601f1061099d576101008083540402835291602001916109c8565b820191906000526020600020905b8154815290600101906020018083116109ab57829003601f168201915b5050505050915050919050565b6000806002600084815260200190815260200160002060009054906101000a900473ffffffffffffffffffffffffffffffffffffffff169050600073ffffffffffffffffffffffffffffffffffffffff168173ffffffffffffffffffffffffffffffffffffffff161415610a7e576040517f08c379a0000000000000000000000000000000000000000000000000000000008152600401610a759061378f565b60405180910390fd5b80915050919050565b60008073ffffffffffffffffffffffffffffffffffffffff168273ffffffffffffffffffffffffffffffffffffffff161415610af8576040517f08c379a0000000000000000000000000000000000000000000000000000000008152600401610aef9061376f565b60405180910390fd5b600360008373ffffffffffffffffffffffffffffffffffffffff1673ffffffffffffffffffffffffffffffffffffffff168152602001908152602001600020549050919050565b606060018054610b4e90613b4e565b80601f0160208091040260200160405190810160405280929190818152602001828054610b7a90613b4e565b8015610bc75780601f10610b9c57610100808354040283529160200191610bc7565b820191906000526020600020905b815481529060010190602001808311610baa57829003601f168201915b5050505050905090565b610be3610bdc6115a1565b8383611b7c565b5050565b60606000610c1b610bf78461199c565b604051602001610c0791906134b7565b604051602081830303815290604052611b49565b905060098054905081610c2e9190613bc9565b905060098181548110610c6a577f4e487b7100000000000000000000000000000000000000000000000000000000600052603260045260246000fd5b906000526020600020018054610c7f90613b4e565b80601f0160208091040260200160405190810160405280929190818152602001828054610cab90613b4e565b8015610cf85780601f10610ccd57610100808354040283529160200191610cf8565b820191906000526020600020905b815481529060010190602001808311610cdb57829003601f168201915b5050505050915050919050565b610d16610d106115a1565b83611662565b610d55576040517f08c379a0000000000000000000000000000000000000000000000000000000008152600401610d4c9061388f565b60405180910390fd5b610d6184848484611ce9565b50505050565b60606000610d9b610d778461199c565b604051602001610d879190613473565b604051602081830303815290604052611b49565b9050600a8054905081610dae9190613bc9565b9050600a8181548110610dea577f4e487b7100000000000000000000000000000000000000000000000000000000600052603260045260246000fd5b906000526020600020018054610dff90613b4e565b80601f0160208091040260200160405190810160405280929190818152602001828054610e2b90613b4e565b8015610e785780601f10610e4d57610100808354040283529160200191610e78565b820191906000526020600020905b815481529060010190602001808311610e5b57829003601f168201915b5050505050915050919050565b6060610e9082611535565b610ecf576040517f08c379a0000000000000000000000000000000000000000000000000000000008152600401610ec6906137ef565b60405180910390fd5b6000600660008481526020019081526020016000208054610eef90613b4e565b80601f0160208091040260200160405190810160405280929190818152602001828054610f1b90613b4e565b8015610f685780601f10610f3d57610100808354040283529160200191610f68565b820191906000526020600020905b815481529060010190602001808311610f4b57829003601f168201915b505050505090506000610f79611d45565b9050600081511415610f8f578192505050610fd2565b600082511115610fc4578082604051602001610fac929190613399565b60405160208183030381529060405292505050610fd2565b610fcd84611d5c565b925050505b919050565b6000610fe36007611e03565b90506032811115611029576040517f08c379a0000000000000000000000000000000000000000000000000000000008152600401611020906136cf565b60405180910390fd5b600061103482610779565b9050600061104183610be7565b9050600061104e84610d67565b9050600061105b856108b7565b9050600061106886611314565b90506000858585604051602001611081939291906133bd565b60405160208183030381529060405290506000600d83600e86600f866040516020016110b2969594939291906133ee565b604051602081830303815290604052905060006110f7836110d284611e11565b6040516020016110e39291906134d9565b604051602081830303815290604052611e11565b905060008160405160200161110c9190613540565b604051602081830303815290604052905061115b6040518060400160405280601581526020017f0a2d2d2d2d2d2d2d2d2d2d2d2d2d2d2d2d2d2d2d2d0000000000000000000000815250611432565b6111838160405160200161116f9190613451565b604051602081830303815290604052611432565b6111c16040518060400160405280601581526020017f2d2d2d2d2d2d2d2d2d2d2d2d2d2d2d2d2d2d2d2d0a0000000000000000000000815250611432565b6111cb338b611fcf565b6111d58a82611fed565b6111df6007612061565b611202604051806060016040528060258152602001613d24602591398b33612077565b7febb98688741ffa4c7589bf325de30cf7becb63de567842e1ccdb6cb949fdc82c338b6040516112339291906135eb565b60405180910390a17f9c68f06e7454c83f1c115b527b4bee89aea6a5acb87d660a4537c0622e8d1e5e338b60405161126c9291906135eb565b60405180910390a150505050505050505050565b6000600560008473ffffffffffffffffffffffffffffffffffffffff1673ffffffffffffffffffffffffffffffffffffffff16815260200190815260200160002060008373ffffffffffffffffffffffffffffffffffffffff1673ffffffffffffffffffffffffffffffffffffffff16815260200190815260200160002060009054906101000a900460ff16905092915050565b606060006113486113248461199c565b6040516020016113349190613495565b604051602081830303815290604052611b49565b9050600c805490508161135b9190613bc9565b9050600c8181548110611397577f4e487b7100000000000000000000000000000000000000000000000000000000600052603260045260246000fd5b9060005260206000200180546113ac90613b4e565b80601f01602080910402602001604051908101604052809291908181526020018280546113d890613b4e565b80156114255780601f106113fa57610100808354040283529160200191611425565b820191906000526020600020905b81548152906001019060200180831161140857829003601f168201915b5050505050915050919050565b6114c881604051602401611446919061362f565b6040516020818303038152906040527f41304fac000000000000000000000000000000000000000000000000000000007bffffffffffffffffffffffffffffffffffffffffffffffffffffffff19166020820180517bffffffffffffffffffffffffffffffffffffffffffffffffffffffff8381831617835250505050612116565b50565b60007f01ffc9a7000000000000000000000000000000000000000000000000000000007bffffffffffffffffffffffffffffffffffffffffffffffffffffffff1916827bffffffffffffffffffffffffffffffffffffffffffffffffffffffff1916149050919050565b60008073ffffffffffffffffffffffffffffffffffffffff166002600084815260200190815260200160002060009054906101000a900473ffffffffffffffffffffffffffffffffffffffff1673ffffffffffffffffffffffffffffffffffffffff1614159050919050565b600033905090565b816004600083815260200190815260200160002060006101000a81548173ffffffffffffffffffffffffffffffffffffffff021916908373ffffffffffffffffffffffffffffffffffffffff160217905550808273ffffffffffffffffffffffffffffffffffffffff1661161c836109d5565b73ffffffffffffffffffffffffffffffffffffffff167f8c5be1e5ebec7d5bd14f71427d1e84f3dd0314c0f7b2291e5b200ac8c7c3b92560405160405180910390a45050565b600061166d82611535565b6116ac576040517f08c379a00000000000000000000000000000000000000000000000000000000081526004016116a39061372f565b60405180910390fd5b60006116b7836109d5565b90508073ffffffffffffffffffffffffffffffffffffffff168473ffffffffffffffffffffffffffffffffffffffff16148061172657508373ffffffffffffffffffffffffffffffffffffffff1661170e8461057c565b73ffffffffffffffffffffffffffffffffffffffff16145b8061173757506117368185611280565b5b91505092915050565b8273ffffffffffffffffffffffffffffffffffffffff16611760826109d5565b73ffffffffffffffffffffffffffffffffffffffff16146117b6576040517f08c379a00000000000000000000000000000000000000000000000000000000081526004016117ad9061382f565b60405180910390fd5b600073ffffffffffffffffffffffffffffffffffffffff168273ffffffffffffffffffffffffffffffffffffffff161415611826576040517f08c379a000000000000000000000000000000000000000000000000000000000815260040161181d906136ef565b60405180910390fd5b61183183838361213f565b61183c6000826115a9565b6001600360008573ffffffffffffffffffffffffffffffffffffffff1673ffffffffffffffffffffffffffffffffffffffff168152602001908152602001600020600082825461188c9190613a64565b925050819055506001600360008473ffffffffffffffffffffffffffffffffffffffff1673ffffffffffffffffffffffffffffffffffffffff16815260200190815260200160002060008282546118e39190613983565b92505081905550816002600083815260200190815260200160002060006101000a81548173ffffffffffffffffffffffffffffffffffffffff021916908373ffffffffffffffffffffffffffffffffffffffff160217905550808273ffffffffffffffffffffffffffffffffffffffff168473ffffffffffffffffffffffffffffffffffffffff167fddf252ad1be2c89b69c2b068fc378daa952ba7f163c4a11628f55a4df523b3ef60405160405180910390a4505050565b606060008214156119e4576040518060400160405280600181526020017f30000000000000000000000000000000000000000000000000000000000000008152509050611b44565b600082905060005b60008214611a165780806119ff90613b80565b915050600a82611a0f91906139d9565b91506119ec565b60008167ffffffffffffffff811115611a58577f4e487b7100000000000000000000000000000000000000000000000000000000600052604160045260246000fd5b6040519080825280601f01601f191660200182016040528015611a8a5781602001600182028036833780820191505090505b5090505b60008514611b3d57600182611aa39190613a64565b9150600a85611ab29190613bc9565b6030611abe9190613983565b60f81b818381518110611afa577f4e487b7100000000000000000000000000000000000000000000000000000000600052603260045260246000fd5b60200101907effffffffffffffffffffffffffffffffffffffffffffffffffffffffffffff1916908160001a905350600a85611b3691906139d9565b9450611a8e565b8093505050505b919050565b600081604051602001611b5c9190613382565b6040516020818303038152906040528051906020012060001c9050919050565b8173ffffffffffffffffffffffffffffffffffffffff168373ffffffffffffffffffffffffffffffffffffffff161415611beb576040517f08c379a0000000000000000000000000000000000000000000000000000000008152600401611be29061370f565b60405180910390fd5b80600560008573ffffffffffffffffffffffffffffffffffffffff1673ffffffffffffffffffffffffffffffffffffffff16815260200190815260200160002060008473ffffffffffffffffffffffffffffffffffffffff1673ffffffffffffffffffffffffffffffffffffffff16815260200190815260200160002060006101000a81548160ff0219169083151502179055508173ffffffffffffffffffffffffffffffffffffffff168373ffffffffffffffffffffffffffffffffffffffff167f17307eab39ab6107e8899845ad3d59bd9653f200f220920489ca2b5937696c3183604051611cdc9190613614565b60405180910390a3505050565b611cf4848484611740565b611d0084848484612144565b611d3f576040517f08c379a0000000000000000000000000000000000000000000000000000000008152600401611d369061368f565b60405180910390fd5b50505050565b606060405180602001604052806000815250905090565b6060611d6782611535565b611da6576040517f08c379a0000000000000000000000000000000000000000000000000000000008152600401611d9d9061384f565b60405180910390fd5b6000611db0611d45565b90506000815111611dd05760405180602001604052806000815250611dfb565b80611dda8461199c565b604051602001611deb929190613399565b6040516020818303038152906040525b915050919050565b600081600001549050919050565b60606000825190506000811415611e3a5760405180602001604052806000815250915050611fca565b60006003600283611e4b9190613983565b611e5591906139d9565b6004611e619190613a0a565b90506000602082611e729190613983565b67ffffffffffffffff811115611eb1577f4e487b7100000000000000000000000000000000000000000000000000000000600052604160045260246000fd5b6040519080825280601f01601f191660200182016040528015611ee35781602001600182028036833780820191505090505b5090506000604051806060016040528060408152602001613d49604091399050600181016020830160005b86811015611f875760038101905062ffffff818a015116603f8160121c168401518060081b905060ff603f83600c1c1686015116810190508060081b905060ff603f8360061c1686015116810190508060081b905060ff603f831686015116810190508060e01b90508084526004840193505050611f0e565b506003860660018114611fa15760028114611fb157611fbc565b613d3d60f01b6002830352611fbc565b603d60f81b60018303525b508484525050819450505050505b919050565b611fe98282604051806020016040528060008152506122db565b5050565b611ff682611535565b612035576040517f08c379a000000000000000000000000000000000000000000000000000000000815260040161202c906137af565b60405180910390fd5b8060066000848152602001908152602001600020908051906020019061205c929190612517565b505050565b6001816000016000828254019250508190555050565b61211183838360405160240161208f93929190613651565b6040516020818303038152906040527fe3849f79000000000000000000000000000000000000000000000000000000007bffffffffffffffffffffffffffffffffffffffffffffffffffffffff19166020820180517bffffffffffffffffffffffffffffffffffffffffffffffffffffffff8381831617835250505050612116565b505050565b60008151905060006a636f6e736f6c652e6c6f679050602083016000808483855afa5050505050565b505050565b60006121658473ffffffffffffffffffffffffffffffffffffffff16612336565b156122ce578373ffffffffffffffffffffffffffffffffffffffff1663150b7a0261218e6115a1565b8786866040518563ffffffff1660e01b81526004016121b0949392919061359f565b602060405180830381600087803b1580156121ca57600080fd5b505af19250505080156121fb57506040513d601f19601f820116820180604052508101906121f8919061285b565b60015b61227e573d806000811461222b576040519150601f19603f3d011682016040523d82523d6000602084013e612230565b606091505b50600081511415612276576040517f08c379a000000000000000000000000000000000000000000000000000000000815260040161226d9061368f565b60405180910390fd5b805181602001fd5b63150b7a0260e01b7bffffffffffffffffffffffffffffffffffffffffffffffffffffffff1916817bffffffffffffffffffffffffffffffffffffffffffffffffffffffff1916149150506122d3565b600190505b949350505050565b6122e58383612349565b6122f26000848484612144565b612331576040517f08c379a00000000000000000000000000000000000000000000000000000000081526004016123289061368f565b60405180910390fd5b505050565b600080823b905060008111915050919050565b600073ffffffffffffffffffffffffffffffffffffffff168273ffffffffffffffffffffffffffffffffffffffff1614156123b9576040517f08c379a00000000000000000000000000000000000000000000000000000000081526004016123b0906137cf565b60405180910390fd5b6123c281611535565b15612402576040517f08c379a00000000000000000000000000000000000000000000000000000000081526004016123f9906136af565b60405180910390fd5b61240e6000838361213f565b6001600360008473ffffffffffffffffffffffffffffffffffffffff1673ffffffffffffffffffffffffffffffffffffffff168152602001908152602001600020600082825461245e9190613983565b92505081905550816002600083815260200190815260200160002060006101000a81548173ffffffffffffffffffffffffffffffffffffffff021916908373ffffffffffffffffffffffffffffffffffffffff160217905550808273ffffffffffffffffffffffffffffffffffffffff16600073ffffffffffffffffffffffffffffffffffffffff167fddf252ad1be2c89b69c2b068fc378daa952ba7f163c4a11628f55a4df523b3ef60405160405180910390a45050565b82805461252390613b4e565b90600052602060002090601f016020900481019282612545576000855561258c565b82601f1061255e57805160ff191683800117855561258c565b8280016001018555821561258c579182015b8281111561258b578251825591602001919060010190612570565b5b509050612599919061259d565b5090565b5b808211156125b657600081600090555060010161259e565b5090565b60006125cd6125c8846138fb565b6138ca565b9050828152602081018484840111156125e557600080fd5b6125f0848285613b0c565b509392505050565b60008135905061260781613cc7565b92915050565b60008135905061261c81613cde565b92915050565b60008135905061263181613cf5565b92915050565b60008151905061264681613cf5565b92915050565b600082601f83011261265d57600080fd5b813561266d8482602086016125ba565b91505092915050565b60008135905061268581613d0c565b92915050565b60006020828403121561269d57600080fd5b60006126ab848285016125f8565b91505092915050565b600080604083850312156126c757600080fd5b60006126d5858286016125f8565b92505060206126e6858286016125f8565b9150509250929050565b60008060006060848603121561270557600080fd5b6000612713868287016125f8565b9350506020612724868287016125f8565b925050604061273586828701612676565b9150509250925092565b6000806000806080858703121561275557600080fd5b6000612763878288016125f8565b9450506020612774878288016125f8565b935050604061278587828801612676565b925050606085013567ffffffffffffffff8111156127a257600080fd5b6127ae8782880161264c565b91505092959194509250565b600080604083850312156127cd57600080fd5b60006127db858286016125f8565b92505060206127ec8582860161260d565b9150509250929050565b6000806040838503121561280957600080fd5b6000612817858286016125f8565b925050602061282885828601612676565b9150509250929050565b60006020828403121561284457600080fd5b600061285284828501612622565b91505092915050565b60006020828403121561286d57600080fd5b600061287b84828501612637565b91505092915050565b60006020828403121561289657600080fd5b60006128a484828501612676565b91505092915050565b6128b681613a98565b82525050565b6128c581613aaa565b82525050565b60006128d682613940565b6128e08185613956565b93506128f0818560208601613b1b565b6128f981613cb6565b840191505092915050565b600061290f8261394b565b6129198185613967565b9350612929818560208601613b1b565b61293281613cb6565b840191505092915050565b60006129488261394b565b6129528185613978565b9350612962818560208601613b1b565b80840191505092915050565b6000815461297b81613b4e565b6129858186613978565b945060018216600081146129a057600181146129b1576129e4565b60ff198316865281860193506129e4565b6129ba8561392b565b60005b838110156129dc578154818901526001820191506020810190506129bd565b838801955050505b50505092915050565b60006129fa602583613978565b91507f68747470733a2f2f6e6674707265766965772e30786465762e636f6465732f3f60008301527f636f64653d0000000000000000000000000000000000000000000000000000006020830152602582019050919050565b6000612a60603283613967565b91507f4552433732313a207472616e7366657220746f206e6f6e20455243373231526560008301527f63656976657220696d706c656d656e74657200000000000000000000000000006020830152604082019050919050565b6000612ac6601c83613967565b91507f4552433732313a20746f6b656e20616c7265616479206d696e746564000000006000830152602082019050919050565b6000612b06600a83613978565b91507f54484952445f574f5244000000000000000000000000000000000000000000006000830152600a82019050919050565b6000612b46600a83613978565b91507f434f4c4f525f5459504f000000000000000000000000000000000000000000006000830152600a82019050919050565b6000612b86601b83613967565b91507f35302f353020746f6b656e7320616c7265616479206d696e65642100000000006000830152602082019050919050565b6000612bc6602483613967565b91507f4552433732313a207472616e7366657220746f20746865207a65726f2061646460008301527f72657373000000000000000000000000000000000000000000000000000000006020830152604082019050919050565b6000612c2c601983613967565b91507f4552433732313a20617070726f766520746f2063616c6c6572000000000000006000830152602082019050919050565b6000612c6c606383613978565b91507f222c20226465736372697074696f6e223a20224120686967686c79206163636c60008301527f61696d656420636f6c6c656374696f6e206f6620737175617265732e222c202260208301527f696d616765223a2022646174613a696d6167652f7376672b786d6c3b6261736560408301527f36342c00000000000000000000000000000000000000000000000000000000006060830152606382019050919050565b6000612d1e600b83613978565b91507f5345434f4e445f574f52440000000000000000000000000000000000000000006000830152600b82019050919050565b6000612d5e602c83613967565b91507f4552433732313a206f70657261746f7220717565727920666f72206e6f6e657860008301527f697374656e7420746f6b656e00000000000000000000000000000000000000006020830152604082019050919050565b6000612dc4600d83613978565b91507f3c2f746578743e3c2f7376673e000000000000000000000000000000000000006000830152600d82019050919050565b6000612e04603883613967565b91507f4552433732313a20617070726f76652063616c6c6572206973206e6f74206f7760008301527f6e6572206e6f7220617070726f76656420666f7220616c6c00000000000000006020830152604082019050919050565b6000612e6a602a83613967565b91507f4552433732313a2062616c616e636520717565727920666f7220746865207a6560008301527f726f2061646472657373000000000000000000000000000000000000000000006020830152604082019050919050565b6000612ed0602983613967565b91507f4552433732313a206f776e657220717565727920666f72206e6f6e657869737460008301527f656e7420746f6b656e00000000000000000000000000000000000000000000006020830152604082019050919050565b6000612f36602e83613967565b91507f45524337323155524953746f726167653a2055524920736574206f66206e6f6e60008301527f6578697374656e7420746f6b656e0000000000000000000000000000000000006020830152604082019050919050565b6000612f9c600283613978565b91507f227d0000000000000000000000000000000000000000000000000000000000006000830152600282019050919050565b6000612fdc602083613967565b91507f4552433732313a206d696e7420746f20746865207a65726f20616464726573736000830152602082019050919050565b600061301c603183613967565b91507f45524337323155524953746f726167653a2055524920717565727920666f722060008301527f6e6f6e6578697374656e7420746f6b656e0000000000000000000000000000006020830152604082019050919050565b6000613082602c83613967565b91507f4552433732313a20617070726f76656420717565727920666f72206e6f6e657860008301527f697374656e7420746f6b656e00000000000000000000000000000000000000006020830152604082019050919050565b60006130e8602983613967565b91507f4552433732313a207472616e73666572206f6620746f6b656e2074686174206960008301527f73206e6f74206f776e00000000000000000000000000000000000000000000006020830152604082019050919050565b600061314e602f83613967565b91507f4552433732314d657461646174613a2055524920717565727920666f72206e6f60008301527f6e6578697374656e7420746f6b656e00000000000000000000000000000000006020830152604082019050919050565b60006131b4600a83613978565b91507f7b226e616d65223a2022000000000000000000000000000000000000000000006000830152600a82019050919050565b60006131f4602183613967565b91507f4552433732313a20617070726f76616c20746f2063757272656e74206f776e6560008301527f72000000000000000000000000000000000000000000000000000000000000006020830152604082019050919050565b600061325a600a83613978565b91507f46495253545f574f5244000000000000000000000000000000000000000000006000830152600a82019050919050565b600061329a601d83613978565b91507f646174613a6170706c69636174696f6e2f6a736f6e3b6261736536342c0000006000830152601d82019050919050565b60006132da603183613967565b91507f4552433732313a207472616e736665722063616c6c6572206973206e6f74206f60008301527f776e6572206e6f7220617070726f7665640000000000000000000000000000006020830152604082019050919050565b6000613340600583613978565b91507f434f4c4f520000000000000000000000000000000000000000000000000000006000830152600582019050919050565b61337c81613b02565b82525050565b600061338e828461293d565b915081905092915050565b60006133a5828561293d565b91506133b1828461293d565b91508190509392505050565b60006133c9828661293d565b91506133d5828561293d565b91506133e1828461293d565b9150819050949350505050565b60006133fa828961296e565b9150613406828861293d565b9150613412828761296e565b915061341e828661293d565b915061342a828561296e565b9150613436828461293d565b915061344182612db7565b9150819050979650505050505050565b600061345c826129ed565b9150613468828461293d565b915081905092915050565b600061347e82612af9565b915061348a828461293d565b915081905092915050565b60006134a082612b39565b91506134ac828461293d565b915081905092915050565b60006134c282612d11565b91506134ce828461293d565b915081905092915050565b60006134e4826131a7565b91506134f0828561293d565b91506134fb82612c5f565b9150613507828461293d565b915061351282612f8f565b91508190509392505050565b60006135298261324d565b9150613535828461293d565b915081905092915050565b600061354b8261328d565b9150613557828461293d565b915081905092915050565b600061356d82613333565b9150613579828461293d565b915081905092915050565b600060208201905061359960008301846128ad565b92915050565b60006080820190506135b460008301876128ad565b6135c160208301866128ad565b6135ce6040830185613373565b81810360608301526135e081846128cb565b905095945050505050565b600060408201905061360060008301856128ad565b61360d6020830184613373565b9392505050565b600060208201905061362960008301846128bc565b92915050565b600060208201905081810360008301526136498184612904565b905092915050565b6000606082019050818103600083015261366b8186612904565b905061367a6020830185613373565b61368760408301846128ad565b949350505050565b600060208201905081810360008301526136a881612a53565b9050919050565b600060208201905081810360008301526136c881612ab9565b9050919050565b600060208201905081810360008301526136e881612b79565b9050919050565b6000602082019050818103600083015261370881612bb9565b9050919050565b6000602082019050818103600083015261372881612c1f565b9050919050565b6000602082019050818103600083015261374881612d51565b9050919050565b6000602082019050818103600083015261376881612df7565b9050919050565b6000602082019050818103600083015261378881612e5d565b9050919050565b600060208201905081810360008301526137a881612ec3565b9050919050565b600060208201905081810360008301526137c881612f29565b9050919050565b600060208201905081810360008301526137e881612fcf565b9050919050565b600060208201905081810360008301526138088161300f565b9050919050565b6000602082019050818103600083015261382881613075565b9050919050565b60006020820190508181036000830152613848816130db565b9050919050565b6000602082019050818103600083015261386881613141565b9050919050565b60006020820190508181036000830152613888816131e7565b9050919050565b600060208201905081810360008301526138a8816132cd565b9050919050565b60006020820190506138c46000830184613373565b92915050565b6000604051905081810181811067ffffffffffffffff821117156138f1576138f0613c87565b5b8060405250919050565b600067ffffffffffffffff82111561391657613915613c87565b5b601f19601f8301169050602081019050919050565b60008190508160005260206000209050919050565b600081519050919050565b600081519050919050565b600082825260208201905092915050565b600082825260208201905092915050565b600081905092915050565b600061398e82613b02565b915061399983613b02565b9250827fffffffffffffffffffffffffffffffffffffffffffffffffffffffffffffffff038211156139ce576139cd613bfa565b5b828201905092915050565b60006139e482613b02565b91506139ef83613b02565b9250826139ff576139fe613c29565b5b828204905092915050565b6000613a1582613b02565b9150613a2083613b02565b9250817fffffffffffffffffffffffffffffffffffffffffffffffffffffffffffffffff0483118215151615613a5957613a58613bfa565b5b828202905092915050565b6000613a6f82613b02565b9150613a7a83613b02565b925082821015613a8d57613a8c613bfa565b5b828203905092915050565b6000613aa382613ae2565b9050919050565b60008115159050919050565b60007fffffffff0000000000000000000000000000000000000000000000000000000082169050919050565b600073ffffffffffffffffffffffffffffffffffffffff82169050919050565b6000819050919050565b82818337600083830152505050565b60005b83811015613b39578082015181840152602081019050613b1e565b83811115613b48576000848401525b50505050565b60006002820490506001821680613b6657607f821691505b60208210811415613b7a57613b79613c58565b5b50919050565b6000613b8b82613b02565b91507fffffffffffffffffffffffffffffffffffffffffffffffffffffffffffffffff821415613bbe57613bbd613bfa565b5b600182019050919050565b6000613bd482613b02565b9150613bdf83613b02565b925082613bef57613bee613c29565b5b828206905092915050565b7f4e487b7100000000000000000000000000000000000000000000000000000000600052601160045260246000fd5b7f4e487b7100000000000000000000000000000000000000000000000000000000600052601260045260246000fd5b7f4e487b7100000000000000000000000000000000000000000000000000000000600052602260045260246000fd5b7f4e487b7100000000000000000000000000000000000000000000000000000000600052604160045260246000fd5b6000601f19601f8301169050919050565b613cd081613a98565b8114613cdb57600080fd5b50565b613ce781613aaa565b8114613cf257600080fd5b50565b613cfe81613ab6565b8114613d0957600080fd5b50565b613d1581613b02565b8114613d2057600080fd5b5056fe416e204e465420772f20494420257320686173206265656e206d696e74656420746f2025734142434445464748494a4b4c4d4e4f505152535455565758595a6162636465666768696a6b6c6d6e6f707172737475767778797a303132333435363738392b2fa26469706673582212207ff2dfd13445af480f44f1ebae35873bdccaeb42fa4f532a8724c1131ead647d64736f6c63430008000033273b20666f6e742d66616d696c793a2073657269663b20666f6e742d73697a653a20323470783b207d3c2f7374796c653e3c726563742077696474683d273130302527206865696768743d2731303025272066696c6c3d273c73766720786d6c6e733d27687474703a2f2f7777772e77332e6f72672f323030302f73766727207072657365727665417370656374526174696f3d27784d696e594d696e206d656574272076696577426f783d273020302033353020333530273e3c7374796c653e2e62617365207b2066696c6c3a27273b202f3e3c7465787420783d273530252720793d273530252720636c6173733d27626173652720646f6d696e616e742d626173656c696e653d276d6964646c652720746578742d616e63686f723d276d6964646c65273e",
  "linkReferences": {},
  "deployedLinkReferences": {}
}