{
  "_format": "hh-sol-artifact-1",
  "contractName": "MyEpicNFT",
  "sourceName": "contracts/MyEpicNFT.sol",
  "abi": [
    {
      "inputs": [],
      "stateMutability": "nonpayable",
      "type": "constructor"
    },
    {
      "anonymous": false,
      "inputs": [
        {
          "indexed": true,
          "internalType": "address",
          "name": "owner",
          "type": "address"
        },
        {
          "indexed": true,
          "internalType": "address",
          "name": "approved",
          "type": "address"
        },
        {
          "indexed": true,
          "internalType": "uint256",
          "name": "tokenId",
          "type": "uint256"
        }
      ],
      "name": "Approval",
      "type": "event"
    },
    {
      "anonymous": false,
      "inputs": [
        {
          "indexed": true,
          "internalType": "address",
          "name": "owner",
          "type": "address"
        },
        {
          "indexed": true,
          "internalType": "address",
          "name": "operator",
          "type": "address"
        },
        {
          "indexed": false,
          "internalType": "bool",
          "name": "approved",
          "type": "bool"
        }
      ],
      "name": "ApprovalForAll",
      "type": "event"
    },
    {
      "anonymous": false,
      "inputs": [
        {
          "indexed": false,
          "internalType": "address",
          "name": "sender",
          "type": "address"
        },
        {
          "indexed": false,
          "internalType": "uint256",
          "name": "tokenId",
          "type": "uint256"
        }
      ],
      "name": "NewEpicNFTMinted",
      "type": "event"
    },
    {
      "anonymous": false,
      "inputs": [
        {
          "indexed": true,
          "internalType": "address",
          "name": "from",
          "type": "address"
        },
        {
          "indexed": true,
          "internalType": "address",
          "name": "to",
          "type": "address"
        },
        {
          "indexed": true,
          "internalType": "uint256",
          "name": "tokenId",
          "type": "uint256"
        }
      ],
      "name": "Transfer",
      "type": "event"
    },
    {
      "inputs": [
        {
          "internalType": "address",
          "name": "to",
          "type": "address"
        },
        {
          "internalType": "uint256",
          "name": "tokenId",
          "type": "uint256"
        }
      ],
      "name": "approve",
      "outputs": [],
      "stateMutability": "nonpayable",
      "type": "function"
    },
    {
      "inputs": [
        {
          "internalType": "address",
          "name": "owner",
          "type": "address"
        }
      ],
      "name": "balanceOf",
      "outputs": [
        {
          "internalType": "uint256",
          "name": "",
          "type": "uint256"
        }
      ],
      "stateMutability": "view",
      "type": "function"
    },
    {
      "inputs": [
        {
          "internalType": "uint256",
          "name": "tokenId",
          "type": "uint256"
        }
      ],
      "name": "getApproved",
      "outputs": [
        {
          "internalType": "address",
          "name": "",
          "type": "address"
        }
      ],
      "stateMutability": "view",
      "type": "function"
    },
    {
      "inputs": [],
      "name": "getTotalNFTsMintedSoFar",
      "outputs": [
        {
          "internalType": "uint256",
          "name": "",
          "type": "uint256"
        }
      ],
      "stateMutability": "view",
      "type": "function"
    },
    {
      "inputs": [
        {
          "internalType": "address",
          "name": "owner",
          "type": "address"
        },
        {
          "internalType": "address",
          "name": "operator",
          "type": "address"
        }
      ],
      "name": "isApprovedForAll",
      "outputs": [
        {
          "internalType": "bool",
          "name": "",
          "type": "bool"
        }
      ],
      "stateMutability": "view",
      "type": "function"
    },
    {
      "inputs": [],
      "name": "makeAnEpicNFT",
      "outputs": [],
      "stateMutability": "nonpayable",
      "type": "function"
    },
    {
      "inputs": [],
      "name": "name",
      "outputs": [
        {
          "internalType": "string",
          "name": "",
          "type": "string"
        }
      ],
      "stateMutability": "view",
      "type": "function"
    },
    {
      "inputs": [
        {
          "internalType": "uint256",
          "name": "tokenId",
          "type": "uint256"
        }
      ],
      "name": "ownerOf",
      "outputs": [
        {
          "internalType": "address",
          "name": "",
          "type": "address"
        }
      ],
      "stateMutability": "view",
      "type": "function"
    },
    {
      "inputs": [
        {
          "internalType": "uint256",
          "name": "tokenId",
          "type": "uint256"
        }
      ],
      "name": "pickRandomColor",
      "outputs": [
        {
          "internalType": "string",
          "name": "",
          "type": "string"
        }
      ],
      "stateMutability": "view",
      "type": "function"
    },
    {
      "inputs": [
        {
          "internalType": "uint256",
          "name": "tokenId",
          "type": "uint256"
        }
      ],
      "name": "pickRandomColorTypo",
      "outputs": [
        {
          "internalType": "string",
          "name": "",
          "type": "string"
        }
      ],
      "stateMutability": "view",
      "type": "function"
    },
    {
      "inputs": [
        {
          "internalType": "uint256",
          "name": "tokenId",
          "type": "uint256"
        }
      ],
      "name": "pickRandomFirstWord",
      "outputs": [
        {
          "internalType": "string",
          "name": "",
          "type": "string"
        }
      ],
      "stateMutability": "view",
      "type": "function"
    },
    {
      "inputs": [
        {
          "internalType": "uint256",
          "name": "tokenId",
          "type": "uint256"
        }
      ],
      "name": "pickRandomSecondWord",
      "outputs": [
        {
          "internalType": "string",
          "name": "",
          "type": "string"
        }
      ],
      "stateMutability": "view",
      "type": "function"
    },
    {
      "inputs": [
        {
          "internalType": "uint256",
          "name": "tokenId",
          "type": "uint256"
        }
      ],
      "name": "pickRandomThirdWord",
      "outputs": [
        {
          "internalType": "string",
          "name": "",
          "type": "string"
        }
      ],
      "stateMutability": "view",
      "type": "function"
    },
    {
      "inputs": [
        {
          "internalType": "address",
          "name": "from",
          "type": "address"
        },
        {
          "internalType": "address",
          "name": "to",
          "type": "address"
        },
        {
          "internalType": "uint256",
          "name": "tokenId",
          "type": "uint256"
        }
      ],
      "name": "safeTransferFrom",
      "outputs": [],
      "stateMutability": "nonpayable",
      "type": "function"
    },
    {
      "inputs": [
        {
          "internalType": "address",
          "name": "from",
          "type": "address"
        },
        {
          "internalType": "address",
          "name": "to",
          "type": "address"
        },
        {
          "internalType": "uint256",
          "name": "tokenId",
          "type": "uint256"
        },
        {
          "internalType": "bytes",
          "name": "_data",
          "type": "bytes"
        }
      ],
      "name": "safeTransferFrom",
      "outputs": [],
      "stateMutability": "nonpayable",
      "type": "function"
    },
    {
      "inputs": [
        {
          "internalType": "address",
          "name": "operator",
          "type": "address"
        },
        {
          "internalType": "bool",
          "name": "approved",
          "type": "bool"
        }
      ],
      "name": "setApprovalForAll",
      "outputs": [],
      "stateMutability": "nonpayable",
      "type": "function"
    },
    {
      "inputs": [
        {
          "internalType": "bytes4",
          "name": "interfaceId",
          "type": "bytes4"
        }
      ],
      "name": "supportsInterface",
      "outputs": [
        {
          "internalType": "bool",
          "name": "",
          "type": "bool"
        }
      ],
      "stateMutability": "view",
      "type": "function"
    },
    {
      "inputs": [],
      "name": "symbol",
      "outputs": [
        {
          "internalType": "string",
          "name": "",
          "type": "string"
        }
      ],
      "stateMutability": "view",
      "type": "function"
    },
    {
      "inputs": [
        {
          "internalType": "uint256",
          "name": "tokenId",
          "type": "uint256"
        }
      ],
      "name": "tokenURI",
      "outputs": [
        {
          "internalType": "string",
          "name": "",
          "type": "string"
        }
      ],
      "stateMutability": "view",
      "type": "function"
    },
    {
      "inputs": [
        {
          "internalType": "address",
          "name": "from",
          "type": "address"
        },
        {
          "internalType": "address",
          "name": "to",
          "type": "address"
        },
        {
          "internalType": "uint256",
          "name": "tokenId",
          "type": "uint256"
        }
      ],
      "name": "transferFrom",
      "outputs": [],
      "stateMutability": "nonpayable",
      "type": "function"
    }
  ],
  "bytecode": "0x60806040526040518060a001604052806040518060400160405280600581526020017f285f7c5f2900000000000000000000000000000000000000000000000000000081525081526020016040518060400160405280600581526020017f282b5f2b2900000000000000000000000000000000000000000000000000000081525081526020016040518060400160405280600581526020017f285e5f5e2900000000000000000000000000000000000000000000000000000081525081526020016040518060400160405280600781526020017f2d282d5f2d292d0000000000000000000000000000000000000000000000000081525081526020016040518060400160405280600381526020017f284f290000000000000000000000000000000000000000000000000000000000815250815250600890600562000146929190620009a0565b506040518060c001604052806040518060400160405280600a81526020017f6f3d3d7c3d3d3d3d3d2d0000000000000000000000000000000000000000000081525081526020016040518060400160405280600181526020017f610000000000000000000000000000000000000000000000000000000000000081525081526020016040518060400160405280600181526020017f620000000000000000000000000000000000000000000000000000000000000081525081526020016040518060400160405280600181526020017f630000000000000000000000000000000000000000000000000000000000000081525081526020016040518060400160405280600181526020017f640000000000000000000000000000000000000000000000000000000000000081525081526020016040518060400160405280600181526020017f65000000000000000000000000000000000000000000000000000000000000008152508152506009906006620002c492919062000a07565b506040518060c001604052806040518060400160405280600181526020017f310000000000000000000000000000000000000000000000000000000000000081525081526020016040518060400160405280600181526020017f320000000000000000000000000000000000000000000000000000000000000081525081526020016040518060400160405280600181526020017f330000000000000000000000000000000000000000000000000000000000000081525081526020016040518060400160405280600181526020017f340000000000000000000000000000000000000000000000000000000000000081525081526020016040518060400160405280600181526020017f350000000000000000000000000000000000000000000000000000000000000081525081526020016040518060400160405280600581526020017f282d5f2d29000000000000000000000000000000000000000000000000000000815250815250600a9060066200044292919062000a07565b506040518060c001604052806040518060400160405280600381526020017f726564000000000000000000000000000000000000000000000000000000000081525081526020016040518060400160405280600781526020017f233038433241380000000000000000000000000000000000000000000000000081525081526020016040518060400160405280600581526020017f626c61636b00000000000000000000000000000000000000000000000000000081525081526020016040518060400160405280600681526020017f79656c6c6f77000000000000000000000000000000000000000000000000000081525081526020016040518060400160405280600481526020017f626c75650000000000000000000000000000000000000000000000000000000081525081526020016040518060400160405280600581526020017f677265656e000000000000000000000000000000000000000000000000000000815250815250600b906006620005c092919062000a07565b506040518060c001604052806040518060400160405280600381526020017f726564000000000000000000000000000000000000000000000000000000000081525081526020016040518060400160405280600781526020017f233038433241380000000000000000000000000000000000000000000000000081525081526020016040518060400160405280600581526020017f626c61636b00000000000000000000000000000000000000000000000000000081525081526020016040518060400160405280600681526020017f79656c6c6f77000000000000000000000000000000000000000000000000000081525081526020016040518060400160405280600481526020017f626c75650000000000000000000000000000000000000000000000000000000081525081526020016040518060400160405280600581526020017f677265656e000000000000000000000000000000000000000000000000000000815250815250600c9060066200073e92919062000a07565b506040518060a001604052806076815260200162004c3c60769139600d90805190602001906200077092919062000a6e565b5060405180608001604052806057815260200162004be560579139600e9080519060200190620007a292919062000a6e565b5060405180608001604052806056815260200162004cb260569139600f9080519060200190620007d492919062000a6e565b50348015620007e257600080fd5b506040518060400160405280600981526020017f5371756172654e465400000000000000000000000000000000000000000000008152506040518060400160405280600681526020017f535155415245000000000000000000000000000000000000000000000000000081525081600090805190602001906200086792919062000a6e565b5080600190805190602001906200088092919062000a6e565b505050620008ce6040518060400160405280601e81526020017f54686973206973206d79204e465420636f6e74726163742e20576f6168210000815250620008d460201b620014bd1760201c565b62000cb9565b6200097481604051602401620008eb919062000bcd565b6040516020818303038152906040527f41304fac000000000000000000000000000000000000000000000000000000007bffffffffffffffffffffffffffffffffffffffffffffffffffffffff19166020820180517bffffffffffffffffffffffffffffffffffffffffffffffffffffffff83818316178352505050506200097760201b60201c565b50565b60008151905060006a636f6e736f6c652e6c6f679050602083016000808483855afa5050505050565b828054828255906000526020600020908101928215620009f4579160200282015b82811115620009f3578251829080519060200190620009e292919062000a6e565b5091602001919060010190620009c1565b5b50905062000a03919062000aff565b5090565b82805482825590600052602060002090810192821562000a5b579160200282015b8281111562000a5a57825182908051906020019062000a4992919062000a6e565b509160200191906001019062000a28565b5b50905062000a6a919062000aff565b5090565b82805462000a7c9062000c43565b90600052602060002090601f01602090048101928262000aa0576000855562000aec565b82601f1062000abb57805160ff191683800117855562000aec565b8280016001018555821562000aec579182015b8281111562000aeb57825182559160200191906001019062000ace565b5b50905062000afb919062000b27565b5090565b5b8082111562000b23576000818162000b19919062000b46565b5060010162000b00565b5090565b5b8082111562000b4257600081600090555060010162000b28565b5090565b50805462000b549062000c43565b6000825580601f1062000b68575062000b89565b601f01602090049060005260206000209081019062000b88919062000b27565b5b50565b600062000b998262000bf1565b62000ba5818562000bfc565b935062000bb781856020860162000c0d565b62000bc28162000ca8565b840191505092915050565b6000602082019050818103600083015262000be9818462000b8c565b905092915050565b600081519050919050565b600082825260208201905092915050565b60005b8381101562000c2d57808201518184015260208101905062000c10565b8381111562000c3d576000848401525b50505050565b6000600282049050600182168062000c5c57607f821691505b6020821081141562000c735762000c7262000c79565b5b50919050565b7f4e487b7100000000000000000000000000000000000000000000000000000000600052602260045260246000fd5b6000601f19601f8301169050919050565b613f1c8062000cc96000396000f3fe608060405234801561001057600080fd5b506004361061012c5760003560e01c806370a08231116100ad578063c575757a11610071578063c575757a14610367578063c87b56dd14610397578063de9d132f146103c7578063e985e9c5146103d1578063f99001d3146104015761012c565b806370a08231146102b157806395d89b41146102e1578063a22cb465146102ff578063b187301f1461031b578063b88d4fde1461034b5761012c565b806323b872dd116100f457806323b872dd146101e95780632de38d681461020557806342842e0e14610235578063514dc8c6146102515780636352211e146102815761012c565b806301ffc9a714610131578063060475901461016157806306fdde031461017f578063081812fc1461019d578063095ea7b3146101cd575b600080fd5b61014b60048036038101906101469190612959565b610431565b604051610158919061373b565b60405180910390f35b610169610513565b6040516101769190613a0d565b60405180910390f35b610187610524565b6040516101949190613756565b60405180910390f35b6101b760048036038101906101b291906129ab565b6105b6565b6040516101c491906136ab565b60405180910390f35b6101e760048036038101906101e2919061291d565b61063b565b005b61020360048036038101906101fe9190612817565b610753565b005b61021f600480360381019061021a91906129ab565b6107b3565b60405161022c9190613756565b60405180910390f35b61024f600480360381019061024a9190612817565b6108d1565b005b61026b600480360381019061026691906129ab565b6108f1565b6040516102789190613756565b60405180910390f35b61029b600480360381019061029691906129ab565b610a54565b6040516102a891906136ab565b60405180910390f35b6102cb60048036038101906102c691906127b2565b610b06565b6040516102d89190613a0d565b60405180910390f35b6102e9610bbe565b6040516102f69190613756565b60405180910390f35b610319600480360381019061031491906128e1565b610c50565b005b610335600480360381019061033091906129ab565b610c66565b6040516103429190613756565b60405180910390f35b61036560048036038101906103609190612866565b610d84565b005b610381600480360381019061037c91906129ab565b610de6565b60405161038e9190613756565b60405180910390f35b6103b160048036038101906103ac91906129ab565b610f04565b6040516103be9190613756565b60405180910390f35b6103cf611056565b005b6103eb60048036038101906103e691906127db565b6112c6565b6040516103f8919061373b565b60405180910390f35b61041b600480360381019061041691906129ab565b61135a565b6040516104289190613756565b60405180910390f35b60007f80ac58cd000000000000000000000000000000000000000000000000000000007bffffffffffffffffffffffffffffffffffffffffffffffffffffffff1916827bffffffffffffffffffffffffffffffffffffffffffffffffffffffff191614806104fc57507f5b5e139f000000000000000000000000000000000000000000000000000000007bffffffffffffffffffffffffffffffffffffffffffffffffffffffff1916827bffffffffffffffffffffffffffffffffffffffffffffffffffffffff1916145b8061050c575061050b82611556565b5b9050919050565b600061051f60076115c0565b905090565b60606000805461053390613cac565b80601f016020809104026020016040519081016040528092919081815260200182805461055f90613cac565b80156105ac5780601f10610581576101008083540402835291602001916105ac565b820191906000526020600020905b81548152906001019060200180831161058f57829003601f168201915b5050505050905090565b60006105c1826115ce565b610600576040517f08c379a00000000000000000000000000000000000000000000000000000000081526004016105f79061396d565b60405180910390fd5b6004600083815260200190815260200160002060009054906101000a900473ffffffffffffffffffffffffffffffffffffffff169050919050565b600061064682610a54565b90508073ffffffffffffffffffffffffffffffffffffffff168373ffffffffffffffffffffffffffffffffffffffff1614156106b7576040517f08c379a00000000000000000000000000000000000000000000000000000000081526004016106ae906139cd565b60405180910390fd5b8073ffffffffffffffffffffffffffffffffffffffff166106d661163a565b73ffffffffffffffffffffffffffffffffffffffff1614806107055750610704816106ff61163a565b6112c6565b5b610744576040517f08c379a000000000000000000000000000000000000000000000000000000000815260040161073b906138ad565b60405180910390fd5b61074e8383611642565b505050565b61076461075e61163a565b826116fb565b6107a3576040517f08c379a000000000000000000000000000000000000000000000000000000000815260040161079a906139ed565b60405180910390fd5b6107ae8383836117d9565b505050565b606060006107e76107c384611a35565b6040516020016107d39190613645565b604051602081830303815290604052611be2565b9050600880549050816107fa9190613d27565b905060088181548110610836577f4e487b7100000000000000000000000000000000000000000000000000000000600052603260045260246000fd5b90600052602060002001805461084b90613cac565b80601f016020809104026020016040519081016040528092919081815260200182805461087790613cac565b80156108c45780601f10610899576101008083540402835291602001916108c4565b820191906000526020600020905b8154815290600101906020018083116108a757829003601f168201915b5050505050915050919050565b6108ec83838360405180602001604052806000815250610d84565b505050565b6060600061092561090184611a35565b6040516020016109119190613689565b604051602081830303815290604052611be2565b9050600b80549050816109389190613d27565b90506000600b8281548110610976577f4e487b7100000000000000000000000000000000000000000000000000000000600052603260045260246000fd5b90600052602060002001805461098b90613cac565b80601f01602080910402602001604051908101604052809291908181526020018280546109b790613cac565b8015610a045780601f106109d957610100808354040283529160200191610a04565b820191906000526020600020905b8154815290600101906020018083116109e757829003601f168201915b50505050509050610a4a6040518060400160405280601081526020017f0a20436f6c6f72206261636b3a2025730000000000000000000000000000000081525082611c15565b8092505050919050565b6000806002600084815260200190815260200160002060009054906101000a900473ffffffffffffffffffffffffffffffffffffffff169050600073ffffffffffffffffffffffffffffffffffffffff168173ffffffffffffffffffffffffffffffffffffffff161415610afd576040517f08c379a0000000000000000000000000000000000000000000000000000000008152600401610af4906138ed565b60405180910390fd5b80915050919050565b60008073ffffffffffffffffffffffffffffffffffffffff168273ffffffffffffffffffffffffffffffffffffffff161415610b77576040517f08c379a0000000000000000000000000000000000000000000000000000000008152600401610b6e906138cd565b60405180910390fd5b600360008373ffffffffffffffffffffffffffffffffffffffff1673ffffffffffffffffffffffffffffffffffffffff168152602001908152602001600020549050919050565b606060018054610bcd90613cac565b80601f0160208091040260200160405190810160405280929190818152602001828054610bf990613cac565b8015610c465780601f10610c1b57610100808354040283529160200191610c46565b820191906000526020600020905b815481529060010190602001808311610c2957829003601f168201915b5050505050905090565b610c62610c5b61163a565b8383611cb1565b5050565b60606000610c9a610c7684611a35565b604051602001610c8691906135de565b604051602081830303815290604052611be2565b905060098054905081610cad9190613d27565b905060098181548110610ce9577f4e487b7100000000000000000000000000000000000000000000000000000000600052603260045260246000fd5b906000526020600020018054610cfe90613cac565b80601f0160208091040260200160405190810160405280929190818152602001828054610d2a90613cac565b8015610d775780601f10610d4c57610100808354040283529160200191610d77565b820191906000526020600020905b815481529060010190602001808311610d5a57829003601f168201915b5050505050915050919050565b610d95610d8f61163a565b836116fb565b610dd4576040517f08c379a0000000000000000000000000000000000000000000000000000000008152600401610dcb906139ed565b60405180910390fd5b610de084848484611e1e565b50505050565b60606000610e1a610df684611a35565b604051602001610e06919061359a565b604051602081830303815290604052611be2565b9050600a8054905081610e2d9190613d27565b9050600a8181548110610e69577f4e487b7100000000000000000000000000000000000000000000000000000000600052603260045260246000fd5b906000526020600020018054610e7e90613cac565b80601f0160208091040260200160405190810160405280929190818152602001828054610eaa90613cac565b8015610ef75780601f10610ecc57610100808354040283529160200191610ef7565b820191906000526020600020905b815481529060010190602001808311610eda57829003601f168201915b5050505050915050919050565b6060610f0f826115ce565b610f4e576040517f08c379a0000000000000000000000000000000000000000000000000000000008152600401610f459061394d565b60405180910390fd5b6000600660008481526020019081526020016000208054610f6e90613cac565b80601f0160208091040260200160405190810160405280929190818152602001828054610f9a90613cac565b8015610fe75780601f10610fbc57610100808354040283529160200191610fe7565b820191906000526020600020905b815481529060010190602001808311610fca57829003601f168201915b505050505090506000610ff8611e7a565b905060008151141561100e578192505050611051565b60008251111561104357808260405160200161102b9291906134c0565b60405160208183030381529060405292505050611051565b61104c84611e91565b925050505b919050565b600061106260076115c0565b905060328111156110a8576040517f08c379a000000000000000000000000000000000000000000000000000000000815260040161109f9061382d565b60405180910390fd5b60006110b3826107b3565b905060006110c083610c66565b905060006110cd84610de6565b905060006110da856108f1565b905060006110e78661135a565b90506000858585604051602001611100939291906134e4565b60405160208183030381529060405290506000600d83600e86600f8660405160200161113196959493929190613515565b604051602081830303815290604052905060006111768361115184611f38565b604051602001611162929190613600565b604051602081830303815290604052611f38565b905060008160405160200161118b9190613667565b60405160208183030381529060405290506111da6040518060400160405280601581526020017f0a2d2d2d2d2d2d2d2d2d2d2d2d2d2d2d2d2d2d2d2d00000000000000000000008152506114bd565b611202816040516020016111ee9190613578565b6040516020818303038152906040526114bd565b6112406040518060400160405280601581526020017f2d2d2d2d2d2d2d2d2d2d2d2d2d2d2d2d2d2d2d2d0a00000000000000000000008152506114bd565b61124a338b6120f6565b6112548a82612114565b61125e6007612188565b611281604051806060016040528060258152602001613e82602591398b3361219e565b7febb98688741ffa4c7589bf325de30cf7becb63de567842e1ccdb6cb949fdc82c338b6040516112b2929190613712565b60405180910390a150505050505050505050565b6000600560008473ffffffffffffffffffffffffffffffffffffffff1673ffffffffffffffffffffffffffffffffffffffff16815260200190815260200160002060008373ffffffffffffffffffffffffffffffffffffffff1673ffffffffffffffffffffffffffffffffffffffff16815260200190815260200160002060009054906101000a900460ff16905092915050565b6060600061138e61136a84611a35565b60405160200161137a91906135bc565b604051602081830303815290604052611be2565b9050600c80549050816113a19190613d27565b90506000600c82815481106113df577f4e487b7100000000000000000000000000000000000000000000000000000000600052603260045260246000fd5b9060005260206000200180546113f490613cac565b80601f016020809104026020016040519081016040528092919081815260200182805461142090613cac565b801561146d5780601f106114425761010080835404028352916020019161146d565b820191906000526020600020905b81548152906001019060200180831161145057829003601f168201915b505050505090506114b36040518060400160405280601081526020017f0a20436f6c6f72207479706f3a2025730000000000000000000000000000000081525082611c15565b8092505050919050565b611553816040516024016114d19190613756565b6040516020818303038152906040527f41304fac000000000000000000000000000000000000000000000000000000007bffffffffffffffffffffffffffffffffffffffffffffffffffffffff19166020820180517bffffffffffffffffffffffffffffffffffffffffffffffffffffffff838183161783525050505061223d565b50565b60007f01ffc9a7000000000000000000000000000000000000000000000000000000007bffffffffffffffffffffffffffffffffffffffffffffffffffffffff1916827bffffffffffffffffffffffffffffffffffffffffffffffffffffffff1916149050919050565b600081600001549050919050565b60008073ffffffffffffffffffffffffffffffffffffffff166002600084815260200190815260200160002060009054906101000a900473ffffffffffffffffffffffffffffffffffffffff1673ffffffffffffffffffffffffffffffffffffffff1614159050919050565b600033905090565b816004600083815260200190815260200160002060006101000a81548173ffffffffffffffffffffffffffffffffffffffff021916908373ffffffffffffffffffffffffffffffffffffffff160217905550808273ffffffffffffffffffffffffffffffffffffffff166116b583610a54565b73ffffffffffffffffffffffffffffffffffffffff167f8c5be1e5ebec7d5bd14f71427d1e84f3dd0314c0f7b2291e5b200ac8c7c3b92560405160405180910390a45050565b6000611706826115ce565b611745576040517f08c379a000000000000000000000000000000000000000000000000000000000815260040161173c9061388d565b60405180910390fd5b600061175083610a54565b90508073ffffffffffffffffffffffffffffffffffffffff168473ffffffffffffffffffffffffffffffffffffffff1614806117bf57508373ffffffffffffffffffffffffffffffffffffffff166117a7846105b6565b73ffffffffffffffffffffffffffffffffffffffff16145b806117d057506117cf81856112c6565b5b91505092915050565b8273ffffffffffffffffffffffffffffffffffffffff166117f982610a54565b73ffffffffffffffffffffffffffffffffffffffff161461184f576040517f08c379a00000000000000000000000000000000000000000000000000000000081526004016118469061398d565b60405180910390fd5b600073ffffffffffffffffffffffffffffffffffffffff168273ffffffffffffffffffffffffffffffffffffffff1614156118bf576040517f08c379a00000000000000000000000000000000000000000000000000000000081526004016118b69061384d565b60405180910390fd5b6118ca838383612266565b6118d5600082611642565b6001600360008573ffffffffffffffffffffffffffffffffffffffff1673ffffffffffffffffffffffffffffffffffffffff16815260200190815260200160002060008282546119259190613bc2565b925050819055506001600360008473ffffffffffffffffffffffffffffffffffffffff1673ffffffffffffffffffffffffffffffffffffffff168152602001908152602001600020600082825461197c9190613ae1565b92505081905550816002600083815260200190815260200160002060006101000a81548173ffffffffffffffffffffffffffffffffffffffff021916908373ffffffffffffffffffffffffffffffffffffffff160217905550808273ffffffffffffffffffffffffffffffffffffffff168473ffffffffffffffffffffffffffffffffffffffff167fddf252ad1be2c89b69c2b068fc378daa952ba7f163c4a11628f55a4df523b3ef60405160405180910390a4505050565b60606000821415611a7d576040518060400160405280600181526020017f30000000000000000000000000000000000000000000000000000000000000008152509050611bdd565b600082905060005b60008214611aaf578080611a9890613cde565b915050600a82611aa89190613b37565b9150611a85565b60008167ffffffffffffffff811115611af1577f4e487b7100000000000000000000000000000000000000000000000000000000600052604160045260246000fd5b6040519080825280601f01601f191660200182016040528015611b235781602001600182028036833780820191505090505b5090505b60008514611bd657600182611b3c9190613bc2565b9150600a85611b4b9190613d27565b6030611b579190613ae1565b60f81b818381518110611b93577f4e487b7100000000000000000000000000000000000000000000000000000000600052603260045260246000fd5b60200101907effffffffffffffffffffffffffffffffffffffffffffffffffffffffffffff1916908160001a905350600a85611bcf9190613b37565b9450611b27565b8093505050505b919050565b600081604051602001611bf591906134a9565b6040516020818303038152906040528051906020012060001c9050919050565b611cad8282604051602401611c2b929190613778565b6040516020818303038152906040527f4b5c4277000000000000000000000000000000000000000000000000000000007bffffffffffffffffffffffffffffffffffffffffffffffffffffffff19166020820180517bffffffffffffffffffffffffffffffffffffffffffffffffffffffff838183161783525050505061223d565b5050565b8173ffffffffffffffffffffffffffffffffffffffff168373ffffffffffffffffffffffffffffffffffffffff161415611d20576040517f08c379a0000000000000000000000000000000000000000000000000000000008152600401611d179061386d565b60405180910390fd5b80600560008573ffffffffffffffffffffffffffffffffffffffff1673ffffffffffffffffffffffffffffffffffffffff16815260200190815260200160002060008473ffffffffffffffffffffffffffffffffffffffff1673ffffffffffffffffffffffffffffffffffffffff16815260200190815260200160002060006101000a81548160ff0219169083151502179055508173ffffffffffffffffffffffffffffffffffffffff168373ffffffffffffffffffffffffffffffffffffffff167f17307eab39ab6107e8899845ad3d59bd9653f200f220920489ca2b5937696c3183604051611e11919061373b565b60405180910390a3505050565b611e298484846117d9565b611e358484848461226b565b611e74576040517f08c379a0000000000000000000000000000000000000000000000000000000008152600401611e6b906137ed565b60405180910390fd5b50505050565b606060405180602001604052806000815250905090565b6060611e9c826115ce565b611edb576040517f08c379a0000000000000000000000000000000000000000000000000000000008152600401611ed2906139ad565b60405180910390fd5b6000611ee5611e7a565b90506000815111611f055760405180602001604052806000815250611f30565b80611f0f84611a35565b604051602001611f209291906134c0565b6040516020818303038152906040525b915050919050565b60606000825190506000811415611f6157604051806020016040528060008152509150506120f1565b60006003600283611f729190613ae1565b611f7c9190613b37565b6004611f889190613b68565b90506000602082611f999190613ae1565b67ffffffffffffffff811115611fd8577f4e487b7100000000000000000000000000000000000000000000000000000000600052604160045260246000fd5b6040519080825280601f01601f19166020018201604052801561200a5781602001600182028036833780820191505090505b5090506000604051806060016040528060408152602001613ea7604091399050600181016020830160005b868110156120ae5760038101905062ffffff818a015116603f8160121c168401518060081b905060ff603f83600c1c1686015116810190508060081b905060ff603f8360061c1686015116810190508060081b905060ff603f831686015116810190508060e01b90508084526004840193505050612035565b5060038606600181146120c857600281146120d8576120e3565b613d3d60f01b60028303526120e3565b603d60f81b60018303525b508484525050819450505050505b919050565b612110828260405180602001604052806000815250612402565b5050565b61211d826115ce565b61215c576040517f08c379a00000000000000000000000000000000000000000000000000000000081526004016121539061390d565b60405180910390fd5b8060066000848152602001908152602001600020908051906020019061218392919061263e565b505050565b6001816000016000828254019250508190555050565b6122388383836040516024016121b6939291906137af565b6040516020818303038152906040527fe3849f79000000000000000000000000000000000000000000000000000000007bffffffffffffffffffffffffffffffffffffffffffffffffffffffff19166020820180517bffffffffffffffffffffffffffffffffffffffffffffffffffffffff838183161783525050505061223d565b505050565b60008151905060006a636f6e736f6c652e6c6f679050602083016000808483855afa5050505050565b505050565b600061228c8473ffffffffffffffffffffffffffffffffffffffff1661245d565b156123f5578373ffffffffffffffffffffffffffffffffffffffff1663150b7a026122b561163a565b8786866040518563ffffffff1660e01b81526004016122d794939291906136c6565b602060405180830381600087803b1580156122f157600080fd5b505af192505050801561232257506040513d601f19601f8201168201806040525081019061231f9190612982565b60015b6123a5573d8060008114612352576040519150601f19603f3d011682016040523d82523d6000602084013e612357565b606091505b5060008151141561239d576040517f08c379a0000000000000000000000000000000000000000000000000000000008152600401612394906137ed565b60405180910390fd5b805181602001fd5b63150b7a0260e01b7bffffffffffffffffffffffffffffffffffffffffffffffffffffffff1916817bffffffffffffffffffffffffffffffffffffffffffffffffffffffff1916149150506123fa565b600190505b949350505050565b61240c8383612470565b612419600084848461226b565b612458576040517f08c379a000000000000000000000000000000000000000000000000000000000815260040161244f906137ed565b60405180910390fd5b505050565b600080823b905060008111915050919050565b600073ffffffffffffffffffffffffffffffffffffffff168273ffffffffffffffffffffffffffffffffffffffff1614156124e0576040517f08c379a00000000000000000000000000000000000000000000000000000000081526004016124d79061392d565b60405180910390fd5b6124e9816115ce565b15612529576040517f08c379a00000000000000000000000000000000000000000000000000000000081526004016125209061380d565b60405180910390fd5b61253560008383612266565b6001600360008473ffffffffffffffffffffffffffffffffffffffff1673ffffffffffffffffffffffffffffffffffffffff16815260200190815260200160002060008282546125859190613ae1565b92505081905550816002600083815260200190815260200160002060006101000a81548173ffffffffffffffffffffffffffffffffffffffff021916908373ffffffffffffffffffffffffffffffffffffffff160217905550808273ffffffffffffffffffffffffffffffffffffffff16600073ffffffffffffffffffffffffffffffffffffffff167fddf252ad1be2c89b69c2b068fc378daa952ba7f163c4a11628f55a4df523b3ef60405160405180910390a45050565b82805461264a90613cac565b90600052602060002090601f01602090048101928261266c57600085556126b3565b82601f1061268557805160ff19168380011785556126b3565b828001600101855582156126b3579182015b828111156126b2578251825591602001919060010190612697565b5b5090506126c091906126c4565b5090565b5b808211156126dd5760008160009055506001016126c5565b5090565b60006126f46126ef84613a59565b613a28565b90508281526020810184848401111561270c57600080fd5b612717848285613c6a565b509392505050565b60008135905061272e81613e25565b92915050565b60008135905061274381613e3c565b92915050565b60008135905061275881613e53565b92915050565b60008151905061276d81613e53565b92915050565b600082601f83011261278457600080fd5b81356127948482602086016126e1565b91505092915050565b6000813590506127ac81613e6a565b92915050565b6000602082840312156127c457600080fd5b60006127d28482850161271f565b91505092915050565b600080604083850312156127ee57600080fd5b60006127fc8582860161271f565b925050602061280d8582860161271f565b9150509250929050565b60008060006060848603121561282c57600080fd5b600061283a8682870161271f565b935050602061284b8682870161271f565b925050604061285c8682870161279d565b9150509250925092565b6000806000806080858703121561287c57600080fd5b600061288a8782880161271f565b945050602061289b8782880161271f565b93505060406128ac8782880161279d565b925050606085013567ffffffffffffffff8111156128c957600080fd5b6128d587828801612773565b91505092959194509250565b600080604083850312156128f457600080fd5b60006129028582860161271f565b925050602061291385828601612734565b9150509250929050565b6000806040838503121561293057600080fd5b600061293e8582860161271f565b925050602061294f8582860161279d565b9150509250929050565b60006020828403121561296b57600080fd5b600061297984828501612749565b91505092915050565b60006020828403121561299457600080fd5b60006129a28482850161275e565b91505092915050565b6000602082840312156129bd57600080fd5b60006129cb8482850161279d565b91505092915050565b6129dd81613bf6565b82525050565b6129ec81613c08565b82525050565b60006129fd82613a9e565b612a078185613ab4565b9350612a17818560208601613c79565b612a2081613e14565b840191505092915050565b6000612a3682613aa9565b612a408185613ac5565b9350612a50818560208601613c79565b612a5981613e14565b840191505092915050565b6000612a6f82613aa9565b612a798185613ad6565b9350612a89818560208601613c79565b80840191505092915050565b60008154612aa281613cac565b612aac8186613ad6565b94506001821660008114612ac75760018114612ad857612b0b565b60ff19831686528186019350612b0b565b612ae185613a89565b60005b83811015612b0357815481890152600182019150602081019050612ae4565b838801955050505b50505092915050565b6000612b21602583613ad6565b91507f68747470733a2f2f6e6674707265766965772e30786465762e636f6465732f3f60008301527f636f64653d0000000000000000000000000000000000000000000000000000006020830152602582019050919050565b6000612b87603283613ac5565b91507f4552433732313a207472616e7366657220746f206e6f6e20455243373231526560008301527f63656976657220696d706c656d656e74657200000000000000000000000000006020830152604082019050919050565b6000612bed601c83613ac5565b91507f4552433732313a20746f6b656e20616c7265616479206d696e746564000000006000830152602082019050919050565b6000612c2d600a83613ad6565b91507f54484952445f574f5244000000000000000000000000000000000000000000006000830152600a82019050919050565b6000612c6d600a83613ad6565b91507f434f4c4f525f5459504f000000000000000000000000000000000000000000006000830152600a82019050919050565b6000612cad601b83613ac5565b91507f35302f353020746f6b656e7320616c7265616479206d696e65642100000000006000830152602082019050919050565b6000612ced602483613ac5565b91507f4552433732313a207472616e7366657220746f20746865207a65726f2061646460008301527f72657373000000000000000000000000000000000000000000000000000000006020830152604082019050919050565b6000612d53601983613ac5565b91507f4552433732313a20617070726f766520746f2063616c6c6572000000000000006000830152602082019050919050565b6000612d93606383613ad6565b91507f222c20226465736372697074696f6e223a20224120686967686c79206163636c60008301527f61696d656420636f6c6c656374696f6e206f6620737175617265732e222c202260208301527f696d616765223a2022646174613a696d6167652f7376672b786d6c3b6261736560408301527f36342c00000000000000000000000000000000000000000000000000000000006060830152606382019050919050565b6000612e45600b83613ad6565b91507f5345434f4e445f574f52440000000000000000000000000000000000000000006000830152600b82019050919050565b6000612e85602c83613ac5565b91507f4552433732313a206f70657261746f7220717565727920666f72206e6f6e657860008301527f697374656e7420746f6b656e00000000000000000000000000000000000000006020830152604082019050919050565b6000612eeb600d83613ad6565b91507f3c2f746578743e3c2f7376673e000000000000000000000000000000000000006000830152600d82019050919050565b6000612f2b603883613ac5565b91507f4552433732313a20617070726f76652063616c6c6572206973206e6f74206f7760008301527f6e6572206e6f7220617070726f76656420666f7220616c6c00000000000000006020830152604082019050919050565b6000612f91602a83613ac5565b91507f4552433732313a2062616c616e636520717565727920666f7220746865207a6560008301527f726f2061646472657373000000000000000000000000000000000000000000006020830152604082019050919050565b6000612ff7602983613ac5565b91507f4552433732313a206f776e657220717565727920666f72206e6f6e657869737460008301527f656e7420746f6b656e00000000000000000000000000000000000000000000006020830152604082019050919050565b600061305d602e83613ac5565b91507f45524337323155524953746f726167653a2055524920736574206f66206e6f6e60008301527f6578697374656e7420746f6b656e0000000000000000000000000000000000006020830152604082019050919050565b60006130c3600283613ad6565b91507f227d0000000000000000000000000000000000000000000000000000000000006000830152600282019050919050565b6000613103602083613ac5565b91507f4552433732313a206d696e7420746f20746865207a65726f20616464726573736000830152602082019050919050565b6000613143603183613ac5565b91507f45524337323155524953746f726167653a2055524920717565727920666f722060008301527f6e6f6e6578697374656e7420746f6b656e0000000000000000000000000000006020830152604082019050919050565b60006131a9602c83613ac5565b91507f4552433732313a20617070726f76656420717565727920666f72206e6f6e657860008301527f697374656e7420746f6b656e00000000000000000000000000000000000000006020830152604082019050919050565b600061320f602983613ac5565b91507f4552433732313a207472616e73666572206f6620746f6b656e2074686174206960008301527f73206e6f74206f776e00000000000000000000000000000000000000000000006020830152604082019050919050565b6000613275602f83613ac5565b91507f4552433732314d657461646174613a2055524920717565727920666f72206e6f60008301527f6e6578697374656e7420746f6b656e00000000000000000000000000000000006020830152604082019050919050565b60006132db600a83613ad6565b91507f7b226e616d65223a2022000000000000000000000000000000000000000000006000830152600a82019050919050565b600061331b602183613ac5565b91507f4552433732313a20617070726f76616c20746f2063757272656e74206f776e6560008301527f72000000000000000000000000000000000000000000000000000000000000006020830152604082019050919050565b6000613381600a83613ad6565b91507f46495253545f574f5244000000000000000000000000000000000000000000006000830152600a82019050919050565b60006133c1601d83613ad6565b91507f646174613a6170706c69636174696f6e2f6a736f6e3b6261736536342c0000006000830152601d82019050919050565b6000613401603183613ac5565b91507f4552433732313a207472616e736665722063616c6c6572206973206e6f74206f60008301527f776e6572206e6f7220617070726f7665640000000000000000000000000000006020830152604082019050919050565b6000613467600583613ad6565b91507f434f4c4f520000000000000000000000000000000000000000000000000000006000830152600582019050919050565b6134a381613c60565b82525050565b60006134b58284612a64565b915081905092915050565b60006134cc8285612a64565b91506134d88284612a64565b91508190509392505050565b60006134f08286612a64565b91506134fc8285612a64565b91506135088284612a64565b9150819050949350505050565b60006135218289612a95565b915061352d8288612a64565b91506135398287612a95565b91506135458286612a64565b91506135518285612a95565b915061355d8284612a64565b915061356882612ede565b9150819050979650505050505050565b600061358382612b14565b915061358f8284612a64565b915081905092915050565b60006135a582612c20565b91506135b18284612a64565b915081905092915050565b60006135c782612c60565b91506135d38284612a64565b915081905092915050565b60006135e982612e38565b91506135f58284612a64565b915081905092915050565b600061360b826132ce565b91506136178285612a64565b915061362282612d86565b915061362e8284612a64565b9150613639826130b6565b91508190509392505050565b600061365082613374565b915061365c8284612a64565b915081905092915050565b6000613672826133b4565b915061367e8284612a64565b915081905092915050565b60006136948261345a565b91506136a08284612a64565b915081905092915050565b60006020820190506136c060008301846129d4565b92915050565b60006080820190506136db60008301876129d4565b6136e860208301866129d4565b6136f5604083018561349a565b818103606083015261370781846129f2565b905095945050505050565b600060408201905061372760008301856129d4565b613734602083018461349a565b9392505050565b600060208201905061375060008301846129e3565b92915050565b600060208201905081810360008301526137708184612a2b565b905092915050565b600060408201905081810360008301526137928185612a2b565b905081810360208301526137a68184612a2b565b90509392505050565b600060608201905081810360008301526137c98186612a2b565b90506137d8602083018561349a565b6137e560408301846129d4565b949350505050565b6000602082019050818103600083015261380681612b7a565b9050919050565b6000602082019050818103600083015261382681612be0565b9050919050565b6000602082019050818103600083015261384681612ca0565b9050919050565b6000602082019050818103600083015261386681612ce0565b9050919050565b6000602082019050818103600083015261388681612d46565b9050919050565b600060208201905081810360008301526138a681612e78565b9050919050565b600060208201905081810360008301526138c681612f1e565b9050919050565b600060208201905081810360008301526138e681612f84565b9050919050565b6000602082019050818103600083015261390681612fea565b9050919050565b6000602082019050818103600083015261392681613050565b9050919050565b60006020820190508181036000830152613946816130f6565b9050919050565b6000602082019050818103600083015261396681613136565b9050919050565b600060208201905081810360008301526139868161319c565b9050919050565b600060208201905081810360008301526139a681613202565b9050919050565b600060208201905081810360008301526139c681613268565b9050919050565b600060208201905081810360008301526139e68161330e565b9050919050565b60006020820190508181036000830152613a06816133f4565b9050919050565b6000602082019050613a22600083018461349a565b92915050565b6000604051905081810181811067ffffffffffffffff82111715613a4f57613a4e613de5565b5b8060405250919050565b600067ffffffffffffffff821115613a7457613a73613de5565b5b601f19601f8301169050602081019050919050565b60008190508160005260206000209050919050565b600081519050919050565b600081519050919050565b600082825260208201905092915050565b600082825260208201905092915050565b600081905092915050565b6000613aec82613c60565b9150613af783613c60565b9250827fffffffffffffffffffffffffffffffffffffffffffffffffffffffffffffffff03821115613b2c57613b2b613d58565b5b828201905092915050565b6000613b4282613c60565b9150613b4d83613c60565b925082613b5d57613b5c613d87565b5b828204905092915050565b6000613b7382613c60565b9150613b7e83613c60565b9250817fffffffffffffffffffffffffffffffffffffffffffffffffffffffffffffffff0483118215151615613bb757613bb6613d58565b5b828202905092915050565b6000613bcd82613c60565b9150613bd883613c60565b925082821015613beb57613bea613d58565b5b828203905092915050565b6000613c0182613c40565b9050919050565b60008115159050919050565b60007fffffffff0000000000000000000000000000000000000000000000000000000082169050919050565b600073ffffffffffffffffffffffffffffffffffffffff82169050919050565b6000819050919050565b82818337600083830152505050565b60005b83811015613c97578082015181840152602081019050613c7c565b83811115613ca6576000848401525b50505050565b60006002820490506001821680613cc457607f821691505b60208210811415613cd857613cd7613db6565b5b50919050565b6000613ce982613c60565b91507fffffffffffffffffffffffffffffffffffffffffffffffffffffffffffffffff821415613d1c57613d1b613d58565b5b600182019050919050565b6000613d3282613c60565b9150613d3d83613c60565b925082613d4d57613d4c613d87565b5b828206905092915050565b7f4e487b7100000000000000000000000000000000000000000000000000000000600052601160045260246000fd5b7f4e487b7100000000000000000000000000000000000000000000000000000000600052601260045260246000fd5b7f4e487b7100000000000000000000000000000000000000000000000000000000600052602260045260246000fd5b7f4e487b7100000000000000000000000000000000000000000000000000000000600052604160045260246000fd5b6000601f19601f8301169050919050565b613e2e81613bf6565b8114613e3957600080fd5b50565b613e4581613c08565b8114613e5057600080fd5b50565b613e5c81613c14565b8114613e6757600080fd5b50565b613e7381613c60565b8114613e7e57600080fd5b5056fe416e204e465420772f20494420257320686173206265656e206d696e74656420746f2025734142434445464748494a4b4c4d4e4f505152535455565758595a6162636465666768696a6b6c6d6e6f707172737475767778797a303132333435363738392b2fa264697066735822122074158fc0c266b09105021a7df42af37cc7cef369e7817b2d5fe6e719aa91735264736f6c634300080000333b20666f6e742d66616d696c793a2073657269663b20666f6e742d73697a653a20323470783b207d3c2f7374796c653e3c726563742077696474683d273130302527206865696768743d2731303025272066696c6c3d273c73766720786d6c6e733d27687474703a2f2f7777772e77332e6f72672f323030302f73766727207072657365727665417370656374526174696f3d27784d696e594d696e206d656574272076696577426f783d273020302033353020333530273e3c7374796c653e2e62617365207b2066696c6c3a272f3e3c7465787420783d273530252720793d273530252720636c6173733d27626173652720646f6d696e616e742d626173656c696e653d276d6964646c652720746578742d616e63686f723d276d6964646c65273e",
  "linkReferences": {},
  "deployedLinkReferences": {}
}