{
  "_format": "hh-sol-artifact-1",
  "contractName": "MyEpicNFT",
  "sourceName": "contracts/MyEpicNFT.sol",
  "abi": [
    {
      "inputs": [],
      "stateMutability": "nonpayable",
      "type": "constructor"
    },
    {
      "anonymous": false,
      "inputs": [
        {
          "indexed": true,
          "internalType": "address",
          "name": "owner",
          "type": "address"
        },
        {
          "indexed": true,
          "internalType": "address",
          "name": "approved",
          "type": "address"
        },
        {
          "indexed": true,
          "internalType": "uint256",
          "name": "tokenId",
          "type": "uint256"
        }
      ],
      "name": "Approval",
      "type": "event"
    },
    {
      "anonymous": false,
      "inputs": [
        {
          "indexed": true,
          "internalType": "address",
          "name": "owner",
          "type": "address"
        },
        {
          "indexed": true,
          "internalType": "address",
          "name": "operator",
          "type": "address"
        },
        {
          "indexed": false,
          "internalType": "bool",
          "name": "approved",
          "type": "bool"
        }
      ],
      "name": "ApprovalForAll",
      "type": "event"
    },
    {
      "anonymous": false,
      "inputs": [
        {
          "indexed": false,
          "internalType": "address",
          "name": "sender",
          "type": "address"
        },
        {
          "indexed": false,
          "internalType": "uint256",
          "name": "tokenId",
          "type": "uint256"
        }
      ],
      "name": "NewEpicNFTMinted",
      "type": "event"
    },
    {
      "anonymous": false,
      "inputs": [
        {
          "indexed": true,
          "internalType": "address",
          "name": "from",
          "type": "address"
        },
        {
          "indexed": true,
          "internalType": "address",
          "name": "to",
          "type": "address"
        },
        {
          "indexed": true,
          "internalType": "uint256",
          "name": "tokenId",
          "type": "uint256"
        }
      ],
      "name": "Transfer",
      "type": "event"
    },
    {
      "anonymous": false,
      "inputs": [
        {
          "indexed": false,
          "internalType": "address",
          "name": "sender",
          "type": "address"
        },
        {
          "indexed": false,
          "internalType": "uint256",
          "name": "tokenId",
          "type": "uint256"
        }
      ],
      "name": "getTotalNFTsMintedSoFar",
      "type": "event"
    },
    {
      "inputs": [
        {
          "internalType": "address",
          "name": "to",
          "type": "address"
        },
        {
          "internalType": "uint256",
          "name": "tokenId",
          "type": "uint256"
        }
      ],
      "name": "approve",
      "outputs": [],
      "stateMutability": "nonpayable",
      "type": "function"
    },
    {
      "inputs": [
        {
          "internalType": "address",
          "name": "owner",
          "type": "address"
        }
      ],
      "name": "balanceOf",
      "outputs": [
        {
          "internalType": "uint256",
          "name": "",
          "type": "uint256"
        }
      ],
      "stateMutability": "view",
      "type": "function"
    },
    {
      "inputs": [
        {
          "internalType": "uint256",
          "name": "tokenId",
          "type": "uint256"
        }
      ],
      "name": "getApproved",
      "outputs": [
        {
          "internalType": "address",
          "name": "",
          "type": "address"
        }
      ],
      "stateMutability": "view",
      "type": "function"
    },
    {
      "inputs": [
        {
          "internalType": "address",
          "name": "owner",
          "type": "address"
        },
        {
          "internalType": "address",
          "name": "operator",
          "type": "address"
        }
      ],
      "name": "isApprovedForAll",
      "outputs": [
        {
          "internalType": "bool",
          "name": "",
          "type": "bool"
        }
      ],
      "stateMutability": "view",
      "type": "function"
    },
    {
      "inputs": [],
      "name": "makeAnEpicNFT",
      "outputs": [],
      "stateMutability": "nonpayable",
      "type": "function"
    },
    {
      "inputs": [],
      "name": "name",
      "outputs": [
        {
          "internalType": "string",
          "name": "",
          "type": "string"
        }
      ],
      "stateMutability": "view",
      "type": "function"
    },
    {
      "inputs": [
        {
          "internalType": "uint256",
          "name": "tokenId",
          "type": "uint256"
        }
      ],
      "name": "ownerOf",
      "outputs": [
        {
          "internalType": "address",
          "name": "",
          "type": "address"
        }
      ],
      "stateMutability": "view",
      "type": "function"
    },
    {
      "inputs": [
        {
          "internalType": "uint256",
          "name": "tokenId",
          "type": "uint256"
        }
      ],
      "name": "pickRandomColor",
      "outputs": [
        {
          "internalType": "string",
          "name": "",
          "type": "string"
        }
      ],
      "stateMutability": "view",
      "type": "function"
    },
    {
      "inputs": [
        {
          "internalType": "uint256",
          "name": "tokenId",
          "type": "uint256"
        }
      ],
      "name": "pickRandomColorTypo",
      "outputs": [
        {
          "internalType": "string",
          "name": "",
          "type": "string"
        }
      ],
      "stateMutability": "view",
      "type": "function"
    },
    {
      "inputs": [
        {
          "internalType": "uint256",
          "name": "tokenId",
          "type": "uint256"
        }
      ],
      "name": "pickRandomFirstWord",
      "outputs": [
        {
          "internalType": "string",
          "name": "",
          "type": "string"
        }
      ],
      "stateMutability": "view",
      "type": "function"
    },
    {
      "inputs": [
        {
          "internalType": "uint256",
          "name": "tokenId",
          "type": "uint256"
        }
      ],
      "name": "pickRandomSecondWord",
      "outputs": [
        {
          "internalType": "string",
          "name": "",
          "type": "string"
        }
      ],
      "stateMutability": "view",
      "type": "function"
    },
    {
      "inputs": [
        {
          "internalType": "uint256",
          "name": "tokenId",
          "type": "uint256"
        }
      ],
      "name": "pickRandomThirdWord",
      "outputs": [
        {
          "internalType": "string",
          "name": "",
          "type": "string"
        }
      ],
      "stateMutability": "view",
      "type": "function"
    },
    {
      "inputs": [
        {
          "internalType": "address",
          "name": "from",
          "type": "address"
        },
        {
          "internalType": "address",
          "name": "to",
          "type": "address"
        },
        {
          "internalType": "uint256",
          "name": "tokenId",
          "type": "uint256"
        }
      ],
      "name": "safeTransferFrom",
      "outputs": [],
      "stateMutability": "nonpayable",
      "type": "function"
    },
    {
      "inputs": [
        {
          "internalType": "address",
          "name": "from",
          "type": "address"
        },
        {
          "internalType": "address",
          "name": "to",
          "type": "address"
        },
        {
          "internalType": "uint256",
          "name": "tokenId",
          "type": "uint256"
        },
        {
          "internalType": "bytes",
          "name": "_data",
          "type": "bytes"
        }
      ],
      "name": "safeTransferFrom",
      "outputs": [],
      "stateMutability": "nonpayable",
      "type": "function"
    },
    {
      "inputs": [
        {
          "internalType": "address",
          "name": "operator",
          "type": "address"
        },
        {
          "internalType": "bool",
          "name": "approved",
          "type": "bool"
        }
      ],
      "name": "setApprovalForAll",
      "outputs": [],
      "stateMutability": "nonpayable",
      "type": "function"
    },
    {
      "inputs": [
        {
          "internalType": "bytes4",
          "name": "interfaceId",
          "type": "bytes4"
        }
      ],
      "name": "supportsInterface",
      "outputs": [
        {
          "internalType": "bool",
          "name": "",
          "type": "bool"
        }
      ],
      "stateMutability": "view",
      "type": "function"
    },
    {
      "inputs": [],
      "name": "symbol",
      "outputs": [
        {
          "internalType": "string",
          "name": "",
          "type": "string"
        }
      ],
      "stateMutability": "view",
      "type": "function"
    },
    {
      "inputs": [
        {
          "internalType": "uint256",
          "name": "tokenId",
          "type": "uint256"
        }
      ],
      "name": "tokenURI",
      "outputs": [
        {
          "internalType": "string",
          "name": "",
          "type": "string"
        }
      ],
      "stateMutability": "view",
      "type": "function"
    },
    {
      "inputs": [
        {
          "internalType": "address",
          "name": "from",
          "type": "address"
        },
        {
          "internalType": "address",
          "name": "to",
          "type": "address"
        },
        {
          "internalType": "uint256",
          "name": "tokenId",
          "type": "uint256"
        }
      ],
      "name": "transferFrom",
      "outputs": [],
      "stateMutability": "nonpayable",
      "type": "function"
    }
  ],
  "bytecode": "0x60806040526040518060a001604052806040518060400160405280600581526020017f285f7c5f2900000000000000000000000000000000000000000000000000000081525081526020016040518060400160405280600581526020017f282b5f2b2900000000000000000000000000000000000000000000000000000081525081526020016040518060400160405280600781526020017f3c285e5f5e293e0000000000000000000000000000000000000000000000000081525081526020016040518060400160405280600781526020017f2d282d5f2d292d0000000000000000000000000000000000000000000000000081525081526020016040518060400160405280600381526020017f284f290000000000000000000000000000000000000000000000000000000000815250815250600890600562000146929190620008ef565b506040518060c001604052806040518060400160405280600a81526020017f6f3d3d7c3d3d3d3d3d2d0000000000000000000000000000000000000000000081525081526020016040518060400160405280600181526020017f610000000000000000000000000000000000000000000000000000000000000081525081526020016040518060400160405280600181526020017f620000000000000000000000000000000000000000000000000000000000000081525081526020016040518060400160405280600181526020017f630000000000000000000000000000000000000000000000000000000000000081525081526020016040518060400160405280600181526020017f640000000000000000000000000000000000000000000000000000000000000081525081526020016040518060400160405280600181526020017f65000000000000000000000000000000000000000000000000000000000000008152508152506009906006620002c492919062000956565b506040518060c001604052806040518060400160405280600181526020017f310000000000000000000000000000000000000000000000000000000000000081525081526020016040518060400160405280600181526020017f320000000000000000000000000000000000000000000000000000000000000081525081526020016040518060400160405280600181526020017f330000000000000000000000000000000000000000000000000000000000000081525081526020016040518060400160405280600181526020017f340000000000000000000000000000000000000000000000000000000000000081525081526020016040518060400160405280600181526020017f350000000000000000000000000000000000000000000000000000000000000081525081526020016040518060400160405280600581526020017f282d5f2d29000000000000000000000000000000000000000000000000000000815250815250600a9060066200044292919062000956565b5060405180606001604052806040518060400160405280600381526020017f726564000000000000000000000000000000000000000000000000000000000081525081526020016040518060400160405280600481526020017f70696e6b0000000000000000000000000000000000000000000000000000000081525081526020016040518060400160405280600581526020017f626c61636b000000000000000000000000000000000000000000000000000000815250815250600b9060036200050f929190620009bd565b506040518060c001604052806040518060400160405280600381526020017f726564000000000000000000000000000000000000000000000000000000000081525081526020016040518060400160405280600481526020017f70696e6b0000000000000000000000000000000000000000000000000000000081525081526020016040518060400160405280600481526020017f626c75650000000000000000000000000000000000000000000000000000000081525081526020016040518060400160405280600681526020017f79656c6c6f77000000000000000000000000000000000000000000000000000081525081526020016040518060400160405280600681526020017f6f72616e6765000000000000000000000000000000000000000000000000000081525081526020016040518060400160405280600581526020017f626c61636b000000000000000000000000000000000000000000000000000000815250815250600c9060066200068d92919062000956565b506040518060a001604052806077815260200162004a9e60779139600d9080519060200190620006bf92919062000a24565b5060405180608001604052806058815260200162004a4660589139600e9080519060200190620006f192919062000a24565b5060405180608001604052806058815260200162004b1560589139600f90805190602001906200072392919062000a24565b503480156200073157600080fd5b506040518060400160405280600981526020017f5371756172654e465400000000000000000000000000000000000000000000008152506040518060400160405280600681526020017f53515541524500000000000000000000000000000000000000000000000000008152508160009080519060200190620007b692919062000a24565b508060019080519060200190620007cf92919062000a24565b5050506200081d6040518060400160405280601e81526020017f54686973206973206d79204e465420636f6e74726163742e20576f61682100008152506200082360201b6200143b1760201c565b62000c6f565b620008c3816040516024016200083a919062000b83565b6040516020818303038152906040527f41304fac000000000000000000000000000000000000000000000000000000007bffffffffffffffffffffffffffffffffffffffffffffffffffffffff19166020820180517bffffffffffffffffffffffffffffffffffffffffffffffffffffffff8381831617835250505050620008c660201b60201c565b50565b60008151905060006a636f6e736f6c652e6c6f679050602083016000808483855afa5050505050565b82805482825590600052602060002090810192821562000943579160200282015b82811115620009425782518290805190602001906200093192919062000a24565b509160200191906001019062000910565b5b50905062000952919062000ab5565b5090565b828054828255906000526020600020908101928215620009aa579160200282015b82811115620009a95782518290805190602001906200099892919062000a24565b509160200191906001019062000977565b5b509050620009b9919062000ab5565b5090565b82805482825590600052602060002090810192821562000a11579160200282015b8281111562000a10578251829080519060200190620009ff92919062000a24565b5091602001919060010190620009de565b5b50905062000a20919062000ab5565b5090565b82805462000a329062000bf9565b90600052602060002090601f01602090048101928262000a56576000855562000aa2565b82601f1062000a7157805160ff191683800117855562000aa2565b8280016001018555821562000aa2579182015b8281111562000aa157825182559160200191906001019062000a84565b5b50905062000ab1919062000add565b5090565b5b8082111562000ad9576000818162000acf919062000afc565b5060010162000ab6565b5090565b5b8082111562000af857600081600090555060010162000ade565b5090565b50805462000b0a9062000bf9565b6000825580601f1062000b1e575062000b3f565b601f01602090049060005260206000209081019062000b3e919062000add565b5b50565b600062000b4f8262000ba7565b62000b5b818562000bb2565b935062000b6d81856020860162000bc3565b62000b788162000c5e565b840191505092915050565b6000602082019050818103600083015262000b9f818462000b42565b905092915050565b600081519050919050565b600082825260208201905092915050565b60005b8381101562000be357808201518184015260208101905062000bc6565b8381111562000bf3576000848401525b50505050565b6000600282049050600182168062000c1257607f821691505b6020821081141562000c295762000c2862000c2f565b5b50919050565b7f4e487b7100000000000000000000000000000000000000000000000000000000600052602260045260246000fd5b6000601f19601f8301169050919050565b613dc78062000c7f6000396000f3fe608060405234801561001057600080fd5b50600436106101215760003560e01c806370a08231116100ad578063c575757a11610071578063c575757a1461033e578063c87b56dd1461036e578063de9d132f1461039e578063e985e9c5146103a8578063f99001d3146103d857610121565b806370a082311461028857806395d89b41146102b8578063a22cb465146102d6578063b187301f146102f2578063b88d4fde1461032257610121565b806323b872dd116100f457806323b872dd146101c05780632de38d68146101dc57806342842e0e1461020c578063514dc8c6146102285780636352211e1461025857610121565b806301ffc9a71461012657806306fdde0314610156578063081812fc14610174578063095ea7b3146101a4575b600080fd5b610140600480360381019061013b919061283b565b610408565b60405161014d919061361d565b60405180910390f35b61015e6104ea565b60405161016b9190613638565b60405180910390f35b61018e6004803603810190610189919061288d565b61057c565b60405161019b919061358d565b60405180910390f35b6101be60048036038101906101b991906127ff565b610601565b005b6101da60048036038101906101d591906126f9565b610719565b005b6101f660048036038101906101f1919061288d565b610779565b6040516102039190613638565b60405180910390f35b610226600480360381019061022191906126f9565b610897565b005b610242600480360381019061023d919061288d565b6108b7565b60405161024f9190613638565b60405180910390f35b610272600480360381019061026d919061288d565b6109d5565b60405161027f919061358d565b60405180910390f35b6102a2600480360381019061029d9190612694565b610a87565b6040516102af91906138b8565b60405180910390f35b6102c0610b3f565b6040516102cd9190613638565b60405180910390f35b6102f060048036038101906102eb91906127c3565b610bd1565b005b61030c6004803603810190610307919061288d565b610be7565b6040516103199190613638565b60405180910390f35b61033c60048036038101906103379190612748565b610d05565b005b6103586004803603810190610353919061288d565b610d67565b6040516103659190613638565b60405180910390f35b6103886004803603810190610383919061288d565b610e85565b6040516103959190613638565b60405180910390f35b6103a6610fd7565b005b6103c260048036038101906103bd91906126bd565b611289565b6040516103cf919061361d565b60405180910390f35b6103f260048036038101906103ed919061288d565b61131d565b6040516103ff9190613638565b60405180910390f35b60007f80ac58cd000000000000000000000000000000000000000000000000000000007bffffffffffffffffffffffffffffffffffffffffffffffffffffffff1916827bffffffffffffffffffffffffffffffffffffffffffffffffffffffff191614806104d357507f5b5e139f000000000000000000000000000000000000000000000000000000007bffffffffffffffffffffffffffffffffffffffffffffffffffffffff1916827bffffffffffffffffffffffffffffffffffffffffffffffffffffffff1916145b806104e357506104e2826114d4565b5b9050919050565b6060600080546104f990613b57565b80601f016020809104026020016040519081016040528092919081815260200182805461052590613b57565b80156105725780601f1061054757610100808354040283529160200191610572565b820191906000526020600020905b81548152906001019060200180831161055557829003601f168201915b5050505050905090565b60006105878261153e565b6105c6576040517f08c379a00000000000000000000000000000000000000000000000000000000081526004016105bd90613818565b60405180910390fd5b6004600083815260200190815260200160002060009054906101000a900473ffffffffffffffffffffffffffffffffffffffff169050919050565b600061060c826109d5565b90508073ffffffffffffffffffffffffffffffffffffffff168373ffffffffffffffffffffffffffffffffffffffff16141561067d576040517f08c379a000000000000000000000000000000000000000000000000000000000815260040161067490613878565b60405180910390fd5b8073ffffffffffffffffffffffffffffffffffffffff1661069c6115aa565b73ffffffffffffffffffffffffffffffffffffffff1614806106cb57506106ca816106c56115aa565b611289565b5b61070a576040517f08c379a000000000000000000000000000000000000000000000000000000000815260040161070190613758565b60405180910390fd5b61071483836115b2565b505050565b61072a6107246115aa565b8261166b565b610769576040517f08c379a000000000000000000000000000000000000000000000000000000000815260040161076090613898565b60405180910390fd5b610774838383611749565b505050565b606060006107ad610789846119a5565b6040516020016107999190613527565b604051602081830303815290604052611b52565b9050600880549050816107c09190613bd2565b9050600881815481106107fc577f4e487b7100000000000000000000000000000000000000000000000000000000600052603260045260246000fd5b90600052602060002001805461081190613b57565b80601f016020809104026020016040519081016040528092919081815260200182805461083d90613b57565b801561088a5780601f1061085f5761010080835404028352916020019161088a565b820191906000526020600020905b81548152906001019060200180831161086d57829003601f168201915b5050505050915050919050565b6108b283838360405180602001604052806000815250610d05565b505050565b606060006108eb6108c7846119a5565b6040516020016108d7919061356b565b604051602081830303815290604052611b52565b9050600b80549050816108fe9190613bd2565b9050600b818154811061093a577f4e487b7100000000000000000000000000000000000000000000000000000000600052603260045260246000fd5b90600052602060002001805461094f90613b57565b80601f016020809104026020016040519081016040528092919081815260200182805461097b90613b57565b80156109c85780601f1061099d576101008083540402835291602001916109c8565b820191906000526020600020905b8154815290600101906020018083116109ab57829003601f168201915b5050505050915050919050565b6000806002600084815260200190815260200160002060009054906101000a900473ffffffffffffffffffffffffffffffffffffffff169050600073ffffffffffffffffffffffffffffffffffffffff168173ffffffffffffffffffffffffffffffffffffffff161415610a7e576040517f08c379a0000000000000000000000000000000000000000000000000000000008152600401610a7590613798565b60405180910390fd5b80915050919050565b60008073ffffffffffffffffffffffffffffffffffffffff168273ffffffffffffffffffffffffffffffffffffffff161415610af8576040517f08c379a0000000000000000000000000000000000000000000000000000000008152600401610aef90613778565b60405180910390fd5b600360008373ffffffffffffffffffffffffffffffffffffffff1673ffffffffffffffffffffffffffffffffffffffff168152602001908152602001600020549050919050565b606060018054610b4e90613b57565b80601f0160208091040260200160405190810160405280929190818152602001828054610b7a90613b57565b8015610bc75780601f10610b9c57610100808354040283529160200191610bc7565b820191906000526020600020905b815481529060010190602001808311610baa57829003601f168201915b5050505050905090565b610be3610bdc6115aa565b8383611b85565b5050565b60606000610c1b610bf7846119a5565b604051602001610c0791906134c0565b604051602081830303815290604052611b52565b905060098054905081610c2e9190613bd2565b905060098181548110610c6a577f4e487b7100000000000000000000000000000000000000000000000000000000600052603260045260246000fd5b906000526020600020018054610c7f90613b57565b80601f0160208091040260200160405190810160405280929190818152602001828054610cab90613b57565b8015610cf85780601f10610ccd57610100808354040283529160200191610cf8565b820191906000526020600020905b815481529060010190602001808311610cdb57829003601f168201915b5050505050915050919050565b610d16610d106115aa565b8361166b565b610d55576040517f08c379a0000000000000000000000000000000000000000000000000000000008152600401610d4c90613898565b60405180910390fd5b610d6184848484611cf2565b50505050565b60606000610d9b610d77846119a5565b604051602001610d87919061347c565b604051602081830303815290604052611b52565b9050600a8054905081610dae9190613bd2565b9050600a8181548110610dea577f4e487b7100000000000000000000000000000000000000000000000000000000600052603260045260246000fd5b906000526020600020018054610dff90613b57565b80601f0160208091040260200160405190810160405280929190818152602001828054610e2b90613b57565b8015610e785780601f10610e4d57610100808354040283529160200191610e78565b820191906000526020600020905b815481529060010190602001808311610e5b57829003601f168201915b5050505050915050919050565b6060610e908261153e565b610ecf576040517f08c379a0000000000000000000000000000000000000000000000000000000008152600401610ec6906137f8565b60405180910390fd5b6000600660008481526020019081526020016000208054610eef90613b57565b80601f0160208091040260200160405190810160405280929190818152602001828054610f1b90613b57565b8015610f685780601f10610f3d57610100808354040283529160200191610f68565b820191906000526020600020905b815481529060010190602001808311610f4b57829003601f168201915b505050505090506000610f79611d4e565b9050600081511415610f8f578192505050610fd2565b600082511115610fc4578082604051602001610fac9291906133a2565b60405160208183030381529060405292505050610fd2565b610fcd84611d65565b925050505b919050565b6000610fe36007611e0c565b90506032811115611029576040517f08c379a0000000000000000000000000000000000000000000000000000000008152600401611020906136d8565b60405180910390fd5b600061103482610779565b9050600061104183610be7565b9050600061104e84610d67565b9050600061105b856108b7565b905060006110688661131d565b90506000858585604051602001611081939291906133c6565b60405160208183030381529060405290506000600d83600e86600f866040516020016110b2969594939291906133f7565b604051602081830303815290604052905060006110f7836110d284611e1a565b6040516020016110e39291906134e2565b604051602081830303815290604052611e1a565b905060008160405160200161110c9190613549565b604051602081830303815290604052905061115b6040518060400160405280601581526020017f0a2d2d2d2d2d2d2d2d2d2d2d2d2d2d2d2d2d2d2d2d000000000000000000000081525061143b565b6111838160405160200161116f919061345a565b60405160208183030381529060405261143b565b6111c16040518060400160405280601581526020017f2d2d2d2d2d2d2d2d2d2d2d2d2d2d2d2d2d2d2d2d0a000000000000000000000081525061143b565b6111cb338b611fd8565b6111d58a82611ff6565b6111f8604051806060016040528060258152602001613d2d602591398b3361206a565b7febb98688741ffa4c7589bf325de30cf7becb63de567842e1ccdb6cb949fdc82c338b6040516112299291906135f4565b60405180910390a17f9c68f06e7454c83f1c115b527b4bee89aea6a5acb87d660a4537c0622e8d1e5e3361125d6007611e0c565b60405161126b9291906135f4565b60405180910390a161127d6007612109565b50505050505050505050565b6000600560008473ffffffffffffffffffffffffffffffffffffffff1673ffffffffffffffffffffffffffffffffffffffff16815260200190815260200160002060008373ffffffffffffffffffffffffffffffffffffffff1673ffffffffffffffffffffffffffffffffffffffff16815260200190815260200160002060009054906101000a900460ff16905092915050565b6060600061135161132d846119a5565b60405160200161133d919061349e565b604051602081830303815290604052611b52565b9050600c80549050816113649190613bd2565b9050600c81815481106113a0577f4e487b7100000000000000000000000000000000000000000000000000000000600052603260045260246000fd5b9060005260206000200180546113b590613b57565b80601f01602080910402602001604051908101604052809291908181526020018280546113e190613b57565b801561142e5780601f106114035761010080835404028352916020019161142e565b820191906000526020600020905b81548152906001019060200180831161141157829003601f168201915b5050505050915050919050565b6114d18160405160240161144f9190613638565b6040516020818303038152906040527f41304fac000000000000000000000000000000000000000000000000000000007bffffffffffffffffffffffffffffffffffffffffffffffffffffffff19166020820180517bffffffffffffffffffffffffffffffffffffffffffffffffffffffff838183161783525050505061211f565b50565b60007f01ffc9a7000000000000000000000000000000000000000000000000000000007bffffffffffffffffffffffffffffffffffffffffffffffffffffffff1916827bffffffffffffffffffffffffffffffffffffffffffffffffffffffff1916149050919050565b60008073ffffffffffffffffffffffffffffffffffffffff166002600084815260200190815260200160002060009054906101000a900473ffffffffffffffffffffffffffffffffffffffff1673ffffffffffffffffffffffffffffffffffffffff1614159050919050565b600033905090565b816004600083815260200190815260200160002060006101000a81548173ffffffffffffffffffffffffffffffffffffffff021916908373ffffffffffffffffffffffffffffffffffffffff160217905550808273ffffffffffffffffffffffffffffffffffffffff16611625836109d5565b73ffffffffffffffffffffffffffffffffffffffff167f8c5be1e5ebec7d5bd14f71427d1e84f3dd0314c0f7b2291e5b200ac8c7c3b92560405160405180910390a45050565b60006116768261153e565b6116b5576040517f08c379a00000000000000000000000000000000000000000000000000000000081526004016116ac90613738565b60405180910390fd5b60006116c0836109d5565b90508073ffffffffffffffffffffffffffffffffffffffff168473ffffffffffffffffffffffffffffffffffffffff16148061172f57508373ffffffffffffffffffffffffffffffffffffffff166117178461057c565b73ffffffffffffffffffffffffffffffffffffffff16145b80611740575061173f8185611289565b5b91505092915050565b8273ffffffffffffffffffffffffffffffffffffffff16611769826109d5565b73ffffffffffffffffffffffffffffffffffffffff16146117bf576040517f08c379a00000000000000000000000000000000000000000000000000000000081526004016117b690613838565b60405180910390fd5b600073ffffffffffffffffffffffffffffffffffffffff168273ffffffffffffffffffffffffffffffffffffffff16141561182f576040517f08c379a0000000000000000000000000000000000000000000000000000000008152600401611826906136f8565b60405180910390fd5b61183a838383612148565b6118456000826115b2565b6001600360008573ffffffffffffffffffffffffffffffffffffffff1673ffffffffffffffffffffffffffffffffffffffff16815260200190815260200160002060008282546118959190613a6d565b925050819055506001600360008473ffffffffffffffffffffffffffffffffffffffff1673ffffffffffffffffffffffffffffffffffffffff16815260200190815260200160002060008282546118ec919061398c565b92505081905550816002600083815260200190815260200160002060006101000a81548173ffffffffffffffffffffffffffffffffffffffff021916908373ffffffffffffffffffffffffffffffffffffffff160217905550808273ffffffffffffffffffffffffffffffffffffffff168473ffffffffffffffffffffffffffffffffffffffff167fddf252ad1be2c89b69c2b068fc378daa952ba7f163c4a11628f55a4df523b3ef60405160405180910390a4505050565b606060008214156119ed576040518060400160405280600181526020017f30000000000000000000000000000000000000000000000000000000000000008152509050611b4d565b600082905060005b60008214611a1f578080611a0890613b89565b915050600a82611a1891906139e2565b91506119f5565b60008167ffffffffffffffff811115611a61577f4e487b7100000000000000000000000000000000000000000000000000000000600052604160045260246000fd5b6040519080825280601f01601f191660200182016040528015611a935781602001600182028036833780820191505090505b5090505b60008514611b4657600182611aac9190613a6d565b9150600a85611abb9190613bd2565b6030611ac7919061398c565b60f81b818381518110611b03577f4e487b7100000000000000000000000000000000000000000000000000000000600052603260045260246000fd5b60200101907effffffffffffffffffffffffffffffffffffffffffffffffffffffffffffff1916908160001a905350600a85611b3f91906139e2565b9450611a97565b8093505050505b919050565b600081604051602001611b65919061338b565b6040516020818303038152906040528051906020012060001c9050919050565b8173ffffffffffffffffffffffffffffffffffffffff168373ffffffffffffffffffffffffffffffffffffffff161415611bf4576040517f08c379a0000000000000000000000000000000000000000000000000000000008152600401611beb90613718565b60405180910390fd5b80600560008573ffffffffffffffffffffffffffffffffffffffff1673ffffffffffffffffffffffffffffffffffffffff16815260200190815260200160002060008473ffffffffffffffffffffffffffffffffffffffff1673ffffffffffffffffffffffffffffffffffffffff16815260200190815260200160002060006101000a81548160ff0219169083151502179055508173ffffffffffffffffffffffffffffffffffffffff168373ffffffffffffffffffffffffffffffffffffffff167f17307eab39ab6107e8899845ad3d59bd9653f200f220920489ca2b5937696c3183604051611ce5919061361d565b60405180910390a3505050565b611cfd848484611749565b611d098484848461214d565b611d48576040517f08c379a0000000000000000000000000000000000000000000000000000000008152600401611d3f90613698565b60405180910390fd5b50505050565b606060405180602001604052806000815250905090565b6060611d708261153e565b611daf576040517f08c379a0000000000000000000000000000000000000000000000000000000008152600401611da690613858565b60405180910390fd5b6000611db9611d4e565b90506000815111611dd95760405180602001604052806000815250611e04565b80611de3846119a5565b604051602001611df49291906133a2565b6040516020818303038152906040525b915050919050565b600081600001549050919050565b60606000825190506000811415611e435760405180602001604052806000815250915050611fd3565b60006003600283611e54919061398c565b611e5e91906139e2565b6004611e6a9190613a13565b90506000602082611e7b919061398c565b67ffffffffffffffff811115611eba577f4e487b7100000000000000000000000000000000000000000000000000000000600052604160045260246000fd5b6040519080825280601f01601f191660200182016040528015611eec5781602001600182028036833780820191505090505b5090506000604051806060016040528060408152602001613d52604091399050600181016020830160005b86811015611f905760038101905062ffffff818a015116603f8160121c168401518060081b905060ff603f83600c1c1686015116810190508060081b905060ff603f8360061c1686015116810190508060081b905060ff603f831686015116810190508060e01b90508084526004840193505050611f17565b506003860660018114611faa5760028114611fba57611fc5565b613d3d60f01b6002830352611fc5565b603d60f81b60018303525b508484525050819450505050505b919050565b611ff28282604051806020016040528060008152506122e4565b5050565b611fff8261153e565b61203e576040517f08c379a0000000000000000000000000000000000000000000000000000000008152600401612035906137b8565b60405180910390fd5b80600660008481526020019081526020016000209080519060200190612065929190612520565b505050565b6121048383836040516024016120829392919061365a565b6040516020818303038152906040527fe3849f79000000000000000000000000000000000000000000000000000000007bffffffffffffffffffffffffffffffffffffffffffffffffffffffff19166020820180517bffffffffffffffffffffffffffffffffffffffffffffffffffffffff838183161783525050505061211f565b505050565b6001816000016000828254019250508190555050565b60008151905060006a636f6e736f6c652e6c6f679050602083016000808483855afa5050505050565b505050565b600061216e8473ffffffffffffffffffffffffffffffffffffffff1661233f565b156122d7578373ffffffffffffffffffffffffffffffffffffffff1663150b7a026121976115aa565b8786866040518563ffffffff1660e01b81526004016121b994939291906135a8565b602060405180830381600087803b1580156121d357600080fd5b505af192505050801561220457506040513d601f19601f820116820180604052508101906122019190612864565b60015b612287573d8060008114612234576040519150601f19603f3d011682016040523d82523d6000602084013e612239565b606091505b5060008151141561227f576040517f08c379a000000000000000000000000000000000000000000000000000000000815260040161227690613698565b60405180910390fd5b805181602001fd5b63150b7a0260e01b7bffffffffffffffffffffffffffffffffffffffffffffffffffffffff1916817bffffffffffffffffffffffffffffffffffffffffffffffffffffffff1916149150506122dc565b600190505b949350505050565b6122ee8383612352565b6122fb600084848461214d565b61233a576040517f08c379a000000000000000000000000000000000000000000000000000000000815260040161233190613698565b60405180910390fd5b505050565b600080823b905060008111915050919050565b600073ffffffffffffffffffffffffffffffffffffffff168273ffffffffffffffffffffffffffffffffffffffff1614156123c2576040517f08c379a00000000000000000000000000000000000000000000000000000000081526004016123b9906137d8565b60405180910390fd5b6123cb8161153e565b1561240b576040517f08c379a0000000000000000000000000000000000000000000000000000000008152600401612402906136b8565b60405180910390fd5b61241760008383612148565b6001600360008473ffffffffffffffffffffffffffffffffffffffff1673ffffffffffffffffffffffffffffffffffffffff1681526020019081526020016000206000828254612467919061398c565b92505081905550816002600083815260200190815260200160002060006101000a81548173ffffffffffffffffffffffffffffffffffffffff021916908373ffffffffffffffffffffffffffffffffffffffff160217905550808273ffffffffffffffffffffffffffffffffffffffff16600073ffffffffffffffffffffffffffffffffffffffff167fddf252ad1be2c89b69c2b068fc378daa952ba7f163c4a11628f55a4df523b3ef60405160405180910390a45050565b82805461252c90613b57565b90600052602060002090601f01602090048101928261254e5760008555612595565b82601f1061256757805160ff1916838001178555612595565b82800160010185558215612595579182015b82811115612594578251825591602001919060010190612579565b5b5090506125a291906125a6565b5090565b5b808211156125bf5760008160009055506001016125a7565b5090565b60006125d66125d184613904565b6138d3565b9050828152602081018484840111156125ee57600080fd5b6125f9848285613b15565b509392505050565b60008135905061261081613cd0565b92915050565b60008135905061262581613ce7565b92915050565b60008135905061263a81613cfe565b92915050565b60008151905061264f81613cfe565b92915050565b600082601f83011261266657600080fd5b81356126768482602086016125c3565b91505092915050565b60008135905061268e81613d15565b92915050565b6000602082840312156126a657600080fd5b60006126b484828501612601565b91505092915050565b600080604083850312156126d057600080fd5b60006126de85828601612601565b92505060206126ef85828601612601565b9150509250929050565b60008060006060848603121561270e57600080fd5b600061271c86828701612601565b935050602061272d86828701612601565b925050604061273e8682870161267f565b9150509250925092565b6000806000806080858703121561275e57600080fd5b600061276c87828801612601565b945050602061277d87828801612601565b935050604061278e8782880161267f565b925050606085013567ffffffffffffffff8111156127ab57600080fd5b6127b787828801612655565b91505092959194509250565b600080604083850312156127d657600080fd5b60006127e485828601612601565b92505060206127f585828601612616565b9150509250929050565b6000806040838503121561281257600080fd5b600061282085828601612601565b92505060206128318582860161267f565b9150509250929050565b60006020828403121561284d57600080fd5b600061285b8482850161262b565b91505092915050565b60006020828403121561287657600080fd5b600061288484828501612640565b91505092915050565b60006020828403121561289f57600080fd5b60006128ad8482850161267f565b91505092915050565b6128bf81613aa1565b82525050565b6128ce81613ab3565b82525050565b60006128df82613949565b6128e9818561395f565b93506128f9818560208601613b24565b61290281613cbf565b840191505092915050565b600061291882613954565b6129228185613970565b9350612932818560208601613b24565b61293b81613cbf565b840191505092915050565b600061295182613954565b61295b8185613981565b935061296b818560208601613b24565b80840191505092915050565b6000815461298481613b57565b61298e8186613981565b945060018216600081146129a957600181146129ba576129ed565b60ff198316865281860193506129ed565b6129c385613934565b60005b838110156129e5578154818901526001820191506020810190506129c6565b838801955050505b50505092915050565b6000612a03602583613981565b91507f68747470733a2f2f6e6674707265766965772e30786465762e636f6465732f3f60008301527f636f64653d0000000000000000000000000000000000000000000000000000006020830152602582019050919050565b6000612a69603283613970565b91507f4552433732313a207472616e7366657220746f206e6f6e20455243373231526560008301527f63656976657220696d706c656d656e74657200000000000000000000000000006020830152604082019050919050565b6000612acf601c83613970565b91507f4552433732313a20746f6b656e20616c7265616479206d696e746564000000006000830152602082019050919050565b6000612b0f600a83613981565b91507f54484952445f574f5244000000000000000000000000000000000000000000006000830152600a82019050919050565b6000612b4f600a83613981565b91507f434f4c4f525f5459504f000000000000000000000000000000000000000000006000830152600a82019050919050565b6000612b8f601b83613970565b91507f35302f353020746f6b656e7320616c7265616479206d696e65642100000000006000830152602082019050919050565b6000612bcf602483613970565b91507f4552433732313a207472616e7366657220746f20746865207a65726f2061646460008301527f72657373000000000000000000000000000000000000000000000000000000006020830152604082019050919050565b6000612c35601983613970565b91507f4552433732313a20617070726f766520746f2063616c6c6572000000000000006000830152602082019050919050565b6000612c75606383613981565b91507f222c20226465736372697074696f6e223a20224120686967686c79206163636c60008301527f61696d656420636f6c6c656374696f6e206f6620737175617265732e222c202260208301527f696d616765223a2022646174613a696d6167652f7376672b786d6c3b6261736560408301527f36342c00000000000000000000000000000000000000000000000000000000006060830152606382019050919050565b6000612d27600b83613981565b91507f5345434f4e445f574f52440000000000000000000000000000000000000000006000830152600b82019050919050565b6000612d67602c83613970565b91507f4552433732313a206f70657261746f7220717565727920666f72206e6f6e657860008301527f697374656e7420746f6b656e00000000000000000000000000000000000000006020830152604082019050919050565b6000612dcd600d83613981565b91507f3c2f746578743e3c2f7376673e000000000000000000000000000000000000006000830152600d82019050919050565b6000612e0d603883613970565b91507f4552433732313a20617070726f76652063616c6c6572206973206e6f74206f7760008301527f6e6572206e6f7220617070726f76656420666f7220616c6c00000000000000006020830152604082019050919050565b6000612e73602a83613970565b91507f4552433732313a2062616c616e636520717565727920666f7220746865207a6560008301527f726f2061646472657373000000000000000000000000000000000000000000006020830152604082019050919050565b6000612ed9602983613970565b91507f4552433732313a206f776e657220717565727920666f72206e6f6e657869737460008301527f656e7420746f6b656e00000000000000000000000000000000000000000000006020830152604082019050919050565b6000612f3f602e83613970565b91507f45524337323155524953746f726167653a2055524920736574206f66206e6f6e60008301527f6578697374656e7420746f6b656e0000000000000000000000000000000000006020830152604082019050919050565b6000612fa5600283613981565b91507f227d0000000000000000000000000000000000000000000000000000000000006000830152600282019050919050565b6000612fe5602083613970565b91507f4552433732313a206d696e7420746f20746865207a65726f20616464726573736000830152602082019050919050565b6000613025603183613970565b91507f45524337323155524953746f726167653a2055524920717565727920666f722060008301527f6e6f6e6578697374656e7420746f6b656e0000000000000000000000000000006020830152604082019050919050565b600061308b602c83613970565b91507f4552433732313a20617070726f76656420717565727920666f72206e6f6e657860008301527f697374656e7420746f6b656e00000000000000000000000000000000000000006020830152604082019050919050565b60006130f1602983613970565b91507f4552433732313a207472616e73666572206f6620746f6b656e2074686174206960008301527f73206e6f74206f776e00000000000000000000000000000000000000000000006020830152604082019050919050565b6000613157602f83613970565b91507f4552433732314d657461646174613a2055524920717565727920666f72206e6f60008301527f6e6578697374656e7420746f6b656e00000000000000000000000000000000006020830152604082019050919050565b60006131bd600a83613981565b91507f7b226e616d65223a2022000000000000000000000000000000000000000000006000830152600a82019050919050565b60006131fd602183613970565b91507f4552433732313a20617070726f76616c20746f2063757272656e74206f776e6560008301527f72000000000000000000000000000000000000000000000000000000000000006020830152604082019050919050565b6000613263600a83613981565b91507f46495253545f574f5244000000000000000000000000000000000000000000006000830152600a82019050919050565b60006132a3601d83613981565b91507f646174613a6170706c69636174696f6e2f6a736f6e3b6261736536342c0000006000830152601d82019050919050565b60006132e3603183613970565b91507f4552433732313a207472616e736665722063616c6c6572206973206e6f74206f60008301527f776e6572206e6f7220617070726f7665640000000000000000000000000000006020830152604082019050919050565b6000613349600583613981565b91507f434f4c4f520000000000000000000000000000000000000000000000000000006000830152600582019050919050565b61338581613b0b565b82525050565b60006133978284612946565b915081905092915050565b60006133ae8285612946565b91506133ba8284612946565b91508190509392505050565b60006133d28286612946565b91506133de8285612946565b91506133ea8284612946565b9150819050949350505050565b60006134038289612977565b915061340f8288612946565b915061341b8287612977565b91506134278286612946565b91506134338285612977565b915061343f8284612946565b915061344a82612dc0565b9150819050979650505050505050565b6000613465826129f6565b91506134718284612946565b915081905092915050565b600061348782612b02565b91506134938284612946565b915081905092915050565b60006134a982612b42565b91506134b58284612946565b915081905092915050565b60006134cb82612d1a565b91506134d78284612946565b915081905092915050565b60006134ed826131b0565b91506134f98285612946565b915061350482612c68565b91506135108284612946565b915061351b82612f98565b91508190509392505050565b600061353282613256565b915061353e8284612946565b915081905092915050565b600061355482613296565b91506135608284612946565b915081905092915050565b60006135768261333c565b91506135828284612946565b915081905092915050565b60006020820190506135a260008301846128b6565b92915050565b60006080820190506135bd60008301876128b6565b6135ca60208301866128b6565b6135d7604083018561337c565b81810360608301526135e981846128d4565b905095945050505050565b600060408201905061360960008301856128b6565b613616602083018461337c565b9392505050565b600060208201905061363260008301846128c5565b92915050565b60006020820190508181036000830152613652818461290d565b905092915050565b60006060820190508181036000830152613674818661290d565b9050613683602083018561337c565b61369060408301846128b6565b949350505050565b600060208201905081810360008301526136b181612a5c565b9050919050565b600060208201905081810360008301526136d181612ac2565b9050919050565b600060208201905081810360008301526136f181612b82565b9050919050565b6000602082019050818103600083015261371181612bc2565b9050919050565b6000602082019050818103600083015261373181612c28565b9050919050565b6000602082019050818103600083015261375181612d5a565b9050919050565b6000602082019050818103600083015261377181612e00565b9050919050565b6000602082019050818103600083015261379181612e66565b9050919050565b600060208201905081810360008301526137b181612ecc565b9050919050565b600060208201905081810360008301526137d181612f32565b9050919050565b600060208201905081810360008301526137f181612fd8565b9050919050565b6000602082019050818103600083015261381181613018565b9050919050565b600060208201905081810360008301526138318161307e565b9050919050565b60006020820190508181036000830152613851816130e4565b9050919050565b600060208201905081810360008301526138718161314a565b9050919050565b60006020820190508181036000830152613891816131f0565b9050919050565b600060208201905081810360008301526138b1816132d6565b9050919050565b60006020820190506138cd600083018461337c565b92915050565b6000604051905081810181811067ffffffffffffffff821117156138fa576138f9613c90565b5b8060405250919050565b600067ffffffffffffffff82111561391f5761391e613c90565b5b601f19601f8301169050602081019050919050565b60008190508160005260206000209050919050565b600081519050919050565b600081519050919050565b600082825260208201905092915050565b600082825260208201905092915050565b600081905092915050565b600061399782613b0b565b91506139a283613b0b565b9250827fffffffffffffffffffffffffffffffffffffffffffffffffffffffffffffffff038211156139d7576139d6613c03565b5b828201905092915050565b60006139ed82613b0b565b91506139f883613b0b565b925082613a0857613a07613c32565b5b828204905092915050565b6000613a1e82613b0b565b9150613a2983613b0b565b9250817fffffffffffffffffffffffffffffffffffffffffffffffffffffffffffffffff0483118215151615613a6257613a61613c03565b5b828202905092915050565b6000613a7882613b0b565b9150613a8383613b0b565b925082821015613a9657613a95613c03565b5b828203905092915050565b6000613aac82613aeb565b9050919050565b60008115159050919050565b60007fffffffff0000000000000000000000000000000000000000000000000000000082169050919050565b600073ffffffffffffffffffffffffffffffffffffffff82169050919050565b6000819050919050565b82818337600083830152505050565b60005b83811015613b42578082015181840152602081019050613b27565b83811115613b51576000848401525b50505050565b60006002820490506001821680613b6f57607f821691505b60208210811415613b8357613b82613c61565b5b50919050565b6000613b9482613b0b565b91507fffffffffffffffffffffffffffffffffffffffffffffffffffffffffffffffff821415613bc757613bc6613c03565b5b600182019050919050565b6000613bdd82613b0b565b9150613be883613b0b565b925082613bf857613bf7613c32565b5b828206905092915050565b7f4e487b7100000000000000000000000000000000000000000000000000000000600052601160045260246000fd5b7f4e487b7100000000000000000000000000000000000000000000000000000000600052601260045260246000fd5b7f4e487b7100000000000000000000000000000000000000000000000000000000600052602260045260246000fd5b7f4e487b7100000000000000000000000000000000000000000000000000000000600052604160045260246000fd5b6000601f19601f8301169050919050565b613cd981613aa1565b8114613ce457600080fd5b50565b613cf081613ab3565b8114613cfb57600080fd5b50565b613d0781613abf565b8114613d1257600080fd5b50565b613d1e81613b0b565b8114613d2957600080fd5b5056fe416e204e465420772f20494420257320686173206265656e206d696e74656420746f2025734142434445464748494a4b4c4d4e4f505152535455565758595a6162636465666768696a6b6c6d6e6f707172737475767778797a303132333435363738392b2fa26469706673582212203d59971c3f5446be127f37f65a4cac0e91b811fcf9b5ffe67e7e7a10e51f824164736f6c63430008000033273b20666f6e742d66616d696c793a2073657269663b20666f6e742d73697a653a20323470783b207d3c2f7374796c653e3c726563742077696474683d273130302527206865696768743d2731303025272066696c6c3d273c73766720786d6c6e733d27687474703a2f2f7777772e77332e6f72672f323030302f73766727207072657365727665417370656374526174696f3d27784d696e594d696e206d656574272076696577426f783d273020302033353020333530273e3c7374796c653e2e62617365207b2066696c6c3a27273b202f3e3c7465787420783d273530252720793d273530252720636c6173733d27626173652720646f6d696e616e742d626173656c696e653d276d6964646c652720746578742d616e63686f723d276d6964646c65273e",
  "linkReferences": {},
  "deployedLinkReferences": {}
}